:02000002B0004C
:1040000000400B00A4850B00000006000C00050218
:084010000401A60F00000000EE
:0440180094730B0092
:10401C0009480A49884208B505D0094A824202D0AB
:10402C00121A03F0E5F80748074A0021121A03F0A8
:10403C0007F9014808BD00BFCCE10320F8800B0054
:10404C0050E6032050E60320EDE7032070B5074E41
:10405C00074C02F071FFA41BA4080025AC4200D150
:10406C0070BD56F8043B98470135F7E7A8800B0064
:10407C00D0800B0000F03CB808B500F04FF9BDE85B
:10408C00084002F011BF01F0CDBF01F0CBBF01F031
:10409C00D1BF01F0CFBF000008B5034A03490C2083
:1040AC0001F002FFFEE700BFA55B0B00A8730B003D
:1040BC000078B0FA80F04009704701230370704714
:1040CC000EB403B503AB002153F8042B019302F09B
:1040DC0016FC02B05DF804EB03B070470B6803608C
:1040EC004B68436013B15A6801325A607047000044
:1040FC0070B58AB002F052FE4FF4165102F03EFE3B
:10410C00002001F061FD43F698250446002001F0E3
:10411C005BFD001B61F10001A84271F1000307D2A5
:10412C0002F03CFE02F02EFE10B901F0FBFEEDE7B2
:10413C0002F034FE02F026FE06A801F0FBFE3A4B1C
:10414C00069A1B6839493A4D3A4E02A802F02EFDE8
:10415C0006A802F0CBFC00231A46CDE90033364901
:10416C00029801F0EFFE02F019FE029A3349FFF7B4
:10417C00A7FF334800F0F3FC00231A461946686881
:10418C0001F010FF002368681A46194601F0EAFE98
:10419C0000226868114601F0EDFE044628B102F0D9
:1041AC00FDFD3146FFF78CFFF2E702F0F7FD2549E4
:1041BC00FFF786FF0121102002F02EFF01211120B4
:1041CC0002F02AFF21460F2002F026FF2146112083
:1041DC0002F033FF2146102002F02FFF012001F0E6
:1041EC0051FF0121112002F028FF204601F0D4FCE0
:1041FC002146112002F021FF0121102002F01DFFA9
:10420C00482001F0C9FC3C2202210F4801F0DCFBE4
:10421C000D4801F0F1FA2146122002F0FDFE02A831
:10422C0002F064FC0AB070BDCCE10320BD730B003E
:10423C0018E70320D7730B0075490B00C4730B00F0
:10424C0084E60320D9730B0060E60320542809D8B8
:10425C00A0EB8001013900EB40000022C9B2C0B2D2
:10426C0000F0A5BEA92809D85538C0B200EB400211
:10427C00A0EB80000138D2B20021F0E75630C1B279
:10428C00A1EB8102013A01EB4101D2B2C9B200208B
:10429C00E6E700002DE9F041114F06460024002509
:1042AC000F4800F089FE1FFA85F840450AD92819F5
:1042BC00C0B2FFF7CBFF41460246384600F034FE51
:1042CC000135EDE73846013400F082FCA4B23046EB
:1042DC0001F0D8FEB4F5807FE1D1BDE8F08100BFDC
:1042EC0084E60320F8B504460D460B480A4FD1B2BC
:1042FC001E4600F063FEAC4206DAA1B232463846E6
:10430C0000F012FE0134F6E7034800F061FC642073
:10431C0001F0B8FE2846F8BD84E60320F0B5122063
:10432C0085B002F0A3FEC94DC94E286002F036FDDF
:10433C002A68C849FFF7C4FE2A6833689A4240F3DA
:10434C00D482C54BC54CFF2210210020FFF7CAFFB9
:10435C00C34800F03DFCC34801F04EFAC14801F0DF
:10436C00C3FAC048022101F05AF801221146BD4897
:10437C0001F048F8BB48022101F047F8B948012187
:10438C0001F048F8B849B748FFF79AFEB54801F074
:10439C00ABFA40F6B83001F075FEB24801F02CFAD9
:1043AC00B04801F0A1FAAF48022101F038F801221F
:1043BC001146AC4801F026F8AA48012101F025F875
:1043CC00A848012101F026F8A849A648FFF778FE75
:1043DC00A44801F089FA40F6B83001F053FEA14828
:1043EC0001F00AFA9F4801F07FFA9E48022101F081
:1043FC0016F8012740230022CDE90137802311460E
:10440C00984800939A4B00F0F9FE964801F06CFA2C
:10441C0040F6B83001F036FE0021102002F00DFEFF
:10442C00482001F0B9FB0F2002F020FE206002F0C2
:10443C00B5FC22688F49FFF743FE3946102002F085
:10444C00FCFD482001F0A8FB2368B3F5C87F06DA11
:10445C004FF47F03322202210020FFF743FF236831
:10446C00A3F5C873B3F5167F06D24FF47F0364220D
:10447C0002210020FFF736FF2368A3F57A73B3F50A
:10448C007A7F06D24FF47F03962202210020FFF799
:10449C0029FF2368A3F5FA63B3F57A7F06D24FF4AC
:1044AC007F03C82202210020FFF71CFF226840F680
:1044BC00B7339A4206DD4FF47F03FF22022100201E
:1044CC00FFF710FF0021102002F0B7FD482001F08B
:1044DC0063FB0F2002F0CAFD606002F05FFC6268B3
:1044EC006549FFF7EDFD0121102002F0A6FD4820E3
:1044FC0001F052FB6368B3F5C87F06DA4FF0FF1387
:10450C00322205210320FFF7EDFE6368A3F5C87383
:10451C00B3F5167F06D24FF0FF136422052103205A
:10452C00FFF7E0FE6368A3F57A73B3F57A7F06D2E2
:10453C004FF0FF13962205210320FFF7D3FE63688B
:10454C00A3F5FA63B3F57A7F06D24FF0FF13C822B6
:10455C0005210320FFF7C6FE626840F6B7339A4286
:10456C0006DD4FF0FF13FF2205210320FFF7BAFEF3
:10457C000021102002F061FD482001F00DFB0F20FE
:10458C0002F074FDA06002F009FCA2683B49FFF741
:10459C0097FD0121102002F050FD482001F0FCFA9B
:1045AC00A368B3F5C87F05DA354B32220821062003
:1045BC00FFF798FEA368A3F5C873B3F5167F05D271
:1045CC002F4B642208210620FFF78CFEA368A3F56D
:1045DC007A73B3F57A7F05D2294B962208210620EF
:1045EC00FFF780FEA368A3F5FA63B3F57A7F05D2D3
:1045FC00234BC82208210620FFF774FEA26840F660
:10460C00B7339A4205DD1E4BFF2208210620FFF727
:10461C0069FE0021102002F010FD482001F0BCFAC8
:10462C000F2002F023FDE06002F0B8FBE2681549B0
:10463C00FFF746FD0121102002F0FFFC482001F09D
:10464C00ABFAE368B3F5C87F24DA1DE05CE603201F
:10465C00D0E10320DC730B0000FFFF0098E6032081
:10466C0084E6032060E60320F1730B001C740B003E
:10467C001E750B0051740B0064740B0077740B00E7
:10468C00FF0077008A740B00FF2332220B210920D4
:10469C00FFF728FEE368A3F5C873B3F5167F05D2C0
:1046AC00FF2364220B210920FFF71CFEE368A3F50E
:1046BC007A73B3F57A7F05D2FF2396220B2109205A
:1046CC00FFF710FEE368A3F5FA63B3F57A7F05D222
:1046DC00FF23C8220B210920FFF704FEE26840F6F5
:1046EC00B7339A4205DDFF231A460B210920FFF749
:1046FC00F9FD0021102002F0A0FC482001F04CFA3A
:10470C000F2002F0B3FC206102F048FB22698349C0
:10471C00FFF7D6FC0121102002F08FFC482001F09D
:10472C003BFA2369B3F5C87F06DA4FF47F43322294
:10473C000D210C20FFF7D6FD2369A3F5C873B3F543
:10474C00167F06D24FF47F4364220D210C20FFF715
:10475C00C9FD2369A3F57A73B3F57A7F06D24FF4BA
:10476C007F4396220D210C20FFF7BCFD2369A3F596
:10477C00FA63B3F57A7F06D24FF47F43C8220D213A
:10478C000C20FFF7AFFD226940F6B7339A4206DDE5
:10479C004FF47F43FF220D210C20FFF7A3FD0021D6
:1047AC00102002F04AFC482001F0F6F90F2002F02C
:1047BC005DFC606102F0F2FA62695949FFF780FC16
:1047CC000121102002F039FC482001F0E5F92369A1
:1047DC00B3F5C87F05DA534B32220F210E20FFF7B9
:1047EC0081FD6369A3F5C873B3F5167F05D24D4BF4
:1047FC0064220F210E20FFF775FD6369A3F57A7310
:10480C00B3F57A7F05D2474B96220F210E20FFF786
:10481C0069FD6369A3F5FA63B3F57A7F05D2414B61
:10482C00C8220F210E20FFF75DFD626940F6B733F9
:10483C009A4205DD3B4BFF220F210E20FFF752FD64
:10484C000021102002F0F9FB482001F0A5F90F20FF
:10485C0002F00CFCA06102F0A1FAA2693249FFF748
:10486C002FFC0121102002F0E8FB482001F094F904
:10487C00A369B3F5C87F05DA2C4B32220F210E2029
:10488C00FFF730FD2A4CA369A3F5C873B3F5167F67
:10489C0005D21021254B64220846FFF723FDA3699E
:1048AC00A3F57A73B3F57A7F05D210211F4B9622AC
:1048BC000846FFF717FDA369A3F5FA63B3F57A7FF2
:1048CC0005D21021194BC8220846FFF70BFDA2692F
:1048DC0040F6B7339A4205DD1021144BFF220846EF
:1048EC00FFF700FD1420FFF7D5FC2A6833689A42C5
:1048FC0012DA122002F0BAFB28600E4800F07CFF9E
:10490C000C4800F0F1FF0C4800F07FFB0A4805B0A2
:10491C00BDE8F04000F05CB905B0F0BD9D740B0033
:10492C00B0740B0000FFFF00C3740B000077FF0096
:10493C0098E6032060E6032084E6032038B504687B
:10494C0005467CB16368013B63605BB92368204614
:10495C009B689847A368013BA3601BB9236820465A
:10496C00DB689847284638BD2DE9F04399B00846D6
:10497C00019102F09BFC0199DFF86881574E0246C9
:10498C0004A801F057FE069C04A90EA8FFF7A6FB8D
:10499C0021460EAA12A801F00DFE0FA8FFF7CEFFBC
:1049AC004F4C12A801F01EFE002800F08E8002F081
:1049BC00F5F9159F054612A90EA8FFF78FFB0EAA55
:1049CC0039460AA801F0D2FD0FA8FFF7B7FFDDF8B2
:1049DC0058900C9F12A90EA8FFF780FB0EAA49460F
:1049EC0007A801F0CEFC0FA8FFF7A8FFDDF8249074
:1049FC0007A902A8FFF772FB02AA49460EA801F00C
:104A0C00B5FD03A8FFF79AFF109B3A46414628468E
:104A1C00FFF756FB0FA8FFF791FF08A8FFF78EFFD3
:104A2C000BA8FFF78BFF204600F0E6FE204600F0B7
:104A3C005BFF2046022100F0F2FC012211462046C9
:104A4C0000F0E0FC2046022100F0DFFC20460121B2
:104A5C0000F0E0FC159D12A90EA8FFF73FFB0EAA73
:104A6C0029460AA801F082FD0FA8FFF767FF169FE1
:104A7C000C9D12A90EA8FFF731FB0EAA394607A808
:104A8C0001F07FFC0FA8FFF759FF099F07A902A8A7
:104A9C00FFF724FB02AA39460EA801F067FD03A814
:104AAC00FFF74CFF109B2A4631462046FFF708FBC8
:104ABC000FA8FFF743FF08A8FFF740FF0BA8FFF76D
:104ACC003DFF204600F010FF6BE713A8FFF736FF01
:104ADC0005A8FFF733FF19B0BDE8F083E7740B00AE
:104AEC0060E60320D6740B0008B5082202231021BF
:104AFC00094800F05BF80948042100F067FE084BF8
:104B0C000022C3E90022A2F580329A60BDE8084079
:104B1C00012001F0E3B900BF84E6032060E6032026
:104B2C0050E6032038B50446C0680D4608B101F0C4
:104B3C0081FAA379062B0CBF0420032010FB05F08F
:104B4C0080B2A08001F06EFAE06028B1A28800214A
:104B5C0002F076FB658038BDA0806080FBE710B565
:104B6C0004460121C07902F057FAE079002102F0E5
:104B7C0064FA0123237010BD37B5037805460C4643
:104B8C001BB1C079002102F047FA2B78EC715BB1B4
:104B9C00A0B20121019002F03FFA0198002103B06C
:104BAC00BDE8304002F049BA03B030BD70B5002505
:104BBC00044616468371C0E9035505700572FFF76C
:104BCC00B1FF20463146FFF7D7FF204670BD0000ED
:104BDC00C368002B00F0A4812DE9F04F8379023BD0
:104BEC00DBB2042B9CBFBF4A52F8234085B005466C
:104BFC0088BF322400F0D8FF2B69C01AA042F9D329
:104C0C00B94CAE88D4F800351BB9D4F86035002BFC
:104C1C007EDBB64CD4F8003523B9D4F86035002BC4
:104C2C00C0F26E81B24CD4F80035002B00F04481F8
:104C3C00EB79B04AB04C1268190102EB0313575CC4
:104C4C00AE495B78D1F8FC2042F08072C1F8FC20B0
:104C5C00226803F01F0343EA471301273A432260FB
:104C6C00A988D5F80C80D4F804909F40002944D032
:104C7C004FF0000E72464FF0A04118F801CB0820FF
:104C8C00802663689B1A462BFBD96268D1F80835DD
:104C9C001CEA060F43EA0703C1F808352FD06368F6
:104CAC009B1A282BFBD9D1F80C35013843EA0703A2
:104CBC004FEA5606C1F80C35E3D1AB880EF1010E64
:104CCC001FFA8EFE7345D8D84FF4307103FB01F1F7
:104CDC0063689B1A462BFBD96368A3EB09098945CA
:104CEC00C0F0E4804FF4967000F056FFA988D5F818
:104CFC000C80D4F804900029BAD10A46E8E763681E
:104D0C009B1A112BCFD863689B1A112BF7D9CAE7C2
:104D1C00D4F86435002BBFF67CAFD4F86835002B83
:104D2C00BFF677AFD4F86C35002BBFF672AF3601F7
:104D3C00331D1846009301F075F900283FF478AF45
:104D4C00AB88002B00F0ED80EA68013B12FA83F788
:104D5C0002F1FF3E002348F2060248F20D011EF854
:104D6C0001CF1CF0800F0CBF93468B461CF0400FFC
:104D7C000CBF16460E461CF0200F0CBF9046884602
:104D8C0003F10109CDF80880019603F102081FFA1E
:104D9C0089F9019E20F813B01FFA88F820F81960E1
:104DAC00029E20F8186003F103081CF0100F1FFA84
:104DBC0088F80CBF93468B4620F818B003F1040812
:104DCC001CF0080F1FFA88F80CBF93468B4620F88E
:104DDC0018B003F105081CF0040F1FFA88F80CBF7B
:104DEC0093468B4620F818B003F1080A03F1060825
:104DFC0007339BB21CF0020F1FFA88F80CBF9346C6
:104E0C008B46CDF80CA01CF0010F20F818B015BF84
:104E1C0020F8131020F813201FFA8AF3BDF80C3079
:104E2C0077459CD1591C023389B29BB249005B0077
:104E3C004FF400474752009AC7522E4B56081F6832
:104E4C0000221423C4F80425C4F80C25C4F8083532
:104E5C00C4F81425C4F81025C4F82005C4F824653A
:104E6C00C4F82825C4F82C25EB7907EB031C1B018F
:104E7C000121FE5C9CF8013003F01F0343EA46134A
:104E8C00C4F86035C4F80015C4F81021A160D4F83A
:104E9C001031002BFBD000234FF0FF32C4F810313F
:104EAC00C4F80035C4F8602501F0C4F800F07CFEAD
:104EBC00286105B0BDE8F08FD4F86035002BBFF643
:104ECC00B7AED4F86435002BBFF6B2AED4F8683563
:104EDC00002BBFF6ADAED4F86C35002BBFF6A8AEE8
:104EEC0025E700BF20790B0000C0014000100240F4
:104EFC0000200240B4E60320001000E000ED00E0CA
:104F0C00D4F86435002BBFF68DAED4F86835002B81
:104F1C00BFF688AED4F86C35002BBFF683AE06E72F
:104F2C0070470423022183E743888B42F0B52DD9C7
:104F3C00067AC2F30743C2F30724D5B23EB17343DA
:104F4C0074437543C3F30723C4F307242D0A90F865
:104F5C0006C0C768BCF1060F0CBF042603264E43DF
:104F6C00ACF1020CB919BCF1060F1DD8DFE80CF03E
:104F7C00041C08040F040400BC554B708D7005E034
:104F8C00FE2B28BFFE23BB554D708C70F0BDBB555E
:104F9C004C708D70037A120E13B9D2B2CA70F5E749
:104FAC005A43C2F30722F9E7BB554C70E6E742EAD5
:104FBC00012141EA0040704740887047037A4A1C3F
:104FCC00D2B2934270B51FD0013B13F0FF03C468FB
:104FDC000CD0FF291FBF110201F1FF31B1FBF3F31C
:104FEC009BB204BF4FF6FF71B1FBF3F325468688E5
:104FFC00291B89B28E4206D929785943C1F307215E
:10500C0005F8011BF3E7027270BD8288C0680021AD
:10501C0002F016B908B500F0DFFD014B186008BDB1
:10502C00B4E603202DE9F04F85B01F46BDF938805A
:10503C00BDF83C30A8EB0209A7EB010AB9F1000F4F
:10504C00B8BFC9F10009BAF1000FB8BFCAF1000A24
:10505C00D14583460C46154604DD3A462C46474658
:10506C000D469046BC4205DD2A46454690462246F2
:10507C003C4617463E1BB2B20092A8EB050282EAF0
:10508C00E271A1EBE271C6F3C03202FA86F6454535
:10509C00B4BF01224FF0FF32019176100292BC4254
:1050AC001CDCDBF800200393D145D2F81080C7BF7D
:1050BC00294622462A4621465846C047019A039B58
:1050CC00B61AB1B236B2002E05DA029A1544009A1D
:1050DC0056182DB236B2013424B2E0E705B0BDE863
:1050EC00F08F2DE9F347BDF82C800768BDF92890A7
:1050FC00CDF800800446FF6916468A461D46B8471F
:10510C002368CDF8008009F1FF323244DF69514643
:10511C002B46204612B2B8472368CDF800809F6911
:10512C0032464B4651462046B8476B1E03EB0A01EC
:10513C002368CDF828809D6932464B4609B220463B
:10514C00AC4602B0BDE8F047604737B5013B1344AD
:10515C000468BDF8185001951BB2009364690B46A6
:10516C00A04703B030BD37B5BDF818500468CDE981
:10517C000025013B0B4464691BB2A04703B030BD52
:10518C002DE9F347BDF92890BDF82C8005469246D1
:10519C000C46CE18B4420BDA2B68CDF800809F6910
:1051AC0021464B46524628460134B84724B2F1E713
:1051BC0002B0BDE8F08713B502680191B0F90E108A
:1051CC000091546AB0F90C3000221146A04702B08D
:1051DC0010BD704730B54281C2814FF0FF320024C0
:1051EC00054D4261012244600560018181810461A9
:1051FC000283827630BD00BF387E0B002DE9F04F64
:10520C0089B0CDE90323BDF94870BDF94C30059345
:10521C00FA1DCDE9010148BF07F10E020024BDF8CB
:10522C0050304FEAE20B25464FF0800905992AB21F
:10523C0091422ADD049A02EB040A039A2A444FF0A5
:10524C00000812B20FFA88F087421FFA88F119DDB4
:10525C00C0101AF800C001F0070049FA00F01CEA6F
:10526C00000F0CD002980144019800680069CDE948
:10527C000623064609B20198B047DDE9062308F17A
:10528C000108DFE701355C44D0E709B0BDE8F08FD9
:10529C002DE9F04F2DED028B8DB007460491BDF832
:1052AC0060100591BDF864100691B0F90C100498CB
:1052BC009DF86850814252DDB7F90E1091424EDDD7
:1052CC00062111FB0504002C49DD02EBC504002C62
:1052DC0045DD03EB83030B9393B2079308339BB227
:1052EC00089100240993052C1CBF2C4B0B9A079E8C
:1052FC0016BF1B1900239B5C0393049AABB20A9351
:10530C0004FB05F313FA82F31BB204EB020A08EE5A
:10531C00103AB0460FFA85F90FFA8AFA039BDB07AD
:10532C002FD5012D3B681FD1D3F810B0059B32B29D
:10533C0051463846D847039B5B0803930A9B0136BA
:10534C009844099BB6B2B3421FFA88F8E6D1089B81
:10535C00013B013413F0FF0364B20893C3D10DB0C9
:10536C00BDEC028BBDE8F08F059ACDE9009218EEEA
:10537C00101AD3F824B00FFA88F24B463846D847A7
:10538C00D9E7DDE905239342D5D0012D3B6803D144
:10539C00D3F810B0069BCAE7069AE6E734790B00FF
:1053AC0030B50A2985B0044607D1027E638A03EB27
:1053BC00C20363820023238221E00D291FD0037EC8
:1053CC000293C38A0193838A0093B0F912200B468F
:1053DC00B0F91010FFF75CFF207E238A00EB400130
:1053EC0003EB4103A17E1BB20246238239B1B4F90F
:1053FC000C106FF0050505FB00118B42D6DC01206B
:10540C0005B030BD018242827047012938BF0121AD
:10541C0001767047C18281827047407E704701F0EF
:10542C000303B0F90A204376C907B0F9083059BF15
:10543C008381C2818281C3817047B0F90C007047AF
:10544C00B0F90E0070470000F0B5457EBDF8144071
:10545C00022D69D0032D00F09980012D6CD10589A6
:10546C00D2432A4412B2002A5DDBB0F908509542AF
:10547C0059DD0029BEBF5B181BB20021B0F90A0030
:10548C00CD188542C4BF431A1BB2002B4BDDC1F3B0
:10549C00C400DFF820C102EBC01211F00701DBB22F
:1054AC000CEB02001AD0C1F10805404EEDB2AB4234
:1054BC00775D3FBFA5EB030EFF2646FA0EF637408D
:1054CC001CF80260012C0CBF3E43BE43AB420CF8EF
:1054DC00026028D308390B44DBB28030072B19D972
:1054EC00012C4FF0FF3518BF0025EDB200F1800103
:1054FC001A46083AD2B2072A01F8805C01F1800101
:10550C00F7D8A3F10802C2F3C402013200EBC210B7
:10551C0003F007033BB1264AD25C0378012C0CBF85
:10552C00134393430370F0BD4589D2432A44CD18ED
:10553C000189491B12B209B2002AF4DBB0F90A50F6
:10554C009542F0DD0029BEBF5B181BB20021B0F9FB
:10555C000870CE18BE42C4BF6B1A1BB2002BE2DD22
:10556C00D010802510FB05111248014402F00700F1
:10557C0001228240012CD2B20B440CD18B42D2D0EE
:10558C0011F8010B104301F8010CF7E7CD18418914
:10559C00491B09B267E7D243D2B28B42C3D011F890
:1055AC00010B104001F8010CF7E700BFDCE1032010
:1055BC00D4E10320E4E10320F0B5457EBDF81440AE
:1055CC00022D34D0032D00F09B80012D37D1D5183E
:1055DC000289521B12B20029C0F29180B0F90A5014
:1055EC008D4240F38C80002ABEBF9B181BB2002258
:1055FC00B0F90870D618BE42C4BFAB1A1BB2002B50
:10560C007DDDC810802510FB05224548024401F0C1
:10561C00070001218140012CC9B2134475D19A4273
:10562C006DD012F8010B084302F8010CF7E705895D
:10563C00C9432944D5184289521B09B212B2002918
:10564C005DDBB0F908508D4259DD002ABEBF9B18B6
:10565C001BB20022B0F90A00D5188542C4BF831AC8
:10566C001BB2002B4BDDC2F3C400DFF8B4C001EB5E
:10567C00C01112F00702DBB20CEB01001AD0C2F120
:10568C000805284EEDB2AB42775D3FBFA5EB030E8C
:10569C00FF2646FA0EF637401CF80160012C0CBFB1
:1056AC003E43BE43AB420CF8016028D3083A134486
:1056BC00DBB28030072B19D9012C4FF0FF3518BF06
:1056CC000025EDB200F180011A46083AD2B2072A41
:1056DC0001F8805C01F18001F7D8A3F10802C2F354
:1056EC00C402013200EBC21003F007033BB10E4AB7
:1056FC00D25C0378012C0CBF134393430370F0BDB1
:10570C004589C943294409B265E7C943C9B29A42DC
:10571C00F5D012F8010B084002F8010CF7E700BFB6
:10572C00E4E10320DCE10320D4E103207047000016
:10573C00F8B50D1E064614461F462DDBFFF77DFE01
:10574C00A84229DD002C27DB3046FFF779FEA0426A
:10575C0022DD3046FFF761FE02281ED0032825D03B
:10576C00012804D13389E2431A442C4615B2002C8B
:10577C002246B8BFE21DD210802112FB01550E4902
:10578C00012204F007044B5702FA04F464B2974266
:10579C000CBF2343A3434B55F8BD318972890139A2
:1057AC00E4434D1B14442DB224B2E0E77389013B52
:1057BC005B1B25461CB2DAE7E4E1032010B524217B
:1057CC000446FEF766FC204610BD000038B54022AA
:1057DC0004460D468021FFF7FDFC064B2360FF239A
:1057EC0084F8213063774FF6FF73E38384F82050FD
:1057FC00204638BD707E0B0002484FF480620021B9
:10580C0001F01EBDE4E1032013B50B4C2178BFF36E
:10581C005B8F11F001010BD120460191FEF748FC82
:10582C00019928B1054801F0A7F82046FEF745FC80
:10583C00024802B010BD00BFB8E60320BCE603204E
:10584C0007B590F8223043B10191FFF7DDFF0199C4
:10585C0003B05DF804EB01F043B90B46817F407F48
:10586C00012203B05DF804EB01F017BC38B590F9D8
:10587C001D30013304460D461DD090F92100012145
:10588C0080B201F0DAFB94F91F00002180B201F024
:10589C00D4FB94F92100002180B201F0CEFB294603
:1058AC002046FFF7CDFF94F921000121BDE83840D7
:1058BC0080B201F0C2BB01F02DFC94F91B1000F07A
:1058CC0093FC01F027FC036800219B68984701F0CA
:1058DC0021FC036829469B68984701F01BFCBDE836
:1058EC00384000F088BC0000F8B521210446FFF7D1
:1058FC00BDFF00212046FFF7B9FF7F212046FFF7AF
:10590C00B5FF22212046FFF7B1FF00212046FFF70B
:10591C00ADFF07212046FFF7A9FF94F91D30294F51
:10592C0001332AD094F92100012180B201F085FBCA
:10593C0094F91F00012180B201F07FFB94F9210042
:10594C00002180B201F079FB012000F025F94FF421
:10595C008065013D17F8011B2046ADB2FFF770FFC3
:10596C00002DF6D1012000F017F994F92100012146
:10597C00BDE8F84080B201F060BB002501F0CAFB25
:10598C0094F91B1000F030FC01F0C4FB03684021BB
:10599C009B68984705F11006B6B201F0BBFB036893
:1059AC00795D9B6898476B1C9DB2AE42F5D101F0B6
:1059BC00B1FB00F020FCB6F5806F00D1F8BD354688
:1059CC00DCE700BFE4E1032038B590F91D30017726
:1059DC00013304460D46C27600F0C98090F91F00D1
:1059EC00012180B201F018FB94F92100012180B251
:1059FC0001F012FB94F82230002B00F0A68094F9F1
:105A0C002100012180B201F018FBFFF7FDFE0121FE
:105A1C0000F0D0FFFFF7F8FE102101F03BF8FFF784
:105A2C00F3FE002100F0DAFFFFF7EEFE00F0AEFF10
:105A3C0094F92000012180B201F0EEFA94F92000D3
:105A4C00012180B201F0F9FA012000F01BFB94F95E
:105A5C002000002180B201F0F0FA0A2000F012FBC5
:105A6C0094F92000012180B201F0E7FA2046AE2122
:105A7C00FFF7FCFE2046D521FFF7F8FE20468021DB
:105A8C00FFF7F4FE2046A821FFF7F0FE20463F2149
:105A9C00FFF7ECFE2046D321FFF7E8FE204600215D
:105AAC00FFF7E4FE20464021FFF7E0FE8D21204663
:105ABC00FFF7DCFE012D0CBF102114212046FFF74F
:105ACC00D5FE20462021FFF7D1FE20460021FFF70E
:105ADC00CDFE2046A121FFF7C9FE2046C821FFF7C5
:105AEC00C5FE2046DA21FFF7C1FE20461221FFF742
:105AFC00BDFE81212046FFF7B9FE012D0CBF9F2171
:105B0C00CF212046FFF7B2FED9212046FFF7AEFE8B
:105B1C00012D0CBF2221F1212046FFF7A7FE2046C4
:105B2C00DB21FFF7A3FE20464021FFF79FFE204616
:105B3C00A421FFF79BFE2046A621FFF797FE2046E7
:105B4C00AF21BDE83840FFF791BE94F91D0001214B
:105B5C0080B201F061FA94F91E00012180B201F0CB
:105B6C005BFA94F82230002B3FF462AF47E701F068
:105B7C00D1FA00F02FFB5BE708B5024B1B685B6C9E
:105B8C00019308BD4802030008B5024B1B685B6813
:105B9C00019308BD1802030008B5024B1B68DB68B3
:105BAC00019308BD1802030008B5024B1B681B6962
:105BBC00019308BD1802030008B5024B1B685B6912
:105BCC00019308BD1802030008B5024B1B68DB6D7E
:105BDC00019308BD1802030008B5024B1B681B6833
:105BEC00019308BD2C02030008B5024B1B685B68CF
:105BFC00019308BD2C02030008B5024B1B689B687F
:105C0C00019308BD2C02030008B5024B1B68DB682E
:105C1C00019308BD2C02030008B5024B1B681B69DD
:105C2C00019308BD2C02030008B5024B1B681B6BCB
:105C3C00019308BD2C02030008B5024B1B68DB68FE
:105C4C00019308BD2802030008B5024B1B689B6931
:105C5C00019308BD2802030008B5024B1B68DB69E1
:105C6C00019308BD2802030008B5024B1B681B6A90
:105C7C00019308BD2802030008B5024B1B685B6A40
:105C8C00019308BD2802030008B5024B1B689B6AF0
:105C9C00019308BD2802030008B5024B1B68DB6AA0
:105CAC00019308BD2802030008B5024B1B681B6B4F
:105CBC00019308BD2802030008B5024B1B685B6BFF
:105CCC00019308BD2802030008B5024B1B681B6C2E
:105CDC00019308BD2802030008B5024B1B685B69E1
:105CEC00019308BD6402030008B5024B1B689B6856
:105CFC00019308BD6802030008B5024B1B68DB6802
:105D0C00019308BD6802030008B5024B1B681B68B1
:105D1C00019308BD3002030008B5024B1B689B6859
:105D2C00019308BD3002030008B5024B1B68DB6809
:105D3C00019308BD3002030008B5024B1B681B69B8
:105D4C00019308BD3002030008B5024B1B685B6968
:105D5C00019308BD3002030008B5024B1B68DB69D8
:105D6C00019308BD3002030008B5024B1B681B6A87
:105D7C00019308BD3002030008B5024B1B685B6A37
:105D8C00019308BD3002030008B5024B1B681B6C65
:105D9C00019308BD3002030008B5024B1B685B6C15
:105DAC00019308BD3002030008B5024B1B68DB6889
:105DBC00019308BD3C02030008B5024B1B681B692C
:105DCC00019308BD3C02030008B5024B1B685B69DC
:105DDC00019308BD3C02030008B5024B1B689B698C
:105DEC00019308BD3C02030008B5024B1B68DB693C
:105DFC00019308BD3C02030008B5024B1B681B6AEB
:105E0C00019308BD3C02030008B5024B1B689B6A5A
:105E1C00019308BD3C02030008B5024B1B681B6CC8
:105E2C00019308BD3C02030008B5024B1B681B68BC
:105E3C00019308BD4C02030008B5024B1B685B685C
:105E4C00019308BD4C02030008B5024B1B681B698B
:105E5C00019308BD4C02030008B5024B1B685B693B
:105E6C00019308BD4C02030008B5024B1B689B69EB
:105E7C00019308BD4C02030008B5024B1B68DB699B
:105E8C00019308BD4C02030008B5024B1B681B6A4A
:105E9C00019308BD4C02030008B5024B1B689B6ABA
:105EAC00019308BD4C02030008B5024B1B685B6BE9
:105EBC00019308BD6002030008B5024B1B689B6B85
:105ECC00019308BD6002030008B5034B1B68D3F8AF
:105EDC00AC30019308BD00006002030008B5024B12
:105EEC001B685B68019308BD2002030008B5024BD8
:105EFC001B685B69019308BD2002030008B5034BC6
:105F0C001B68D3F88830019308BD00002002030001
:105F1C0008B5034B1B68D3F89430019308BD0000FF
:105F2C002002030008B5024B1B689B68019308BD57
:105F3C004402030008B5024B1B68DB69019308BDE2
:105F4C004402030008B5024B1B685B6A019308BD51
:105F5C004402030008B5024B1B68DB6B019308BDC0
:105F6C004402030008B5024B1B685B68019308BD33
:105F7C004002030008B5024B1B689B68019308BDE7
:105F8C004002030008B5024B1B68DB68019308BD97
:105F9C004002030008B5024B1B681B69019308BD46
:105FAC004002030008B5024B1B685B69019308BDF6
:105FBC004002030008B5024B1B689B69019308BDA6
:105FCC004002030008B5024B1B68DB69019308BD56
:105FDC004002030008B5024B1B681B6A019308BD05
:105FEC004002030008B5024B1B681B6B019308BDF4
:105FFC004002030008B5024B1B685B6B019308BDA4
:10600C004002030008B5024B1B681B6C019308BDD2
:10601C004002030008B5024B1B685B6C019308BD82
:10602C004002030008B5024B1B681B68019308BDB6
:10603C001C02030008B5024B1B685B68019308BD8A
:10604C001C02030008B5024B1B689B68019308BD3A
:10605C001C02030008B5024B1B685B6A019308BD68
:10606C001C02030008B5024B1B681B6C019308BD96
:10607C001C02030008B5024B1B685B6C019308BD46
:10608C001C0203000021FFF731BF10B54368013B30
:10609C000446436063B903689B689847A368013B57
:1060AC00A3602BB923682046DB68BDE81040184775
:1060BC0010BD0000024800230360FFF75DBD00BF68
:1060CC00C4E60320002240681146FFF783BF00227C
:1060DC0040681146FFF78EBF40680022FFF782BF71
:1060EC004068002281F00101FFF76CBF002340687B
:1060FC001A461946FFF75EBF002340681A46194638
:10610C00FFF750BF002240681146FFF743BF002243
:10611C0040681146FFF72EBF406800220221FFF7AE
:10612C0031BF002340681A46FFF71CBF024B032205
:10613C005A60024A1A607047C8E60320A87E0B001A
:10614C007047F8B5064615460C468F18BC4206D06B
:10615C00336814F8011B9B6830469847F6E72846CD
:10616C00F8BD007C0022FFF77FBD007C0021FFF70B
:10617C0083BD007C0021FFF787BD007C0021FFF769
:10618C008BBD007C0021FFF78FBD10B51421044698
:10619C00FDF77FFF204610BD38B5044615464FF479
:1061AC007A730022C4E90123094B21740846236049
:1061BC002946FFF789FDBF3008D16B69DB0705D590
:1061CC006868FFF737FFE868FFF734FF204638BDF3
:1061DC00E47E0B000023007C1A461946FFF72CBD09
:1061EC00007C0022FFF730BDC9B2FFF7F9BF007C7D
:1061FC000022FFF731BD0121FFF7F9BF704710B541
:10620C0018210446FDF745FF204610BDF0B5037D6F
:10621C00062B8DB00E4600F104074FF0000412D08F
:10622C0000F1080515F8011D0A22304600F049FB63
:10623C00AF42044419D0002CF4D02E21304600F08B
:10624C0031FB0444EEE72F236A4639460A208DF8C9
:10625C000040FFF741FD684601F028F8336802461C
:10626C00DB68694630469847044620460DB0F0BDC1
:10627C0010B5054B0446112240F8043B002100F0F8
:10628C00DFFF204610BD00BF0C7F0B000346074A02
:10629C0010B543F8042B01F1100251F8044B43F8EC
:1062AC00044B9142F9D10A781A7010BD0C7F0B0087
:1062BC0010B59DF8084044EA032343EA024242EA3F
:1062CC00016104234160037510BD000007B5064B46
:1062DC000360CB7800938B784A780978FFF7E8FF56
:1062EC0003B05DF804FB00BF0C7F0B0000F1100342
:1062FC00012213F8101C0129184608D153F8041C6C
:10630C0002EB4102013A03F11003F2D1704702296A
:10631C0004BF53F8041C5218F4E770470020704770
:10632C0010B510210446FDF7B4FE204610BD08B58B
:10633C00FFF7F6FF08BD10B5C4687CB1206808B142
:10634C00FDF7A5FE237A1BB1606808B1FDF79FFE2F
:10635C0020460C21BDE81040FDF79BBE10BD38B5A2
:10636C000B6803604D6843689D42044608D015B124
:10637C006B6801336B60606808B1FFF786FE65607F
:10638C0038BD0B461146002210B5C0E90022044668
:10639C0083600BB9204610BDFFF7E1FFFAE7000060
:1063AC002DE9F04786B00746884602A80021002454
:1063BC009946102392460293FFF77EFDCDE90044E7
:1063CC0023464246394602A8FFF77EFD061E24DD11
:1063DC00B6F1006F1249B4BF30014FF0FF3000F03E
:1063EC00FFFE054698B1002102A80024FFF764FDCA
:1063FC00CDE900642B464246394602A8FFF764FDFE
:10640C00A04207DDCAF800500120C9F8006006B0B0
:10641C00BDE8F0872846FDF73AFE2046F7E700BFB7
:10642C0034800B002DE9F84F436886680B4488468E
:10643C000E4407461C4619464FF00D094FF0090A49
:10644C00B44263D0254615F8012B5C2A2BD1A1420E
:10645C0007D0A4EB010B18465A4600F0D7FE0346B2
:10646C005B44B54239D06278752A2AD1A21CB21A83
:10647C00032A32DDA01D04F1050E4FF0000CAE45D1
:10648C0053D015F8011FA1F130025FFA82FBBBF16A
:10649C00090F05D9A1F16102052A07D8A1F157020C
:1064AC0042EA0C1CEBE728460446C9E7A1F141027D
:1064BC00052A12D8A1F13702F2E703F801CB014605
:1064CC00F2E76E2A1CD00ED8622A13D007D82F2AD6
:1064DC0011D05C2A0FD0222A0DD0002023E0662A8E
:1064EC00FBD10C2207E0722A0DD0742AF5D183F867
:1064FC0000A001E008221A70A11C01330846D3E762
:10650C004FF00A02F7E783F80090F5E7A14206D0B6
:10651C00641A1846224600F079FE03462344A3EB86
:10652C000803BB600120BDE8F88FBCF17F0FC4D914
:10653C002146B9E7F8B50446154600EB01160027CD
:10654C00B44210D02378032B08D129462046FFF7FC
:10655C0069FF48B1A368EF541034F1E7002BFBD16D
:10656C00A268AB54F8E70120F8BD000038B5002351
:10657C00C0E9003304460E48C4E90203A9B10B7804
:10658C00032B06D08BB9136858684B68C35C6E2B11
:10659C0007D013684D6858688B6828445B1BA06053
:1065AC00E36011462046FFF7DAFE204638BD00BFF7
:1065BC00DB730B0038B500250B46C0E90055C0E96C
:1065CC000255C0E90455044611464BB11A78012A0C
:1065DC0006D103F11002DB6882604361FFF7BFFE56
:1065EC00204638BD10B54369044663B18068E0604D
:1065FC00013B1030A0602061636113B1FFF776FEA0
:10660C00A060012000E0184610BD000038B5002342
:10661C000446036010200D46FDF735FD28B101231B
:10662C00C0E90133024B0360C5602060204638BDD1
:10663C00207F0B00F0B5044687B00E460C2027498E
:10664C00154600F0CBFD014618B10023C0E900331C
:10665C00037203A80291FFF7D9FF029A42B9C4E969
:10666C000022A26003A8FEF769F9204607B0F0BD2E
:10667C0000230193294601AB3046FFF791FE18B970
:10668C00C4E90000A060EDE71449029F681C00F00B
:10669C00A7FD029B786058680028F1D02A46314645
:1066AC0000F0A6FD029B0199186801221A725A6823
:1066BC00FFF740FF0028E3D0029B19680493039B6B
:1066CC00059313B15A6801325A6004AA2046FFF7A9
:1066DC0058FE05A8FEF732F9C4E700BF34800B0062
:1066EC00014B024A1A607047D0E60320347F0B003E
:1066FC00002340681A46FFF735BC4068002202218F
:10670C00FFF740BC002240681146FFF733BC002263
:10671C0040681146FFF73EBC002340681A461946F4
:10672C00FFF740BC002340681A461946FFF742BCED
:10673C0040680021FFF766BC40680021FFF76ABC87
:10674C004068002281F00101FFF73CBC4068002248
:10675C00FFF748BC002240681146FFF74BBC0022F3
:10676C0040681146FFF736BC2DE9F04395B014464E
:10677C000D460746FFF77CFD00211C220DA8009159
:10678C0000F05EFD40230C9320466B460CAA0021C2
:10679C00FFF7B2FA044600284BD102460121686883
:1067AC00FFF7F8FB0221804622466868FFF7F2FBF0
:1067BC00009E81462146002E3BD0002939D17368BA
:1067CC00022B03D00A2B11D0F669F4E7B8F1000FB5
:1067DC00FAD0716906A8043107ADFFF777FD0FCD2C
:1067EC003C1D0FC42B6823704146EDE7B9F1000F37
:1067FC00EAD07469102201A800F022FD06238DF85E
:10680C00143001AD04F108031834186859682A468D
:10681C0003C20833A3421546F7D101A906A807AD58
:10682C00FFF734FD0FCD3C1D0FC42B682370494678
:10683C00CAE70098FFF758FA384615B0BDE8F08360
:10684C00024B034A1A6000225A607047D4E60320B8
:10685C00407F0B00F8B506460D468F180024BD424C
:10686C000CD0336815F8011B9B6830469847031E03
:10687C0001DB1C44F3E7002C08BF1C462046F8BD86
:10688C0013B50446084659B1019100F00FFD236879
:10689C000199DB680246204602B0BDE8104018475B
:1068AC0002B010BD03689B68184738B50D2105462A
:1068BC00FFF7F8FF0A2104462846FFF7F3FF2044B0
:1068CC0038BD30B58BB00023012A8DF8243098BF29
:1068DC000A2209AC0D46B1FBF2F101FB125303F095
:1068EC00FF03092B94BF30333733DBB2AA4204F8D1
:1068FC00013DEFD92146FFF7C3FF0BB030BD2DE9A9
:10690C00F04186B000AF05460E46381D14211446E2
:10691C003B60FFF79FFB13280ED8391D2846FFF765
:10692C00AFFF04461EB12846FFF7BFFF04442046C4
:10693C001837BD46BDE8F08100F1080323F00703CA
:10694C00E846ADEB030D2246411C3B686846FFF759
:10695C0081FB69462846FFF793FF0446C546E1E7ED
:10696C00014B00229A607047DCE603200021FFF700
:10697C0013BA0021FFF708BA10B504460846217077
:10698C00FFF7EAF900236360204610BD13B50446F7
:10699C000078FFF7EEFF58B9207801904FF6FF71A1
:1069AC00FFF7B2F9019802B0BDE81040FFF7DEBF67
:1069BC0002B010BD13B5044600780191FFF7D9FF62
:1069CC00019948B920780190FFF7A6F9019802B017
:1069DC00BDE81040FFF7CABF02B010BD13B50446A6
:1069EC0000780191FFF7C5FF019948B92078019013
:1069FC00FFF79AF9019802B0BDE81040FFF7B6BF57
:106A0C0002B010BD400830B51860002418688842E8
:106A1C00E5B206D90134082C02D040081860F5E71D
:106A2C000725024B5B5D137030BD00BF747F0B00FC
:106A3C002DE9F04188B000230446007802930E46FD
:106A4C001746FFF796FF054600BB94F800800146F9
:106A5C00142203A800F0F4FB0B232A4603A940469A
:106A6C00ADF80C30FFF788F904988DF8075002AB9D
:106A7C000DF1070207FB06F1FFF7C4FF20789DF824
:106A8C000710FFF759F92078FFF770FF029808B04C
:106A9C00BDE8F08138B5044600780D46FFF769FF74
:106AAC000346D0B9616899B10C4A12F8010B8542C2
:106ABC0002D00133082BF8D10133DBB20122D940CB
:106ACC002046FFF7B5FF2078BDE83840FFF74EBFF2
:106ADC0020782946FFF730F9F5E738BD747F0B00B5
:106AEC0008B50078FFF730F9C0B208BD10B5044600
:106AFC000068FFF79FFA204610BD10B504460068E9
:106B0C0008B1FFF797FA0023C4E90133236010BDE5
:106B1C0038B504460D4600680131FFF793FA10B101
:106B2C00C4E90005012038BD10B50368044623B143
:106B3C0043688B4201D3012010BD2046FFF7E8FFCC
:106B4C000028F9D0A368002BF5D122681370F2E766
:106B5C0037B50D46114601920446FFF7E5FF019A41
:106B6C0028B92046FFF7C9FF204603B030BDA2600C
:106B7C002946206800F03CFB2268A3680021D15410
:106B8C00F2E7002313B5C0E90033044683600373B6
:106B9C0041B10846019100F089FB0199024620465B
:106BAC00FFF7D6FF204602B010BD00000EB470B542
:106BBC0087B00BAD044655F8042B01922B460521EA
:106BCC0004A80395FFF746FA0B4906462046FFF743
:106BDC00D8FF31462046FFF7A7FF206830B1019A55
:106BEC0003952B46711CFFF735FAA060204607B0C1
:106BFC00BDE8704003B07047DB730B00054B0222FD
:106C0C001A60054B054A9A600020C3E90000FFF7A3
:106C1C0065B900BFF8E60320ECE603200000FFFF97
:106C2C00024B1A68024B1A60704700BFE4E5032060
:106C3C00FCE6032070474174704708B5007CFFF7F1
:106C4C00E3F820EAE07008BD08B5007CFFF7B4F863
:106C5C0020EAE07008BD08B5007CFFF7BDF840EAFB
:106C6C00E07008BD08B5007CFFF7AEF840EAE070B4
:106C7C0008BD007CFFF7B8B837B5457C04462DB18C
:106C8C00207C03B0BDE83040FFF78EB8007C01914A
:106C9C00FFF7BAF800280199F2DC284603B030BDA2
:106CAC0010B514210446FDF7F4F9204610BD000080
:106CBC0010B54FF47A730446084611460022C4E915
:106CCC000123044B2360012320746374FFF7A4F8A1
:106CDC00204610BDA07F0B00417470477047704771
:106CEC0008B50021007CFFF7BFF840EAE07008BD52
:106CFC0008B50121007CFFF7B7F840EAE07008BD49
:106D0C0008B5007CFFF7A8F820EAE07008BD08B5CC
:106D1C00007CFFF799F820EAE07008BD13B5044633
:106D2C00007C0191FFF798F80028019901DC607C48
:106D3C0020B1207CFFF7A0F820EAE07002B010BD73
:106D4C00007CFFF7A1B810B514210446FDF7A1F99A
:106D5C00204610BD10B54FF47A7304460846002146
:106D6C00C4E90113044B236001232074637411469E
:106D7C00FFF75AF8204610BDD07F0B00007C002294
:106D8C00FFF75AB8007CFFF787B810B514220446F9
:106D9C00002100F055FA204610BD000010B50F4C34
:106DAC0088B003A8FFF7F1FF2178BFF35B8F11F0D8
:106DBC0001010FD120460191FDF77AF9019948B1F3
:106DCC0003AA0748FFF7C6FF2046FDF776F90548EA
:106DDC0000F008FA024808B010BD00BF00E703201D
:106DEC0004E70320E96C0B00002240681146FFF712
:106DFC00D1B8002240681146FFF7ECB80022406879
:106E0C001146FFF7F7B840680022FFF7EBB840686F
:106E1C00002281F00101FFF7D5B8002340681A4623
:106E2C001946FFF7C7B8002340681A461946FFF702
:106E3C00B9B8002240681146FFF79CB840680022A0
:106E4C000221FFF79FB8002340681A46FFF78AB863
:106E5C00024B04225A60024A1A60704718E703205A
:106E6C0000800B00014B1860704700BFE8E5032061
:106E7C0008B50B4B43B1FFF791FF03681B699847AB
:106E8C00002801DDAFF30080064B43B100F082F91E
:106E9C0003681B699847002801DDAFF3008008BD2B
:106EAC00000000000000000008B5FFF7E1FFFEF74E
:106EBC0083FE014B186008BD28E703200548064AED
:106ECC00064908B5121A00F093F9054B054A1A60E9
:106EDC0008BD00BF00F4032004F40320F4800B0071
:106EEC0000F403201E1C279A07B5002300931A46B2
:106EFC006FF07701FFF70CF803B05DF804FB0000AE
:106F0C0007B543880A2B08D0502B0BD1094B1B68B3
:106F1C004BB103B05DF804EB1847FFF7E5FF03B086
:106F2C005DF804FB002300931A466FF07701FEF71F
:106F3C00EFFFF4E724E7032010B512480021FFF718
:106F4C0099F8114B1A68114B9A42114B0CBF012244
:106F5C0000221A7001D0FFF7B1FFFEF715FE0446B0
:106F6C0000F076F90B4B13B12046AFF300800021F3
:106F7C000848FEF7EFFFBDE8104007480021FEF778
:106F8C00BDBF00BF716E0B0000F403201E1C279ABE
:106F9C0020E70320000000000D6F0B00232813B521
:106FAC0002D9002002B010BDA0F10B03022B1AD89D
:106FBC00174C2178BFF35B8F11F001010BD12046E8
:106FCC000191FDF775F8019928B11248FFF7D4FC2F
:106FDC002046FDF772F80F4B1878FEF7C5FE002817
:106FEC00DFD10120DEE7012809D800F093F8002159
:106FFC00007CFEF761FE80F00100C0B2D2E70938D8
:10700C000128EED800F0C6F8007CFEF7F5FEF2E79A
:10701C00B8E60320BCE60320232838B504460D4609
:10702C000AD8FF2908D0FFF7B9FF28B12946204616
:10703C00BDE83840FEF7E0BD38BD38B504460D4616
:10704C00FEF7E2FDFF2810D0062804D84D2323FAC2
:10705C0000F0C30709D42046FFF7A0FF28B129464A
:10706C002046BDE83840FEF7D7BD38BD0D2810B519
:10707C0004469CBF0E34A4B22046FFF78FFF50B1DC
:10708C0003212046FEF7B0FD032804D12046BDE8BD
:10709C001040FEF7C9BD002010BD2DE9F04190460F
:1070AC001F46072406460D46C4F10701B8F1000F30
:1070BC0012D147FA01F101F001013046FFF7BDFF93
:1070CC0001212846FFF7B9FF00212846FFF7B5FF3D
:1070DC00013CE9D2BDE8F08147FA04F1EBE77047D7
:1070EC0038B50A4B0360012304464361084920204C
:1070FC0000F076F8202560600549A560284600F070
:10710C006FF8C4E90305204638BD00BF1800010024
:10711C0034800B0030B50E4D2978BFF35B8F11F026
:10712C00010487B011D12846FCF7C2FF68B168464C
:10713C00FFF7D6FF6A4621460648FFF72DF828468A
:10714C00FCF7BBFF044800F04DF8024807B030BD17
:10715C002CE7032030E70320EB700B007047000096
:10716C0038B5044614252A46002100F069F825801C
:10717C004025074925812846258200F031F804492D
:10718C006060284600F02CF8E060204638BD00BF57
:10719C0034800B0030B50E4D2978BFF35B8F11F0A6
:1071AC00010487B011D12846FCF782FF68B101A811
:1071BC00FFF7D6FF01AA21460648FFF779FD2846BE
:1071CC00FCF77BFF044800F00DF8024807B030BD17
:1071DC0044E7032048E7032069710B00FCF753BF19
:1071EC00FCF753BF002301461A46184600F066B858
:1071FC000A44914200F1FF3300D1704710B511F8E9
:10720C00014B03F8014F9142F9D110BD884210B5E2
:10721C0001EB020402D98442234607D8431EA14243
:10722C0008D011F8012B03F8012FF8E702440146AE
:10723C008A4200D110BD13F8014D02F8014DF7E759
:10724C0002440346934200D1704703F8011BF9E74F
:10725C0038B5104B1D68AB6B0446B3B91820FEF75C
:10726C00E1FE0246A86320B90B4B0C484221FEF705
:10727C00F9FE0B490B4BC0E900130B4B83600B233E
:10728C00838100210120C2E90401AB6B00221C6147
:10729C005A6138BDE8E5032035800B004C800B00AB
:1072AC000E33CDAB34126DE6ECDE0500034613F85D
:1072BC00012B002AFBD1181A013870472DE9F8432D
:1072CC00DFF8B8800646D8F800001F460D469146F8
:1072DC0000F056F8254B1C6834B9254C1C60254B26
:1072EC0013B11B68C4F8883063681F2B07DDD8F80E
:1072FC00000000F047F84FF0FF30BDE8F8834EB3C4
:10730C00D4F8880088B91C4B23B9D8F8000000F0D9
:10731C0038F8F0E74FF48470FEF784FE0028F4D0C0
:10732C000023C0E94033C4F88800636840F8239018
:10733C0001229A4000EB8301D0F800311343C0F8CE
:10734C000031022EC1F8807002BFD0F80431134313
:10735C00C0F804316368D8F800005A1C023362602C
:10736C0044F8235000F00EF80020C6E7E8E70320AD
:10737C005CE703200000000031600B004CE60320AA
:10738C0070477047704700001D400B0059400B00C0
:10739C0081400B0085400B000000000043616C6CC9
:1073AC00206F6E2070757265207669727475616CD1
:1073BC000025732F25732F005375627363726962F6
:1073CC00696E6720746F2025730A002E000A0A006C
:1073DC0044697374616E63652052656164206973DE
:1073EC002025690A0030342F31392F323032330ADC
:1073FC0030353A303250203638460A4C4F573A2006
:10740C003532462020484947483A203732460A0050
:10741C004554410A30353A343550203A205265648F
:10742C006C696E650A30363A3435203A202336368C
:10743C000A30363A303050205261696C2052756EE9
:10744C006E65720A004C6576656C20300A205661B8
:10745C006C75652025690A004C6576656C20310ACF
:10746C002056616C75652025690A004C6576656C43
:10747C0020320A2056616C75652025690A004C651E
:10748C0076656C20330A2056616C75652025690A77
:10749C00004C6576656C20340A2056616C7565204D
:1074AC0025690A004C6576656C20350A2056616C9E
:1074BC0075652025690A004C6576656C20360A20B6
:1074CC0056616C75652025690A006B65793D2573DD
:1074DC002076616C75653D25730A00257320257334
:1074EC000A0047657457656174686572446174611C
:1074FC0000343864353462613664393032373830B0
:10750C003734386137343064386432633039333768
:10751C006100FFFFFFFFFFFFFFFFFFFFFFFFFFFF0C
:10752C00FFFFFFFFFFFFFFFFFFFFFFFFFFFFFFFF5F
:10753C00FFFFFFFFFFFFFFFFFFFFFFFFFFFFFFFF4F
:10754C00FFFFFFFFFFFFE000607818060007FFFF5A
:10755C00FFFFFFFFFFFFE000607818060007FFFF4A
:10756C00FFFFFFFFFFFFE7FE6661E0667FE7FFFFBF
:10757C00FFFFFFFFFFFFE7FE6661E0667FE7FFFFAF
:10758C00FFFFFFFFFFFFE6067E67E7FE6067FFFF7A
:10759C00FFFFFFFFFFFFE6067E67E7FE6067FFFF6A
:1075AC00FFFFFFFFFFFFE606679E19FE6067FFFF08
:1075BC00FFFFFFFFFFFFE606679E19FE6067FFFFF8
:1075CC00FFFFFFFFFFFFE60679FE619E6067FFFF8E
:1075DC00FFFFFFFFFFFFE60679FE619E6067FFFF7E
:1075EC00FFFFFFFFFFFFE7FE7F99861E7FE7FFFF90
:1075FC00FFFFFFFFFFFFE7FE7F99861E7FE7FFFF80
:10760C00FFFFFFFFFFFFE000666666660007FFFFF7
:10761C00FFFFFFFFFFFFE000666666660007FFFFE7
:10762C00FFFFFFFFFFFFFFFFE1E78007FFFFFFFF0B
:10763C00FFFFFFFFFFFFFFFFE1E78007FFFFFFFFFB
:10764C00FFFFFFFFFFFFE61819F9981E7987FFFF70
:10765C00FFFFFFFFFFFFE61819F9981E7987FFFF60
:10766C00FFFFFFFFFFFFFE6187F81E0007E7FFFF2C
:10767C00FFFFFFFFFFFFFE6187F81E0007E7FFFF1C
:10768C00FFFFFFFFFFFFFE181E61E1FFFE1FFFFF64
:10769C00FFFFFFFFFFFFFE181E61E1FFFE1FFFFF54
:1076AC00FFFFFFFFFFFFFE07E7FFE6079FE7FFFF78
:1076BC00FFFFFFFFFFFFFE07E7FFE6079FE7FFFF68
:1076CC00FFFFFFFFFFFFE666798619E7F87FFFFFF4
:1076DC00FFFFFFFFFFFFE666798619E7F87FFFFFE4
:1076EC00FFFFFFFFFFFFF9E1E066601E7E07FFFF73
:1076FC00FFFFFFFFFFFFF9E1E066601E7E07FFFF63
:10770C00FFFFFFFFFFFFFE667F8187981E07FFFFCD
:10771C00FFFFFFFFFFFFFE667F8187981E07FFFFBD
:10772C00FFFFFFFFFFFFF9E78186661F879FFFFFC3
:10773C00FFFFFFFFFFFFF9E78186661F879FFFFFB3
:10774C00FFFFFFFFFFFFF81E61861E61E19FFFFF39
:10775C00FFFFFFFFFFFFF81E61861E61E19FFFFF29
:10776C00FFFFFFFFFFFFF9F999FE6667981FFFFF08
:10777C00FFFFFFFFFFFFF9F999FE6667981FFFFFF8
:10778C00FFFFFFFFFFFFE6060000067E667FFFFFA0
:10779C00FFFFFFFFFFFFE6060000067E667FFFFF90
:1077AC00FFFFFFFFFFFFFE67FF80019E667FFFFF6D
:1077BC00FFFFFFFFFFFFFE67FF80019E667FFFFF5D
:1077CC00FFFFFFFFFFFFF86060180060007FFFFF06
:1077DC00FFFFFFFFFFFFF86060180060007FFFFFF6
:1077EC00FFFFFFFFFFFFFFFFE067FFE7E007FFFF83
:1077FC00FFFFFFFFFFFFFFFFE067FFE7E007FFFF73
:10780C00FFFFFFFFFFFFE00067E66786619FFFFF5A
:10781C00FFFFFFFFFFFFE00067E66786619FFFFF4A
:10782C00FFFFFFFFFFFFE7FE66181E07E1E7FFFF04
:10783C00FFFFFFFFFFFFE7FE66181E07E1E7FFFFF4
:10784C00FFFFFFFFFFFFE606787FF860061FFFFFD4
:10785C00FFFFFFFFFFFFE606787FF860061FFFFFC4
:10786C00FFFFFFFFFFFFE60661E787E181E7FFFF10
:10787C00FFFFFFFFFFFFE60661E787E181E7FFFF00
:10788C00FFFFFFFFFFFFE6066199F8079E67FFFF0A
:10789C00FFFFFFFFFFFFE6066199F8079E67FFFFFA
:1078AC00FFFFFFFFFFFFE7FE79801E61999FFFFF3F
:1078BC00FFFFFFFFFFFFE7FE79801E61999FFFFF2F
:1078CC00FFFFFFFFFFFFE000667F9E007F9FFFFF33
:1078DC00FFFFFFFFFFFFE000667F9E007F9FFFFF23
:1078EC00FFFFFFFFFFFFFFFFFFFFFFFFFFFFFFFF9C
:1078FC00FFFFFFFFFFFFFFFFFFFFFFFFFFFFFFFF8C
:10790C00FFFFFFFFFFFFFFFFFFFFFFFFFFFFFFFF7B
:10791C00FFFF00002C01000018000000F401000023
:10792C002C0100005000000000000000003E5B4FE6
:10793C005B3E3E6B4F6B3E1C3E7C3E1C183C7E3CC3
:10794C00181C577D571C1C5E7F5E1C00183C1800D1
:10795C00FFE7C3E7FF0018241800FFE7DBE7FF3061
:10796C00483A060E2629792926407F050507407FCF
:10797C0005253F5A3CE73C5A7F3E1C1C08081C1C42
:10798C003E7F14227F22145F5F005F5F06097F0138
:10799C007F006689956A606060606094A2FFA29423
:1079AC0008047E040810207E201008082A1C0808F1
:1079BC001C2A08081E101010100C1E0C1E0C30383F
:1079CC003E3830060E3E0E06000000000000005F40
:1079DC0000000007000700147F147F14242A7F2A5C
:1079EC00122313086462364956205000080703001E
:1079FC00001C2241000041221C002A1C7F1C2A086A
:107A0C00083E0808008070300008080808080000CC
:107A1C0060600020100804023E5149453E00427F40
:107A2C00400072494949462141494D331814127F8F
:107A3C001027454545393C4A49493141211109072F
:107A4C003649494936464949291E000014000000B0
:107A5C004034000000081422411414141414004182
:107A6C0022140802015909063E415D594E7C12113F
:107A7C00127C7F494949363E414141227F41414177
:107A8C003E7F494949417F090909013E41415173F2
:107A9C007F0808087F00417F41002040413F017F63
:107AAC00081422417F404040407F021C027F7F042B
:107ABC0008107F3E4141413E7F090909063E415174
:107ACC00215E7F09192946264949493203017F0164
:107ADC00033F4040403F1F2040201F3F4038403F65
:107AEC00631408146303047804036159494D43007B
:107AFC007F4141410204081020004141417F0402B2
:107B0C000102044040404040000307080020545448
:107B1C0078407F2844443838444444283844442826
:107B2C007F385454541800087E090218A4A49C7879
:107B3C007F0804047800447D40002040403D007FD5
:107B4C001028440000417F40007C047804787C08B5
:107B5C000404783844444438FC1824241818242489
:107B6C0018FC7C08040408485454542404043F446E
:107B7C00243C4040207C1C2040201C3C4030403C9D
:107B8C0044281028444C9090907C4464544C4400FD
:107B9C000836410000007700000041360800020161
:107BAC000204023C2623263C1EA1A161123A40404D
:107BBC00207A3854545559215555794121545478CB
:107BCC0041215554784020545579400C1E52721264
:107BDC0039555555593954545459395554545800EC
:107BEC0000457C410002457D420001457C40F02966
:107BFC002429F0F0282528F07C54554500205454B5
:107C0C007C547C0A097F49324949493232484848F8
:107C1C0032324A4848303A4141217A3A424020783F
:107C2C00009DA0A07D39444444393D4040403D3C3A
:107C3C0024FF2424487E4943662B2FFC2F2BFF095D
:107C4C0029F620C0887E0903205454794100004451
:107C5C007D413048484A32384040227A007A0A0A3C
:107C6C00727D0D19317D2629292F282629292926AF
:107C7C0030484D4020380808080808080808382FF4
:107C8C0010C8ACBA2F102834FA00007B000008147E
:107C9C002A142222142A1408AA005500AAAA55AAAA
:107CAC0055AA000000FF00101010FF00141414FF60
:107CBC00001010FF00FF1010F010F0141414FC0052
:107CCC001414F700FF0000FF00FF1414F404FC145C
:107CDC001417101F10101F101F1414141F00101055
:107CEC0010F0000000001F101010101F10101010CA
:107CFC00F010000000FF101010101010101010FFEA
:107D0C0010000000FF140000FF00FF00001F101700
:107D1C000000FC04F414141710171414F404F400E9
:107D2C0000FF00F714141414141414F700F71414AF
:107D3C0014171410101F101F141414F4141010F036
:107D4C0010F000001F101F0000001F14000000FCAA
:107D5C00140000F010F01010FF10FF141414FF1496
:107D6C001010101F00000000F010FFFFFFFFFFF0CD
:107D7C00F0F0F0F0FFFFFF0000000000FFFF0F0F1E
:107D8C000F0F0F38444438447C2A2A3E147E0202DA
:107D9C000606027E027E0263554941633844443C28
:107DAC0004407E201E2006027E020299A5E7A599BA
:107DBC001C2A492A1C4C7201724C304A4D4D3030F1
:107DCC0048784830BC625A463D3E494949007E01DC
:107DDC0001017E2A2A2A2A2A44445F444440514AFB
:107DEC00444040444A51400000FF0103E080FF0042
:107DFC000008086B6B083612362436060F090F067E
:107E0C00000018180000001010003040FF010100A5
:107E1C001F01011E00191D1712003C3C3C3C0000C8
:107E2C000000000000000000000000000000000046
:107E3C0000000000AD530B0061680B00A5400B0067
:107E4C0031500B0057510B0073510B00EF500B00CE
:107E5C008D510B00C3510B00DF510B0000000000D3
:107E6C000000000039570B00C9570B00AD530B0035
:107E7C0061680B003D570B0031500B00C5550B00D2
:107E8C0055540B00EF500B008D510B00C3510B00E0
:107E9C00DF510B0000000000000000002F610B0000
:107EAC0025610B001B610B0011610B0005610B00C0
:107EBC00F9600B003D670B0045670B00ED600B0094
:107ECC00E5600B00DB600B00D1600B0075670B00ED
:107EDC0000000000000000004D610B0097610B00DA
:107EEC006F610B004F610B0077610B007F610B0022
:107EFC0087610B008F610B00000000000000000088
:107F0C0019620B0009620B000B620B0000000000F1
:107F1C000000000027630B002D630B0043630B0074
:107F2C003B630B0029630B006170700000000000C4
:107F3C0000000000FD660B0007670B0011670B00CB
:107F4C001B670B0025670B0031670B003D670B00AF
:107F5C0045670B004D670B0059670B0061670B0001
:107F6C006B670B0075670B00000810182028303861
:107F7C0025592D256D2D25645425483A254D3A2536
:107F8C0053257A0061736374696D6500000000000D
:107F9C0000000000416C0B00AD6C0B00856C0B00FD
:107FAC0061680B00556C0B00716C0B00636C0B0063
:107FBC007F6C0B00436C0B00476C0B000000000047
:107FCC0000000000EB6C0B00536D0B00296D0B00D7
:107FDC0061680B001B6D0B00ED6C0B00FD6C0B0056
:107FEC004D6D0B000D6D0B00E56C0B0000000000DF
:107FFC0000000000536E0B00496E0B003F6E0B002F
:10800C00F56D0B00336E0B00276E0B003D670B00FC
:10801C0045670B001B6E0B00136E0B00096E0B00FB
:10802C00FF6D0B0075670B00005245454E54206DDB
:10803C00616C6C6F63207375636365656465640064
:10804C002F746D702F6A656E6B696E732D47434389
:10805C002D31302D706970656C696E652D34385F0B
:10806C0032303230313132345F31363036313830B3
:10807C003633392F7372632F6E65776C69622F6E8E
:10808C0065776C69622F6C6962632F7374646C69B9
:10809C00622F72616E642E6300000000F54A0B00C3
:1080AC0021500B00C1600B0039610B00ED660B0019
:1080BC004D680B006D690B00096C0B002D6C0B00EF
:0480CC005D6E0B00DA
:1080D000040000001400000003000000474E55009B
:1080E00097681F1AB15A155B21CD124022BFE5F4E3
:0480F000BA90FEFB49
:0480F4000000000088
:1080F800EE740B00540B0000000103070F1F3F7FB5
:108108000080C0E0F0F8FCFE000000000000000065
:108118000000000000000000000000000000000057
:108128000000000000000000000000000000000047
:108138000000000000000000000000000000000037
:1081480000000000000000808080000000000000A7
:108158000000000000000000008080C0C000000097
:108168000000000000000000000000000000000007
:1081780000000000000000000000000000000000F7
:1081880000000000000000000000000000000000E7
:1081980000000000000000000000000080C0E0F0C7
:1081A800F8FCF8E0000000000000000000000000FB
:1081B8000000000000808080808000808000000037
:1081C80000808080808000FFFFFF0000000080802A
:1081D800808000008080000080FFFF808000808019
:1081E8000080808080008080000000000080800087
:1081F800008C8E84000080F8F8F8800000000000F1
:108208000000000000000000F0F0F0F0F0F0F0F0E6
:10821800F0F0F0F0E0E0C08000E0FCFEFFFFFF7F40
:10822800FFFFFFFFFF00000000000000000000004B
:10823800000000FEFFC70101010183FFFF00007C71
:10824800FEC70101010183FFFFFF0038FEC783015C
:10825800010183C7FFFF000001FFFF010100FFFFCD
:108268000701010100007FFF80000000FFFF7F0081
:1082780000FFFFFF000001FFFFFF010000000000FA
:108288000000000000000000030F3F7F7FFFFFFF9A
:10829800FFFFFFFFE7C7C78F8F9FBFFFFFC3C0F078
:1082A800FFFFFFFFFFFCFCFCFCFCFCFCFCF8F8F00B
:1082B800F0E0C0000103030303030103030000000F
:1082C800000103030303010103010000000103038C
:1082D800030301010303000000030300000003037C
:1082E8000000000000000001030303030301000075
:1082F800000103010000000303010000000000006A
:10830800000000000000000000000080C0E0F0F95C
:10831800FFFFFFFFFF3F1F0F87C7F7FFFF1F1F3D2F
:10832800FCF8F8F8F87C7DFFFFFFFFFFFFFFFF7FF9
:108338003F0F070030300000000000000000000080
:10834800000000000000000000000000FEFEFC002D
:108358000000000000000000000000000000000015
:108368000000000000E0C000000000000000000065
:108378000000303000000000000000000000000095
:10838800000000000000000000C0FEFFFFFFFFFF2C
:10839800FFFFFFFF7F7F3F1F0F071F7FFFFFF8F8DB
:1083A800FFFFFFFFFFFEF8E00000000100000000F3
:1083B80000000000FEFE000000FCFEFC0C06060E9D
:1083C800FCF80000F0F81C0E0606060CFFFFFF0084
:1083D80000FEFE00000000FCFEFC00183C7E66E685
:1083E800CE84000006FFFF0606FCFEFC0C0606060F
:1083F8000000FEFE0000C0F8FC4E4646464E7C7863
:1084080040183C76E6CECC8000000000000000005A
:1084180000000000000000000000000001070F1F1E
:108428001F3F3F3F3F1F0F030000000000000000F8
:10843800000000000F0F0000000F0F0F00000000E9
:108448000F0F000003070E0C18180C060F0F0F0073
:1084580000010F0E0C180C0F070100040E0C180C6D
:108468000F070000000F0F00000F0F0F00000000A3
:1084780000000F0F00000007070C0C181C0C060664
:1084880000040E0C180C0F0700000000000000008C
:1084980000000000000000000000000000000000D4
:1084A80000000000000000000000000000000000C4
:1084B80000000000000000000000000000000000B4
:1084C80000000000000000000000000000000000A4
:1084D8000000000000000000000000000000000094
:1084E8000000000000000000000000000000000084
:1084F8000000000000000000000000000000000074
:108508000000000000000000907F0B00ECE5032055
:108518000000000000000000000000000000000053
:108528000000000000000000000000000000000043
:108538000000000000000000000000000000000033
:108548000000000000000000000000000000000023
:108558000000000000000000000000000000000013
:108568000000000000000000000000000000000003
:04857800ECE7032009
:10857C00FFFFFFFF00000102030405060708090ABC
:10858C000B0C0D0E0F101112131415161718191AB7
:08859C001B1C1D1E1F202800FE
:0485A40078563412BF
:04000003B000401CED
:00000001FF
