:02000002B0004C
:1040000000400B00408E0B00000006000C00050273
:084010000401A60F00000000EE
:04401800047E0B0017
:10401C0009480A49884208B505D0094A824202D0AB
:10402C00121A03F083FD0748074A0021121A03F005
:10403C008BFD014808BD00BF04DA032098890B00F2
:10404C0084DE032084DE0320EDE7032070B5074EE9
:10405C00074C03F0FBFAA41BA4080025AC4200D1CA
:10406C0070BD56F8043B98470135F7E73C890B00C7
:10407C0064890B0000F06AB808B500F019F9BDE8C6
:10408C00084003F09BBA02F01DBA02F01BBA02F012
:10409C0021BA000008B5034A03490C2002F06EF95E
:1040AC00FEE700BFE95F0B00187E0B000078B0FA4A
:1040BC0080F04009704701230370704710B5034B23
:1040CC000360044601F0BCFB204610BDF07E0B00E3
:1040DC0010B50446FFF7F2FF20464FF44B71FFF783
:1040EC00D6FF204610BD0EB403B503AB002153F828
:1040FC00042B019302F071FC02B05DF804EB03B0E9
:10410C007047000038B584690A4B036005467CB1E2
:10411C006368013B63605BB9236820469B689847E2
:10412C00A368013BA3601BB923682046DB68984752
:10413C00284638BDD8850B0010B50446FFF7E2FFC2
:10414C0020461C21FFF7A3FF204610BD70B503F0DD
:10415C00AFF94FF4165103F09BF9002001F056FF14
:10416C0043F698250446002001F050FF001B61F136
:10417C000001A84271F1000307D203F099F903F092
:10418C008BF910B902F02EF9EDE703F091F903F079
:10419C0083F92D4D2D482E4E00F007FC00231A46B6
:1041AC001946686802F04EF9002368681A461946E9
:1041BC0002F028F900226868114602F02BF9044637
:1041CC0028B103F075F93146FFF78DFFF2E703F0E4
:1041DC006FF92049FFF787FF0121102003F0A6FAA1
:1041EC000121112003F0A2FA21460F2003F09EFAC0
:1041FC002146112003F0ABFA2146102003F0A7FA58
:10420C00012002F097F90121112003F0A0FA2046B9
:10421C0001F0E4FE2146112003F099FA012110204F
:10422C0003F095FA482001F0D9FE02210A483C22FD
:10423C0001F015FA084801F09BF921461220BDE85F
:10424C00704003F073BA00BF18E7032024E6032084
:10425C002D7E0B002F7E0B0000E60320F8B50446E4
:10426C00124817460D461E4600F0EEFD0F4800F0B2
:10427C00D5FBF9B20D480D4F00F0BFFDAC4206DA8C
:10428C00A1B23246384600F075FD0134F6E7074816
:10429C0000F0C4FB642002F04DF9044800F0D4FD9A
:1042AC00024800F0BBFB2846F8BD00BF24E6032003
:1042BC00F7B5122003F064FACD4C206003F0F8F847
:1042CC002268CC49FFF70FFFCB4B22681B689A4240
:1042DC0040F3CD820021102003F039FA482001F080
:1042EC007DFE0F2003F04CFAC44C206003F0E0F884
:1042FC002268C349FFF7F7FE0121102003F027FACB
:10430C00482001F06BFE2368B3F5C87F06DA4FF442
:10431C007F03322202210020FFF7A0FF2368A3F5C0
:10432C00C873B3F5167F06D24FF47F0364220221C3
:10433C000020FFF793FF2368A3F57A73B3F57A7F18
:10434C0006D24FF47F03962202210020FFF786FF4E
:10435C002368A3F5FA63B3F57A7F06D24FF47F0393
:10436C00C82202210020FFF779FF226840F6B733FC
:10437C009A4206DD4FF47F03FF2202210020FFF753
:10438C006DFF0021102003F0E2F9482001F026FE19
:10439C000F2003F0F5F9606003F08AF86268984921
:1043AC00FFF7A1FE0121102003F0D1F9482001F004
:1043BC0015FE6368B3F5C87F06DA4FF0FF1332229F
:1043CC0005210320FFF74AFF6368A3F5C873B3F513
:1043DC00167F06D24FF0FF13642205210320FFF74E
:1043EC003DFF6368A3F57A73B3F57A7F06D24FF07D
:1043FC00FF13962205210320FFF730FF6368A3F516
:10440C00FA63B3F57A7F06D24FF0FF13C822052169
:10441C000320FFF723FF626840F6B7339A4206DDAC
:10442C004FF0FF13FF2205210320FFF717FF002198
:10443C00102003F08CF9482001F0D0FD0F2003F080
:10444C009FF9A06003F034F8A2686D49FFF74BFEAA
:10445C000121102003F07BF9482001F0BFFDA36877
:10446C00B3F5C87F05DA674B322208210620FFF727
:10447C00F5FEA368A3F5C873B3F5167F05D2614B9F
:10448C00642208210620FFF7E9FEA368A3F57A73DE
:10449C00B3F57A7F05D25B4B962208210620FFF7F5
:1044AC00DDFEA368A3F5FA63B3F57A7F05D2554B0D
:1044BC00C82208210620FFF7D1FEA26840F6B733C8
:1044CC009A4205DD4F4BFF2208210620FFF7C6FE5E
:1044DC000021102003F03BF9482001F07FFD0F2054
:1044EC0003F04EF9E06002F0E3FFE2684449FFF7A5
:1044FC00FAFD0121102003F02AF9482001F06EFD8D
:10450C00E368B3F5C87F05DAFF2332220B210920BB
:10451C00FFF7A4FEE368A3F5C873B3F5167F05D2C5
:10452C00FF2364220B210920FFF798FEE368A3F513
:10453C007A73B3F57A7F05D2FF2396220B210920DB
:10454C00FFF78CFEE368A3F5FA63B3F57A7F05D227
:10455C00FF23C8220B210920FFF780FEE26840F6FA
:10456C00B7339A4205DDFF231A460B210920FFF7CA
:10457C0075FE0021102003F0EAF8482001F02EFD12
:10458C000F2003F0FDF8206102F092FF22691C4914
:10459C00FFF7A9FD0121102003F0D9F8482001F004
:1045AC001DFD2369B3F5C87F06DA4FF47F43322231
:1045BC000D210C20FFF752FE2369A3F5C873B3F548
:1045CC00167F06D24FF47F4364220D210C20FFF797
:1045DC0045FE2369A3F57A73B3F57A7F14D24FF4B1
:1045EC007F4396220D210C20FFF738FE0CE000BF14
:1045FC00ACDE0320327E0B0004DA032098E60320A5
:10460C00437E0B00FF0077002369A3F5FA63B3F533
:10461C007A7F06D24FF47F43C8220D210C20FFF77E
:10462C001DFE226940F6B7339A4206DD4FF47F43F4
:10463C00FF220D210C20FFF711FE0021102003F0AA
:10464C0086F8482001F0CAFC0F2003F099F860614D
:10465C0002F02EFF62698949FFF745FD0121102008
:10466C0003F075F8482001F0B9FC2369B3F5C87F55
:10467C0005DA834B32220F210E20FFF7EFFD636921
:10468C00A3F5C873B3F5167F05D27D4B64220F21B9
:10469C000E20FFF7E3FD6369A3F57A73B3F57A7F18
:1046AC0005D2774B96220F210E20FFF7D7FD6369B9
:1046BC00A3F5FA63B3F57A7F05D2714BC8220F21AB
:1046CC000E20FFF7CBFD626940F6B7339A4205DD49
:1046DC006B4BFF220F210E20FFF7C0FD0021102095
:1046EC0003F035F8482001F079FC0F2003F048F86E
:1046FC00A06102F0DDFEA2696049FFF7F4FC012124
:10470C00102003F024F8482001F068FCA369B3F5ED
:10471C00C87F05DA5B4B32220F210E20FFF79EFD7E
:10472C00594CA369A3F5C873B3F5167F05D21021B4
:10473C00544B64220846FFF791FDA369A3F57A73E5
:10474C00B3F57A7F05D210214E4B96220846FFF71F
:10475C0085FDA369A3F5FA63B3F57A7F05D2102121
:10476C00484BC8220846FFF779FDA26940F6B733DB
:10477C009A4205DD1021434BFF220846FFF76EFDE0
:10478C00424B00225868114601F044FE06460028B0
:10479C0071D13F4F3F4D01F031FC3B68C01A4EF6D2
:1047AC00602398424AD93C4C3C49204602F06BFAB3
:1047BC0050233B49A36304F1280002F064FA394BFF
:1047CC000093394833462A46214601F0CFFA2B682C
:1047DC00C82B27D1354801F04FF802F069FE344957
:1047EC0002F0C0F802F064FE2C68002C064623DAB6
:1047FC002D2102F0BBF861420A22304602F0CFF8BC
:10480C00304602F0B6F802F053FE2A4902F0AAF83C
:10481C0002F04EFE696802F0B8F8244801F022FA62
:10482C00254B186001F0EAFB386041F2883003B088
:10483C00BDE8F04001F07EBE2146DDE702F038FE17
:10484C001E49FFF750FC02F033FE2C68002C064684
:10485C000BDA2D2102F08AF861420A22304602F06E
:10486C009EF8304602F085F8DFE72146F5E7122086
:10487C0002F086FF206003B0F0BD00BF437E0B004A
:10488C0000FFFF000077FF0098E6032018E70320E5
:10489C00F8E5032084E6032038E60320567E0B005F
:1048AC006E7E0B00937E0B00B0DE0320CCE2032067
:1048BC00977E0B00B67E0B00FCE50320D87E0B0028
:1048CC0013B50223082210211F48204C00F094F845
:1048DC0004211F4800F036FE1E4802F017FD1E484A
:1048EC0001F00DFA1D49204602F0B9F904F110004F
:1048FC0001F002FF194904F1280002F0B0F9174940
:10490C0004F13C0002F0ABF9154C1449154802F0C7
:10491C00A6F9102300934FF4007204F50B7304F105
:10492C002C01204600F0B2FF0F4B23600F4B0022EE
:10493C00C3E900220120A2F580329A6002B0BDE8E2
:10494C00104001F02BBD00BF24E6032038E6032005
:10495C0000E6032090DE0320B0DE0320317E0B0046
:10496C00CCE2032088E60320F07E0B0084DE0320DB
:10497C0038B50446C0680D4608B101F0ABFDA3790B
:10498C00062B0CBF0420032010FB05F080B2A08086
:10499C0001F098FDE06028B1A288002103F0D4F862
:1049AC00658038BDA0806080FBE710B5044601210E
:1049BC00C07902F0BBFEE079002102F0C8FE0123B1
:1049CC00237010BD37B5037805460C461BB1C07972
:1049DC00002102F0ABFE2B78EC715BB1A0B201218F
:1049EC00019002F0A3FE0198002103B0BDE8304015
:1049FC0002F0ADBE03B030BD70B5002504461646BE
:104A0C008371C0E9035505700572FFF7B1FF2046AD
:104A1C003146FFF7D7FF204670BD0000C368002B5E
:104A2C0000F0A4812DE9F04F8379023BDBB2042B1B
:104A3C009CBFBF4A52F8234085B0054688BF32243C
:104A4C0001F0D4FA2B69C01AA042F9D3B94CAE8844
:104A5C00D4F800351BB9D4F86035002B7EDBB64C8E
:104A6C00D4F8003523B9D4F86035002BC0F26E8130
:104A7C00B24CD4F80035002B00F04481EB79B04AED
:104A8C00B04C1268190102EB0313575CAE495B780A
:104A9C00D1F8FC2042F08072C1F8FC20226803F0AF
:104AAC001F0343EA471301273A432260A988D5F82C
:104ABC000C80D4F804909F40002944D04FF0000E95
:104ACC0072464FF0A04118F801CB0820802663688D
:104ADC009B1A462BFBD96268D1F808351CEA060FE5
:104AEC0043EA0703C1F808352FD063689B1A282BBB
:104AFC00FBD9D1F80C35013843EA07034FEA5606C7
:104B0C00C1F80C35E3D1AB880EF1010E1FFA8EFE05
:104B1C007345D8D84FF4307103FB01F163689B1ACD
:104B2C00462BFBD96368A3EB09098945C0F0E480E7
:104B3C004FF4967001F052FAA988D5F80C80D4F88D
:104B4C0004900029BAD10A46E8E763689B1A112B36
:104B5C00CFD863689B1A112BF7D9CAE7D4F8643500
:104B6C00002BBFF67CAFD4F86835002BBFF677AFBF
:104B7C00D4F86C35002BBFF672AF3601331D1846D6
:104B8C00009301F09FFC00283FF478AFAB88002B1A
:104B9C0000F0ED80EA68013B12FA83F702F1FF3E68
:104BAC00002348F2060248F20D011EF801CF1CF05A
:104BBC00800F0CBF93468B461CF0400F0CBF164663
:104BCC000E461CF0200F0CBF9046884603F10109DD
:104BDC00CDF80880019603F102081FFA89F9019EAD
:104BEC0020F813B01FFA88F820F81960029E20F8FC
:104BFC00186003F103081CF0100F1FFA88F80CBFA3
:104C0C0093468B4620F818B003F104081CF0080FEB
:104C1C001FFA88F80CBF93468B4620F818B003F1A6
:104C2C0005081CF0040F1FFA88F80CBF93468B463E
:104C3C0020F818B003F1080A03F1060807339BB2F9
:104C4C001CF0020F1FFA88F80CBF93468B46CDF868
:104C5C000CA01CF0010F20F818B015BF20F8131091
:104C6C0020F813201FFA8AF3BDF80C3077459CD13D
:104C7C00591C023389B29BB249005B004FF40047C8
:104C8C004752009AC7522E4B56081F680022142315
:104C9C00C4F80425C4F80C25C4F80835C4F8142548
:104CAC00C4F81025C4F82005C4F82465C4F82825D8
:104CBC00C4F82C25EB7907EB031C1B010121FE5CCE
:104CCC009CF8013003F01F0343EA4613C4F8603527
:104CDC00C4F80015C4F81021A160D4F81031002BD1
:104CEC00FBD000234FF0FF32C4F81031C4F800356C
:104CFC00C4F8602501F0EEFB01F078F9286105B0ED
:104D0C00BDE8F08FD4F86035002BBFF6B7AED4F801
:104D1C006435002BBFF6B2AED4F86835002BBFF665
:104D2C00ADAED4F86C35002BBFF6A8AE25E700BFAE
:104D3C00F87E0B0000C00140001002400020024031
:104D4C00B4E60320001000E000ED00E0D4F8643578
:104D5C00002BBFF68DAED4F86835002BBFF688AEAD
:104D6C00D4F86C35002BBFF683AE06E770470423EE
:104D7C00022183E743888B42F0B52DD9067AC2F322
:104D8C000743C2F30724D5B23EB173437443754352
:104D9C00C3F30723C4F307242D0A90F806C0C76891
:104DAC00BCF1060F0CBF042603264E43ACF1020CDB
:104DBC00B919BCF1060F1DD8DFE80CF0041C08046F
:104DCC000F040400BC554B708D7005E0FE2B28BF02
:104DDC00FE23BB554D708C70F0BDBB554C708D7067
:104DEC00037A120E13B9D2B2CA70F5E75A43C2F362
:104DFC000722F9E7BB554C70E6E7037A4A1CD2B29E
:104E0C00934270B51FD0013B13F0FF03C4680CD064
:104E1C00FF291FBF110201F1FF31B1FBF3F39BB26C
:104E2C0004BF4FF6FF71B1FBF3F325468688291BAF
:104E3C0089B28E4206D929785943C1F3072105F866
:104E4C00011BF3E7027270BD8288C068002102F07A
:104E5C007BBE000008B501F0E1F8014B186008BDFD
:104E6C00B4E603202DE9F04F85B01F46BDF938801C
:104E7C00BDF83C30A8EB0209A7EB010AB9F1000F11
:104E8C00B8BFC9F10009BAF1000FB8BFCAF1000AE6
:104E9C00D14583460C46154604DD3A462C4647461A
:104EAC000D469046BC4205DD2A46454690462246B4
:104EBC003C4617463E1BB2B20092A8EB050282EAB2
:104ECC00E271A1EBE271C6F3C03202FA86F64545F7
:104EDC00B4BF01224FF0FF32019176100292BC4216
:104EEC001CDCDBF800200393D145D2F81080C7BF3F
:104EFC00294622462A4621465846C047019A039B1A
:104F0C00B61AB1B236B2002E05DA029A1544009ADE
:104F1C0056182DB236B2013424B2E0E705B0BDE824
:104F2C00F08F2DE9F347BDF82C800768BDF9289068
:104F3C00CDF800800446FF6916468A461D46B847E0
:104F4C002368CDF8008009F1FF323244DF69514605
:104F5C002B46204612B2B8472368CDF800809F69D3
:104F6C0032464B4651462046B8476B1E03EB0A01AE
:104F7C002368CDF828809D6932464B4609B22046FD
:104F8C00AC4602B0BDE8F047604737B5013B13446F
:104F9C000468BDF8185001951BB2009364690B4668
:104FAC00A04703B030BD37B5BDF818500468CDE943
:104FBC000025013B0B4464691BB2A04703B030BD14
:104FCC002DE9F347BDF92890BDF82C800546924693
:104FDC000C46CE18B4420BDA2B68CDF800809F69D2
:104FEC0021464B46524628460134B84724B2F1E7D5
:104FFC0002B0BDE8F08713B502680191B0F90E104C
:10500C000091546AB0F90C3000221146A04702B04E
:10501C0010BD704730B54281C2814FF0FF32002481
:10502C00054D42610122446005600181818104616A
:10503C000283827630BD00BF10840B002DE9F04F47
:10504C002DED028B8DB007460491BDF860100591D3
:10505C00BDF864100691B0F90C1004989DF86850D6
:10506C00814252DDB7F90E1091424EDD062111FB43
:10507C000504002C49DD02EBC504002C45DD03EBD7
:10508C0083030B9393B2079308339BB208910024CC
:10509C000993052C1CBF2C4B0B9A079E16BF1B1992
:1050AC0000239B5C0393049AABB20A9304FB05F3B5
:1050BC0013FA82F31BB204EB020A08EE103AB04664
:1050CC000FFA85F90FFA8AFA039BDB072FD5012D0E
:1050DC003B681FD1D3F810B0059B32B2514638460D
:1050EC00D847039B5B0803930A9B01369844099BA2
:1050FC00B6B2B3421FFA88F8E6D1089B013B0134E3
:10510C0013F0FF0364B20893C3D10DB0BDEC028B56
:10511C00BDE8F08F059ACDE9009218EE101AD3F87D
:10512C0024B00FFA88F24B463846D847D9E7DDE968
:10513C0005239342D5D0012D3B6803D1D3F810B091
:10514C00069BCAE7069AE6E70C7F0B0030B50A29E6
:10515C0085B0044607D1027E638A03EBC2036382E7
:10516C000023238221E00D291FD0037E0293C38AE2
:10517C000193838A0093B0F912200B46B0F91010FA
:10518C00FFF75CFF207E238A00EB400103EB410319
:10519C00A17E1BB20246238239B1B4F90C106FF018
:1051AC00050505FB00118B42D6DC012005B030BD96
:1051BC00407E7047B0F90C007047B0F90E00704794
:1051CC00F0B5457EBDF81440022D69D0032D00F0DA
:1051DC009980012D6CD10589D2432A4412B2002A40
:1051EC005DDBB0F90850954259DD0029BEBF5B1854
:1051FC001BB20021B0F90A00CD188542C4BF431A76
:10520C001BB2002B4BDDC1F3C400DFF820C102EB55
:10521C00C01211F00701DBB20CEB02001AD0C1F185
:10522C000805404EEDB2AB42775D3FBFA5EB030ED8
:10523C00FF2646FA0EF637401CF80260012C0CBF14
:10524C003E43BE43AB420CF8026028D308390B44F2
:10525C00DBB28030072B19D9012C4FF0FF3518BF6A
:10526C000025EDB200F180011A46083AD2B2072AA5
:10527C0001F8805C01F18001F7D8A3F10802C2F3B8
:10528C00C402013200EBC21003F007033BB1264A03
:10529C00D25C0378012C0CBF134393430370F0BD15
:1052AC004589D2432A44CD180189491B12B209B24F
:1052BC00002AF4DBB0F90A509542F0DD0029BEBF9C
:1052CC005B181BB20021B0F90870CE18BE42C4BFE7
:1052DC006B1A1BB2002BE2DDD010802510FB0511E0
:1052EC001248014402F0070001228240012CD2B284
:1052FC000B440CD18B42D2D011F8010B104301F8A6
:10530C00010CF7E7CD184189491B09B267E7D24375
:10531C00D2B28B42C3D011F8010B104001F8010C32
:10532C00F7E700BF10DA032008DA032018DA0320AD
:10533C00F0B5457EBDF81440022D34D0032D00F09D
:10534C009B80012D37D1D5180289521B12B200292E
:10535C00C0F29180B0F90A508D4240F38C80002A43
:10536C00BEBF9B181BB20022B0F90870D618BE4203
:10537C00C4BFAB1A1BB2002B7DDDC810802510FBFF
:10538C0005224548024401F0070001218140012C0F
:10539C00C9B2134475D19A426DD012F8010B08436F
:1053AC0002F8010CF7E70589C9432944D51842894D
:1053BC00521B09B212B200295DDBB0F908508D42C4
:1053CC0059DD002ABEBF9B181BB20022B0F90A009F
:1053DC00D5188542C4BF831A1BB2002B4BDDC2F318
:1053EC00C400DFF8B4C001EBC01112F00702DBB24D
:1053FC000CEB01001AD0C2F10805284EEDB2AB42FD
:10540C00775D3FBFA5EB030EFF2646FA0EF637403D
:10541C001CF80160012C0CBF3E43BE43AB420CF8A0
:10542C00016028D3083A1344DBB28030072B19D91A
:10543C00012C4FF0FF3518BF0025EDB200F18001B3
:10544C001A46083AD2B2072A01F8805C01F18001B1
:10545C00F7D8A3F10802C2F3C402013200EBC21068
:10546C0003F007033BB10E4AD25C0378012C0CBF4E
:10547C00134393430370F0BD4589C943294409B2D2
:10548C0065E7C943C9B29A42F5D012F8010B08403E
:10549C0002F8010CF7E700BF18DA032010DA03203A
:1054AC0008DA032070470000F8B50D1E06461446B6
:1054BC001F462DDBFFF77EFEA84229DD002C27DBE3
:1054CC003046FFF77AFEA04222DD3046FFF770FE31
:1054DC0002281ED0032825D0012804D13389E243A9
:1054EC001A442C4615B2002C2246B8BFE21DD2102D
:1054FC00802112FB01550E49012204F007044B5781
:10550C0002FA04F464B297420CBF2343A3434B55F5
:10551C00F8BD318972890139E4434D1B14442DB215
:10552C0024B2E0E77389013B5B1B25461CB2DAE72A
:10553C0018DA032010B524210446FEF7A8FD2046F6
:10554C0010BD000038B5402204460D468021FFF7FF
:10555C0061FD064B2360FF2384F8213063774FF6FF
:10556C00FF73E38384F82050204638BD48840B0039
:10557C0002484FF48062002102F0E6BA18DA0320E8
:10558C0013B50B4C2178BFF35B8F11F001010BD1DC
:10559C0020460191FEF78AFD019928B1054801F0DA
:1055AC0059FA2046FEF787FD024802B010BD00BF35
:1055BC00B8E60320BCE6032007B590F8223043B1CF
:1055CC000191FFF7DDFF019903B05DF804EB01F0E9
:1055DC00F5BA0B46817F407F012203B05DF804EBE6
:1055EC0002F0E5B838B590F91D30013304460D468C
:1055FC001DD090F92100012180B202F0A8F894F995
:10560C001F00002180B202F0A2F894F921000021C1
:10561C0080B202F09CF829462046FFF7CDFF94F9A2
:10562C0021000121BDE8384080B202F090B802F0B0
:10563C00FBF894F91B1001F01BF802F0F5F8036865
:10564C0000219B68984702F0EFF8036829469B6895
:10565C00984702F0E9F8BDE8384001F010B838B5C9
:10566C0090F91D300177013304460D46C27600F0E7
:10567C00C98090F91F00012180B202F057F894F90B
:10568C002100012180B202F051F894F82230002B55
:10569C0000F0A68094F92100012180B202F057F8A5
:1056AC00FFF76EFF012101F0F3F9FFF769FF1021FD
:1056BC0001F05EFAFFF764FF002101F0FDF9FFF73E
:1056CC005FFF01F0D1F994F92000012180B202F0C2
:1056DC002DF894F92000012180B202F038F8012055
:1056EC0000F028FF94F92000002180B202F02FF87E
:1056FC000A2000F01FFF94F92000012180B202F073
:10570C0026F82046AE21FFF76DFF2046D521FFF786
:10571C0069FF20468021FFF765FF2046A821FFF78F
:10572C0061FF20463F21FFF75DFF2046D321FFF7A5
:10573C0059FF20460021FFF755FF20464021FFF777
:10574C0051FF8D212046FFF74DFF012D0CBF10217D
:10575C0014212046FFF746FF20462021FFF742FF89
:10576C0020460021FFF73EFF2046A121FFF73AFF1C
:10577C002046C821FFF736FF2046DA21FFF732FF1B
:10578C0020461221FFF72EFF81212046FFF72AFF2A
:10579C00012D0CBF9F21CF212046FFF723FFD921DC
:1057AC002046FFF71FFF012D0CBF2221F1212046BF
:1057BC00FFF718FF2046DB21FFF714FF204640219E
:1057CC00FFF710FF2046A421FFF70CFF2046A6216F
:1057DC00FFF708FF2046AF21BDE83840FFF702BFB6
:1057EC0094F91D00012180B201F0A0FF94F91E0074
:1057FC00012180B201F09AFF94F82230002B3FF483
:10580C0062AF47E702F010F800F028FF5BE70000FA
:10581C0010B5054B0360037C04461BB9406808B106
:10582C0000F058FE204610BD80840B0010B50446D5
:10583C00FFF7EEFF20461421FEF729FC204610BD91
:10584C0010B5074B0360037C04461BB9406908B1D3
:10585C0000F040FE2046FFF7DBFF204610BD00BFE6
:10586C0090840B0010B50446FFF7EAFF20462C216C
:10587C00FEF70DFC204610BD43680021C16023B12A
:10588C00826812B1184602F05FB9704710B5C0E9D2
:10589C0001120022C260012202744361024A029B7F
:1058AC000260C36110BD00BF90840B002DE9F04F66
:1058BC0044684FF0010C4FF0FF36D0F800E09645ED
:1058CC0080F0B98111F80E80B8F1000F00F0B381AF
:1058DC00B8F13A0F00F0988033D8B8F1220F00F0ED
:1058EC00A68010D8A8F109085FFA88F8B8F1170F4C
:1058FC000DD89F4D0CFA08F818EA050F07D005686B
:10590C0001350560D9E7B8F12C0F00F03381D0F8E0
:10591C00008042450ED911F808505DB13A2D00F2C5
:10592C0069811F2D00F251810A2D00F26081082D32
:10593C0040F25681002B40F0628108F1FF35056082
:10594C00A5E0B8F17B0F37D02ED8B8F15B0F33D070
:10595C00B8F15D0FDBD1002BD1D04FF002094568B7
:10596C00013D03EB0518002D55DBD8F80470013709
:10597C004DD0D8F808A0BAF1FF3F48D198F800B044
:10598C00CB454BD10EF1010EC0F808A0C8F808E0C9
:10599C0003EB051EDEF80470013742D0DEF8087008
:1059AC0001373ED18560AAE7B8F17D0FAFD1002B4E
:1059BC00A5D04FF00109D2E70134002B9FD04568E8
:1059CC00099FAF424AD905F1010EC0F804E003EB80
:1059DC00051ECEE901664FEA051A0025CEF80C50DB
:1059EC0085686F1C1FBF03EB0519D9F80C500135E6
:1059FC00C9F80C50B8F17B0F0CBF0125022503F838
:105A0C000A500568CEF804504568013DCAE7013DCF
:105A1C00A8F11008A7E701357FF471AF6FF001040E
:105A2C001EE0013D6F1CAEF1100EB3D167E70EF115
:105A3C000109C0F80090D0F80080424540F29380F4
:105A4C0011F80850002D00F08E80222D30D1F3B1CA
:105A5C004568099FAF4206D8C0F800E04FF0FF340C
:105A6C002046BDE8F08F05F1010E4FEA051803EB57
:105A7C000515C0F804E0C5E901660027EF60D0F811
:105A8C0000E04FF0030A03F808A0C5E9019E856801
:105A9C006F1C04F101043FF432AF002B3FF42FAF25
:105AAC0003EB051EDEF80C500135CEF80C5026E742
:105ABC005C2D11D108F10105AA420DD905604D5D8F
:105ACC00752D2BD86D2D0BD8662D27D85B2D1DD899
:105ADC00222D01D02F2D21D1056801350560AAE7B3
:105AEC006E3D072D1AD801A757F825F0E55A0B0083
:105AFC00295B0B00295B0B00295B0B00E55A0B00A3
:105B0C00295B0B00E55A0B002F5B0B005C3DEDB2E3
:105B1C000CFA05F540F241473D42DDD1C0F800E0FA
:105B2C007CE708F1020505604FF0040AD0F800800C
:105B3C00424503D80568013D0560CDE711F80850D2
:105B4C00002DF7D0A5F1300BBBF1090F04D925F0CE
:105B5C002005413D052DE1D808F10105BAF1010AF6
:105B6C000560E3D1E6E7C0F800E06FF0020477E7E8
:105B7C0013008000002B3FF4C2AE85686F1C3FF40D
:105B8C00BEAE2D015D5D013D012D7FF6B8AE4568C1
:105B9C0005F1FF3803EB051EB8F1000FFFF6AFAEB1
:105BAC001EF8105C013D012D0AD85EF80C5C013525
:105BBC0006D05EF8085C013502D1C0F808809EE67C
:105BCC0008F1FF38AEF1100EE6E7A5F12009244FDD
:105BDC005FFA89F90CFA09F919EA070F7FF4AAAEF2
:105BEC00203D5E2D9AD808F1010505608FE60D2D3C
:105BFC00F6D19FE605F0DF09B9F15D0FF8E74568CE
:105C0C00099FAF427FF628AF05F101084FEA05194D
:105C1C0003EB0515C0F80480C5E901660027EF60A9
:105C2C00D0F800804FF0040A03F809A0C5E901E898
:105C3C000568013D83E6002B3FF412AF4268511E0C
:105C4C0003EB02130029FFF60BAF53F80C2C0132B7
:105C5C0003D053F8082C013287D00139103BF1E7FF
:105C6C0001100004F7B5C268044612B9002003B055
:105C7C00F0BD436900F12006ABB10021C0E9081169
:105C8C004FF0FF318162C169009141683046FFF7E6
:105C9C000DFE431C28D1257C002DE7D1606900F056
:105CAC0019FC6561E56100254FF0FF37C4E9085523
:105CBC00E2686168A76200952B463046FFF7F6FD57
:105CCC000028D3DBE06117D0000100F0FBFBE26998
:105CDC00606103460092C4E90855E2686168A762F6
:105CEC003046FFF7E3FD01E00028BFDB636903EBFF
:105CFC000010A0610120BAE76369A361FAE710B54F
:105D0C00044601F003FB204610BD000038B50446E4
:105D1C00154600F027FE0549204600F023FE2946D3
:105D2C002046BDE8384000F030BE00BFE27E0B00DC
:105D3C0038B50546144600F015FE0B49284600F010
:105D4C0011FE002C0DDA2D21284600F00FFE6142C9
:105D5C0028460A2200F023FE2846BDE8384000F011
:105D6C0008BE2146F4E700BFE27E0B002DE9F04FA0
:105D7C000E4691B098464FF0FF3313600446002155
:105D8C003046DDF86890174600F0AAFFD6F838E0E8
:105D9C00034698B9BEF1000F14BF72465022316809
:105DAC0092B2204601F0B2F8051E18BF0125C5B904
:105DBC00204611B0BDE8F04F01F05EBA754B0A9366
:105DCC0006F1140CBCE80F000BAD0FC5DCF800306D
:105DDC002B701FFA8EF200230AA9204601F076F9E7
:105DEC00E2E74946204600F0BDFD6B49204600F035
:105DFC00B9FDB16A204600F0B5FD6849204600F0B7
:105E0C00B1FD6749674A2046FFF780FF0021304605
:105E1C0000F066FF20B9326863492046FFF776FF31
:105E2C0006F13C0A0021504600F05AFF28B9726C6A
:105E3C005E492046FFF77CFF06E05D49484601F0CD
:105E4C00B9FE02460028F3D0B8F1000F0ED0D8F8F6
:105E5C00001059B1D8F80420204622B1FFF756FFA4
:105E6C0008F10808F3E700F090FDF9E7204600F090
:105E7C0080FD204600F0CEFF0021504600F030FFA0
:105E8C0018B9F16B204600F080FD04F11C0A4FF4A8
:105E9C0080620021504601F057FE00F0AFF80190EF
:105EAC0000F0ACF84FF00008464641F2883B204623
:105EBC0001F088F9D8B1204600F092FF814600F03D
:105ECC009DF840F2FE339E42019004D8A31983F84A
:105EDC001C900136EBE740F2FF339E42F9D10023D0
:105EEC0084F81B34204601F0C7F9A846F1E7A31942
:105EFC00187700F083F8019BA0EB0309B8F1000FB1
:105F0C0004D1D94502D8C82000F014FB204601F07A
:105F1C007BF820B1D94502D8B8F1000FC7D0204684
:105F2C0001F0AAF9514602A800F099FE0C230922AF
:105F3C0002A906A800F0F8FE1E490AA800F08FFE80
:105F4C000AA902A800F0EDFE04460AA800F03CFEE7
:105F5C00631C08D106A800F037FE02A800F034FE3E
:105F6C0011B0BDE8F08F3D1D1349284600F08BFEA3
:105F7C00221D02A90AA800F0F7FE0AA9284600F083
:105F8C00ABFE0AA800F020FE069801F0CBFD3860AD
:105F9C00E0E700BF48850B00E37E0B0098840B0004
:105FAC00AA840B00A4840B00B5840B00BA840B00EC
:105FBC00C9840B00CE840B00317E0B0008B5024B5C
:105FCC001B685B6C019308BD4802030008B5024BCB
:105FDC001B685B68019308BD1802030008B5024BEF
:105FEC001B68DB68019308BD1802030008B5024B5F
:105FFC001B681B69019308BD1802030008B5024B0E
:10600C001B685B69019308BD1802030008B5024BBD
:10601C001B68DB6D019308BD1802030008B5024B29
:10602C001B681B68019308BD2C02030008B5024BCA
:10603C001B685B68019308BD2C02030008B5024B7A
:10604C001B689B68019308BD2C02030008B5024B2A
:10605C001B68DB68019308BD2C02030008B5024BDA
:10606C001B681B69019308BD2C02030008B5024B89
:10607C001B681B6B019308BD2C02030008B5024B77
:10608C001B68DB68019308BD2802030008B5024BAE
:10609C001B689B69019308BD2802030008B5024BDD
:1060AC001B68DB69019308BD2802030008B5024B8D
:1060BC001B681B6A019308BD2802030008B5024B3C
:1060CC001B685B6A019308BD2802030008B5024BEC
:1060DC001B689B6A019308BD2802030008B5024B9C
:1060EC001B68DB6A019308BD2802030008B5024B4C
:1060FC001B681B6B019308BD2802030008B5024BFB
:10610C001B685B6B019308BD2802030008B5024BAA
:10611C001B681B6C019308BD2802030008B5024BD9
:10612C001B685B69019308BD6C02030008B5024B48
:10613C001B685B69019308BD6402030008B5024B40
:10614C001B681B6A019308BD6402030008B5024B6F
:10615C001B689B6A019308BD6402030008B5024BDF
:10616C001B689B68019308BD6802030008B5024BCD
:10617C001B68DB68019308BD6802030008B5024B7D
:10618C001B689B69019308BD3802030008B5024BDC
:10619C001B68DB69019308BD3802030008B5024B8C
:1061AC001B681B6A019308BD3802030008B5024B3B
:1061BC001B689B6A019308BD3802030008B5024BAB
:1061CC001B681B6B019308BD3802030008B5024B1A
:1061DC001B689B6B019308BD3802030008B5024B8A
:1061EC001B681B68019308BD3002030008B5024B05
:1061FC001B689B68019308BD3002030008B5024B75
:10620C001B68DB68019308BD3002030008B5024B24
:10621C001B681B69019308BD3002030008B5024BD3
:10622C001B685B69019308BD3002030008B5024B83
:10623C001B68DB69019308BD3002030008B5024BF3
:10624C001B681B6A019308BD3002030008B5024BA2
:10625C001B685B6A019308BD3002030008B5024B52
:10626C001B681B6C019308BD3002030008B5024B80
:10627C001B685B6C019308BD3002030008B5024B30
:10628C001B68DB68019308BD3C02030008B5024B98
:10629C001B681B69019308BD3C02030008B5024B47
:1062AC001B685B69019308BD3C02030008B5024BF7
:1062BC001B689B69019308BD3C02030008B5024BA7
:1062CC001B68DB69019308BD3C02030008B5024B57
:1062DC001B681B6A019308BD3C02030008B5024B06
:1062EC001B689B6A019308BD3C02030008B5024B76
:1062FC001B681B6C019308BD3C02030008B5024BE4
:10630C001B681B68019308BD4C02030008B5024BC7
:10631C001B685B68019308BD4C02030008B5024B77
:10632C001B681B69019308BD4C02030008B5024BA6
:10633C001B685B69019308BD4C02030008B5024B56
:10634C001B689B69019308BD4C02030008B5024B06
:10635C001B68DB69019308BD4C02030008B5024BB6
:10636C001B681B6A019308BD4C02030008B5024B65
:10637C001B689B6A019308BD4C02030008B5024BD5
:10638C001B685B6B019308BD6002030008B5024BF0
:10639C001B681B6D019308BD6002030008B5024B1E
:1063AC001B685B68019308BD2002030008B5024B13
:1063BC001B685B69019308BD2002030008B5034B01
:1063CC001B68D3F88830019308BD0000200203003D
:1063DC0008B5034B1B68D3F89430019308BD00003B
:1063EC002002030008B5024B1B689B68019308BD93
:1063FC004402030008B5024B1B68DB6B019308BD1C
:10640C004402030008B5024B1B685B68019308BD8E
:10641C004002030008B5024B1B689B68019308BD42
:10642C004002030008B5024B1B68DB68019308BDF2
:10643C004002030008B5024B1B681B69019308BDA1
:10644C004002030008B5024B1B685B69019308BD51
:10645C004002030008B5024B1B689B69019308BD01
:10646C004002030008B5024B1B68DB69019308BDB1
:10647C004002030008B5024B1B681B6A019308BD60
:10648C004002030008B5024B1B681B6B019308BD4F
:10649C004002030008B5024B1B685B6B019308BDFF
:1064AC004002030008B5024B1B681B6C019308BD2E
:1064BC004002030008B5024B1B685B6C019308BDDE
:1064CC004002030008B5024B1B681B68019308BD12
:1064DC001C02030008B5024B1B685B68019308BDE6
:1064EC001C02030008B5024B1B689B68019308BD96
:1064FC001C02030008B5024B1B685B6A019308BDC4
:10650C001C02030008B5024B1B68DB6B019308BD32
:10651C001C02030008B5024B1B681B6C019308BDE1
:10652C001C02030008B5024B1B685B6C019308BD91
:10653C001C0203000021FFF739BF000002480023B2
:10654C000360FFF73BBD00BFC4E603200022406898
:10655C001146FFF78FBF002240681146FFF79ABF24
:10656C0040680022FFF78EBF4068002281F00101D5
:10657C00FFF778BF002340681A461946FFF76ABF39
:10658C00002340681A461946FFF75CBF002240689A
:10659C001146FFF74FBF002240681146FFF73ABF84
:1065AC00406800220221FFF73DBF002340681A46D5
:1065BC00FFF728BF024B03225A60024A1A60704749
:1065CC00C8E60320E4840B007047F8B50646154670
:1065DC000C468F18BC4206D0336814F8011B9B681C
:1065EC0030469847F6E72846F8BD007C0022FFF7B6
:1065FC005DBD007C0021FFF761BD007C0021FFF731
:10660C0065BD007C0021FFF769BD007C0021FFF710
:10661C006DBD10B514210446FDF739FD204610BDA3
:10662C0038B5044615464FF47A730022C4E90123A9
:10663C00094B2174084623602946FFF767FDBF30DC
:10664C0008D16B69DB0705D56868FFF743FFE8687D
:10665C00FFF740FF204638BD20850B000023007C4F
:10666C001A461946FFF70ABD007C0022FFF70EBD43
:10667C00C9B2FFF7F9BF007C0022FFF70FBD012163
:10668C00FFF7F9BF704710B518210446FDF7FFFC62
:10669C00204610BDF0B5037D062B8DB00E4600F1E3
:1066AC0004074FF0000412D000F1080515F8011D85
:1066BC000A22304600F073F9AF42044419D0002C82
:1066CC00F4D02E21304600F051F90444EEE72F238C
:1066DC006A4639460A208DF80040FFF727FD6846C8
:1066EC0001F07AFA33680246DB686946304698470F
:1066FC00044620460DB0F0BD10B5054B04461122E2
:10670C0040F8043B002101F01FFA204610BD00BFE9
:10671C0048850B000346074A10B543F8042B01F1DA
:10672C00100251F8044B43F8044B9142F9D10A780A
:10673C001A7010BD48850B00037D042B04D14068F2
:10674C00003818BF01207047062B07D143683BB9AE
:10675C0083682BB9C3681BB90069F1E70020704747
:10676C000120704710B59DF8084044EA032343EA22
:10677C00024242EA016104234160037510BD00002E
:10678C0007B5064B0360CB7800938B784A78097871
:10679C00FFF7E8FF03B05DF804FB00BF48850B0072
:1067AC00014B024A1A607047D0E6032054850B0057
:1067BC00002340681A46FFF725BE406800220221DC
:1067CC00FFF730BE002240681146FFF723BE0022BF
:1067DC0040681146FFF72EBE002340681A46194642
:1067EC00FFF730BE002340681A461946FFF732BE49
:1067FC0040680021FFF756BE40680021FFF75ABEE3
:10680C004068002281F00101FFF72CBE4068002295
:10681C00FFF738BE002240681146FFF73BBE00224E
:10682C0040681146FFF726BE2DE9F04395B014469B
:10683C000D460746FFF760FF00211C220DA80091B2
:10684C0001F082F940230C9320466B460CAA0021E0
:10685C00FFF78CFC044600284BD1024601216868E6
:10686C00FFF7E8FD0221804622466868FFF7E2FD4B
:10687C00009E81462146002E3BD0002939D17368F9
:10688C00022B03D00A2B11D0F669F4E7B8F1000FF4
:10689C00FAD0716906A8043107ADFFF771FF0FCD6F
:1068AC003C1D0FC42B6823704146EDE7B9F1000F76
:1068BC00EAD07469102201A801F046F906238DF87C
:1068CC00143001AD04F108031834186859682A46CD
:1068DC0003C20833A3421546F7D101A906A807AD98
:1068EC00FFF718FF0FCD3C1D0FC42B6823704946D2
:1068FC00CAE70098FFF732FC384615B0BDE8F083C4
:10690C00024B034A1A6000225A607047D4E60320F7
:10691C0060850B00F8B506460D468F180024BD4265
:10692C000CD0336815F8011B9B6830469847031E42
:10693C0001DB1C44F3E7002C08BF1C462046F8BDC5
:10694C0013B50446084659B1019101F045F9236885
:10695C000199DB680246204602B0BDE8104018479A
:10696C0002B010BD08B5FFF7EBFF08BD03689B68CC
:10697C00184738B50D210546FFF7F8FF0A210446E4
:10698C002846FFF7F3FF204438BD38B50546FFF71E
:10699C00D7FF04462846FFF7ECFF204438BD30B53E
:1069AC008BB00023012A8DF8243098BF0A2209AC41
:1069BC000D46B1FBF2F101FB125303F0FF03092B5F
:1069CC0094BF30333733DBB2AA4204F8013DEFD920
:1069DC002146FFF7B5FF0BB030BD2DE9F04186B075
:1069EC0000AF05460E46381D142114463B60FFF7D8
:1069FC0081FD13280ED8391D2846FFF7A1FF044648
:106A0C001EB12846FFF7B5FF044420461837BD4693
:106A1C00BDE8F08100F1080323F00703E846ADEB75
:106A2C00030D2246411C3B686846FFF763FD69462F
:106A3C002846FFF785FF0446C546E1E7014B0022D7
:106A4C009A607047DCE603200021FFF70FBC0021A1
:106A5C00FFF704BC10B5044608462170FFF7E6FBAF
:106A6C0000236360204610BD13B504460078FFF781
:106A7C00EEFF58B9207801904FF6FF71FFF7AEFB8F
:106A8C00019802B0BDE81040FFF7DEBF02B010BDA8
:106A9C0013B5044600780191FFF7D9FF019948B965
:106AAC0020780190FFF7A2FB019802B0BDE81040DE
:106ABC00FFF7CABF02B010BD13B5044600780191B0
:106ACC00FFF7C5FF019948B920780190FFF796FBB5
:106ADC00019802B0BDE81040FFF7B6BF02B010BD80
:106AEC00400830B51860002418688842E5B206D911
:106AFC000134082C02D040081860F5E70725024B3A
:106B0C005B5D137030BD00BF94850B002DE9F04127
:106B1C0088B000230446007802930E461746FFF710
:106B2C0096FF054600BB94F800800146142203A88A
:106B3C0001F00AF80B232A4603A94046ADF80C30A5
:106B4C00FFF784FB04988DF8075002AB0DF1070298
:106B5C0007FB06F1FFF7C4FF20789DF80710FFF73D
:106B6C0055FB2078FFF770FF029808B0BDE8F08164
:106B7C0038B5044600780D46FFF769FF0346D0B9D7
:106B8C00616899B10C4A12F8010B854202D00133AD
:106B9C00082BF8D10133DBB20122D9402046FFF794
:106BAC00B5FF2078BDE83840FFF74EBF2078294666
:106BBC00FFF72CFBF5E738BD94850B0008B5007882
:106BCC00FFF72CFBC0B208BD10B504460068FFF7F8
:106BDC0081FC204610BD10B50446006808B1FFF7D3
:106BEC0079FC0023C4E90133236010BD38B5044699
:106BFC000D4600680131FFF775FC10B1C4E90005C2
:106C0C00012038BD10B50368044623B143688B429C
:106C1C0001D3012010BD2046FFF7E8FF0028F9D072
:106C2C00A368002BF5D122681370F2E737B50D4637
:106C3C00114601920446FFF7E5FF019A28B9204658
:106C4C00FFF7C9FF204603B030BDA260294620687B
:106C5C0000F06CFF2268A3680021D154F2E70023F6
:106C6C0013B5C0E9003304468360037341B1084691
:106C7C00019100F0B1FF019902462046FFF7D6FFC3
:106C8C00204602B010BD13B5044659B10846019117
:106C9C0000F0A2FF019902462046FFF7C7FF2046ED
:106CAC0002B010BDFFF797FFF9E770B505460E4629
:106CBC0009B9002070BD6AB1846814442146FFF7FD
:106CCC00A1FF0028F5D02868AB683146184400F0C5
:106CDC007BFFAC600120EDE78A680968FFF7E5BF30
:106CEC0008B582683AB921B10878B0FA80F0400949
:106CFC0000E0012008BD006809B90078F5E700F054
:106D0C0059FFF2E710B58368934207D90468096804
:106D1C00A01800F069FF08B1001B10BD4FF0FF3048
:106D2C00FBE70022FFF7EEBFF8B59A420F461D466F
:106D3C000C4988BF13461446064684BF2C461D4694
:106D4C00FFF78DFFBB68A3420AD33968AB4294BFEF
:106D5C00C4EB0302C4EB050221443046FFF766FF87
:106D6C003046F8BD317E0B0010B504468B68FFF73A
:106D7C00DBFF204610BD0000054B02221A60054BBC
:106D8C00054A9A600020C3E90000FFF707BB00BF6B
:106D9C00F8E60320ECE603200000FFFF13B50368C0
:106DAC008DF80710DC6B01224FF0FF330DF107015A
:106DBC00A04702B010BD10B40368DC6B4FF0FF337A
:106DCC00A4465DF8044B604713B5134602688DF872
:106DDC000710D46B0DF107010122A04702B010BDC2
:106DEC0010B54369B3F88620B3F884309A42044650
:106DFC0008D06369B3F88420511CA3F884101344A1
:106E0C00187910BD03681B6998470028F1D14FF021
:106E1C00FF30F6E7704743691868C043C00F7047EE
:106E2C0070470000064B994210B500F10C0405D0D8
:106E3C00084600F05FFD002808BF0024204610BD66
:106E4C00D4840B0010B5AC210446FDF720F9204684
:106E5C0010BDAC21FDF71BB92DE9F0414FF0000836
:106E6C0086B01C46C0F8048005460E4617464146BF
:106E7C00102202A800F068FE631C09D04FF47A734C
:106E8C00B4FBF3F203FB1244CDE902285C430494F7
:106E9C00686910230093006802AB41F2050240F6CA
:106EAC00FF71FFF76BF9002807DAFFF72BFB03687C
:106EBC006B60002006B0BDE8F081686900230068B3
:106ECC003A463146FFF77AF9031EEEDB1846F1E736
:106EDC0030B587B0044601AD6846FFF751FC0FCDC5
:106EEC0004340FC42B68237007B030BD70B54D69E6
:106EFC00054B04468C3544F8043B06460FCD0FC4B5
:106F0C002B682370304670BD48850B002DE9F0438B
:106F1C009846036893B00D460024DB6A0646174674
:106F2C00984728466B46224621460094FFF71EF9E7
:106F3C000546002863D1009B002B4BD05B69002BCE
:106F4C0048D006A8FFF7D8FB009B5C696378022B3E
:106F5C0004D1211D06A8FFF7BBFF26E00A2B24D184
:106F6C001122294601A800F0EFFDA368002B38D0B0
:106F7C0004F108030DF1040C1834186859686246C2
:106F8C0003C20833A3429446F7D1062301A90CA8E7
:106F9C008DF81430FFF7BEFB0DF1340CBCE80F007C
:106FAC0007AC0FC4DCF80030237006A8FFF7C4FB55
:106FBC0080B1336807ADD3F82090124B0C930FCDF2
:106FCC000DAC0FC42B6823703A4643460CA93046CF
:106FDC00C84705460098FFF7C1F8284613B0BDE82E
:106FEC00F083E368002BC3D14FF6FF70D4F81090F8
:106FFC00FFF7A4F88145BBD104F11401AAE725469B
:10700C00E8E700BF48850B0038B543691A68002AC9
:10701C00054610DAB3F88620B3F884309A420AD1C8
:10702C0003681B699847044628B92B682846DB6A15
:10703C009847204638BD0120FCE710B54369B3F8EA
:10704C008620B3F884309A42044605D06369B3F8BD
:10705C0084201344187910BD03681B6998470028D5
:10706C00F4D14FF0FF30F6E7F8B543691746B3F8A3
:10707C008620B3F884309A4205460E4616D06969CC
:10708C00B1F88430B1F88640E41ABC4228BF3C46C3
:10709C00043322461944304600F048FD6A69B2F8C0
:1070AC0084302344A2F884302046F8BD03681B6961
:1070BC0098470028E3D14FF0FF34F5E742690023ED
:1070CC00A2F884304269A2F8863070472DE9F0416D
:1070DC001F4603680C46DB6A8AB00546164698477D
:1070EC00237DD5F81480042B0CBF02200A20062225
:1070FC000121FFF76BF8C8F800006B691B68002BC7
:10710C0008DA2B682846DB6A0024984720460AB028
:10711C00BDE8F0812846FFF7D1FFB7B1002303A9E2
:10712C00F8B20393ADF81030FEF7F8FF0028E8D161
:10713C00686906230093006803AB41F20B0240F62A
:10714C00FF71FFF71BF80028DBD11C22002103A8DC
:10715C0000F0FAFC237D042B1DD14FF4077330464D
:10716C00ADF80C30FEF7F2FFADF80E006068FEF7DC
:10717C00E5FF04906B691C22186803A9FFF70EF851
:10718C000028BED104340FCC6D698C350FC5236833
:10719C002B700124BAE740F61C233046ADF80C30B6
:1071AC00FEF7D4FF05AEADF80E00231D04F1140755
:1071BC0018685968324603C20833BB421646F7D1E9
:1071CC00D8E7000030B54269B2F886308BB004467F
:1071DC002BB1B2F884209A4201D1FFF76FFF61699D
:1071EC000868002818DBB1F886507F2D14D80431BC
:1071FC000823C5F180022944FEF7D8FF002813DDCF
:10720C006369B3F886200AB9A3F884206369B3F8DC
:10721C0086201044A3F886006369B3F88600B3F89F
:10722C008430C01A0BB030BDFFF76CF903680B2B20
:10723C00F2D0FFF767F903680B2BEDD02023002564
:10724C00CDE90235FFF75EF903680193084B094954
:10725C00009302AA2B463220FFF798F8636918684E
:10726C00FEF794FF63694FF0FF321A60D4E700BF5A
:10727C00A3850B009C850B0010B543690446186868
:10728C00002801DBFEF782FF63694FF0FF321A60C2
:10729C006069112200218C3000F056FC2046BDE8BC
:1072AC001040FFF70BBF10B5002304460160C0F877
:1072BC0084308830FFF720FA204610BD73B50023C8
:1072CC004FF47A72C0E901320E4A036102604361E5
:1072DC000446AC200191FCF7D6FE051E05F10C0608
:1072EC0008D00123C5E90133074B01992B603046C7
:1072FC00FFF7D9FF2046C4E90565FFF7DFFE02B0B2
:10730C0070BD00BFD8850B00BC850B0010B54FF0CD
:10731C00FF310446FFF7D2FF204610BD10B50446DE
:10732C000068002801DBFEF731FF204610BD0C3051
:10733C00FFF7F4BF024B1A68024B1A60704700BF8C
:10734C0018DE0320FCE6032070474174704708B533
:10735C00007CFEF7C3FF20EAE07008BD08B5007C96
:10736C00FEF794FF20EAE07008BD08B5007CFEF73C
:10737C009DFF40EAE07008BD08B5007CFEF78EFF6B
:10738C0040EAE07008BD007CFEF798BF37B5457C3D
:10739C0004462DB1207C03B0BDE83040FEF76EBF33
:1073AC00007C0191FEF79AFF00280199F2DC284637
:1073BC0003B030BD10B514210446FCF768FE20461E
:1073CC0010BD000010B54FF47A7304460846114600
:1073DC000022C4E90123044B23600123207463744D
:1073EC00FEF784FF204610BD40860B0041747047A9
:1073FC007047704708B50021007CFEF79FFF40EAFC
:10740C00E07008BD08B50121007CFEF797FF40EA4B
:10741C00E07008BD08B5007CFEF788FF20EAE0703C
:10742C0008BD08B5007CFEF779FF20EAE07008BDC6
:10743C0013B50446007C0191FEF778FF00280199F2
:10744C0001DC607C20B1207CFEF780FF20EAE0703C
:10745C0002B010BD007CFEF781BF10B514210446AC
:10746C00FCF715FE204610BD10B54FF47A73044698
:10747C0008460021C4E90113044B23600123207446
:10748C0063741146FEF73AFF204610BD70860B0060
:10749C00007C0022FEF73ABF007CFEF767BF10B5F8
:1074AC0014220446002100F04FFB204610BD0000C2
:1074BC0010B50F4C88B003A8FFF7F1FF2178BFF38C
:1074CC005B8F11F001010FD120460191FCF7EEFD0D
:1074DC00019948B103AA0748FFF7C6FF2046FCF7FD
:1074EC00EAFD054800F018FB024808B010BD00BFCB
:1074FC0000E7032004E70320FD730B000022406823
:10750C001146FEF797BF002240681146FEF7B2BF46
:10751C00002240681146FEF7BDBF40680022FEF70E
:10752C00B1BF4068002281F00101FEF79BBF002330
:10753C0040681A461946FEF78DBF002340681A466C
:10754C001946FEF77FBF002240681146FEF762BF66
:10755C00406800220221FEF765BF002340681A46EE
:10756C00FEF750BF024B04225A60024A1A60704761
:10757C0018E70320A0860B00014B1860704700BF72
:10758C001CDE032008B50B4B43B1FFF791FF0368DA
:10759C001B699847002801DDAFF30080064B43B10F
:1075AC0000F082F903681B699847002801DDAFF3EE
:1075BC00008008BD000000000000000008B5FFF7C7
:1075CC00E1FFFEF71BFD014B186008BD28E7032007
:1075DC000548064A064908B5121A00F0A7FA054BE9
:1075EC00054A1A6008BD00BF00F4032004F4032010
:1075FC0094890B0000F403201E1C279A07B5002366
:10760C0000931A466FF07701FEF7E2FE03B05DF8C7
:10761C0004FB000007B543880A2B08D0502B0BD174
:10762C00094B1B684BB103B05DF804EB1847FFF72F
:10763C00E5FF03B05DF804FB002300931A466FF0DE
:10764C007701FEF7C5FEF4E724E7032010B51248D6
:10765C000021FEF767FF114B1A68114B9A42114B30
:10766C000CBF012200221A7001D0FFF7B1FFFEF708
:10767C00ADFC044600F070FA0B4B13B12046AFF38F
:10768C00008000210848FEF7B5FEBDE81040074811
:10769C000021FEF793BE00BF85750B0000F403209C
:1076AC001E1C279A20E703200000000021760B0007
:1076BC00232813B502D9002002B010BDA0F10B0392
:1076CC00022B1AD8174C2178BFF35B8F11F00101F4
:1076DC000BD120460191FCF7E9FC019928B1124825
:1076EC00FFF7B8F92046FCF7E6FC0F4B1878FEF7CD
:1076FC00A5FD0028DFD10120DEE7012809D800F024
:10770C0093F80021007CFEF7F9FC80F00100C0B278
:10771C00D2E709380128EED800F0C6F8007CFEF755
:10772C00D5FDF2E7B8E60320BCE60320232838B5E4
:10773C0004460D460AD8FF2908D0FFF7B9FF28B137
:10774C0029462046BDE83840FEF778BC38BD38B530
:10775C0004460D46FEF77AFCFF2810D0062804D804
:10776C004D2323FA00F0C30709D42046FFF7A0FFEE
:10777C0028B129462046BDE83840FEF76FBC38BD1D
:10778C000D2810B504469CBF0E34A4B22046FFF75A
:10779C008FFF50B103212046FEF748FC032804D18B
:1077AC002046BDE81040FEF761BC002010BD2DE95D
:1077BC00F04190461F46072406460D46C4F10701CA
:1077CC00B8F1000F12D147FA01F101F00101304676
:1077DC00FFF7BDFF01212846FFF7B9FF002128461E
:1077EC00FFF7B5FF013CE9D2BDE8F08147FA04F19F
:1077FC00EBE7704738B50A4B03600123044643613D
:10780C000849202000F074F8202560600549A56027
:10781C00284600F06DF8C4E90305204638BD00BFCA
:10782C0018000100D4860B0030B50E4D2978BFF33B
:10783C005B8F11F0010487B011D12846FCF736FCA0
:10784C0068B16846FFF7D6FF6A4621460648FEF740
:10785C00E7FE2846FCF72FFC044800F05DF90248CF
:10786C0007B030BD2CE7032030E70320FF770B0077
:10787C007047000038B5044614252A46002100F054
:10788C0063F925804025074925812846258200F08B
:10789C002FF804496060284600F02AF8E060204682
:1078AC0038BD00BFD4860B0030B50E4D2978BFF320
:1078BC005B8F11F0010487B011D12846FCF7F6FB61
:1078CC0068B101A8FFF7D6FF01AA21460648FFF7C9
:1078DC0079FD2846FCF7EFFB044800F01DF902483F
:1078EC0007B030BD44E7032048E703207D780B0048
:1078FC00FCF7CBBB014900F0F9B800BFF0860B00D8
:10790C007FB500241023CDE90234036815469E6927
:10791C0012686B46CDE90044B0479DF8043003F083
:10792C000603062B03BF009B2B600120204604B0EE
:10793C0070BD0098904214BF0120062070470000D3
:10794C0010B5034B0360044600F0CDF8204610BD83
:10795C0030870B0010B50446FFF7F2FF20460821D4
:10796C00FCF795FB204610BD2DE9F0411F46DDE9E3
:10797C000834DDF8188098450646154607D1079956
:10798C0000F0B4F818B165710020BDE8F0813946FB
:10799C00304600F0ABF80028F6D00123C4F8008084
:1079AC002571A371F0E738B515461C4600F09EF81A
:1079BC0020B10823E36006232560237138BD73B51D
:1079CC0005460C4601921E4600F090F850B9032E65
:1079DC0008D82368019A5B692946204602B0BDE8A5
:1079EC007040184702B070BD10B5034B03600446DD
:1079FC00FFF7A6FF204610BD90870B0010B504467C
:107A0C00FFF7F2FF20460C21FCF741FB204610BD8E
:107A1C00F7B5089F974205460E4614460AD0A8684B
:107A2C0002680897156A31462246AC4603B0BDE899
:107A3C00F04060471946019300F058F8019B00286C
:107A4C00EDD0062003B0F0BD2DE9F14F0D461946DF
:107A5C00DDE90A4BDDE90CA681461746984600F095
:107A6C0045F890B1002D3460377109DB61198A45F6
:107A7C000CBF06210121B171002001B0BDE8F08FCF
:107A8C000235F9D10123B371F6E7544506D15946B5
:107A9C00484600F02BF808B17771EDE7D9F80800EB
:107AAC000368CDE90CA6CDE90A4BDC693A4643469E
:107ABC002946A44601B0BDE8F04F60472DE9F041DE
:107ACC0007460C4615461E46FFF76DFF48B9B868C9
:107ADC0003689F692A4633462146BC46BDE8F041FF
:107AEC006047BDE8F081704700207047814208B5BF
:107AFC000ED0406803782A2B0CD049680B782A2BBF
:107B0C0008BF013100F056F8B0FA80F0400908BD0A
:107B1C000120FCE70020FAE7002301461A4618462C
:107B2C0000F004B90A22002100F0F6B80A44914290
:107B3C0000F1FF3300D1704710B511F8014B03F879
:107B4C00014F9142F9D110BD02440346934200D13A
:107B5C00704703F8011BF9E738B5104B1D68AB6B88
:107B6C000446B3B91820FEF7ADFC0246A86320B951
:107B7C000B4B0C484221FEF7CDFC0B490B4BC0E9DB
:107B8C0000130B4B83600B23838100210120C2E97E
:107B9C000401AB6B00221C615A6138BD1CDE032052
:107BAC00C9870B00E0870B000E33CDAB34126DE6AA
:107BBC00ECDE050010F8012B11F8013B012A28BF5F
:107BCC009A42F7D0D01A7047034611F8012B03F8EC
:107BDC00012B002AF9D17047034613F8012B002A18
:107BEC00FBD1181A013870470A7870B56AB970BDA4
:107BFC009A4209D10C46054614F8013F002BF6D0E9
:107C0C0015F8016F9E42F7D001300378002BEFD1AD
:107C1C001846ECE7012B2DE9F04701D0242B06D9AF
:107C2C00FEF770FC162303600020BDE8F087DFF838
:107C3C00E4C00D462E4615F8014B14F80C7017F0E5
:107C4C000807F7D12D2C32D12C780127B51C002B2D
:107C5C005BD0102B09D1302C07D12C7804F0DF0429
:107C6C00582C4DD16C781023023507F1004808F1DF
:107C7C00FF384FF0000CB8FBF3F9664603FB198A8A
:107C8C00A4F1300EBEF1090F16D87446A34224DDC0
:107C9C00BCF1000F1EDBB1451CD301D1A24519DB91
:107CAC0006FB03464FF0010C15F8014BE8E72B2CB3
:107CBC0004BF2C78B51CCAE7A4F1410EBEF1190F14
:107CCC0001D8373CE2E7A4F1610EBEF1190F04D8DC
:107CDC00573CDBE74FF0FF3CE6E7BCF1000F05DA61
:107CEC0022230360464642B930469EE707B17642EE
:107CFC00002AF9D0BCF1000F00D0691E1160F3E727
:107D0C003024002BB1D10823AFE7302CA5D00A23A7
:107D1C00ABE700BF3A880B0013460A4601460248FF
:107D2C000068FFF777BF00BF1CDE03202DE9F84386
:107D3C00DFF8B8800646D8F800001F460D4691467D
:107D4C0000F056F8254B1C6834B9254C1C60254BAB
:107D5C0013B11B68C4F8883063681F2B07DDD8F893
:107D6C00000000F047F84FF0FF30BDE8F8834EB349
:107D7C00D4F8880088B91C4B23B9D8F8000000F05F
:107D8C0038F8F0E74FF48470FEF79CFB0028F4D031
:107D9C000023C0E94033C4F88800636840F823909E
:107DAC0001229A4000EB8301D0F800311343C0F854
:107DBC000031022EC1F8807002BFD0F80431134399
:107DCC00C0F804316368D8F800005A1C02336260B2
:107DDC0044F8235000F00EF80020C6E7E8E7032033
:107DEC005CE7032000000000D1640B0080DE032060
:107DFC0070477047704700001D400B0059400B0046
:107E0C0081400B0085400B000000000043616C6C4E
:107E1C00206F6E2070757265207669727475616C56
:107E2C00002E000A0A006669727374207265616420
:107E3C00206973202569004C6576656C20300A201A
:107E4C0056616C75652025690A00676C75656265FD
:107E5C006E63682E627562626C65617070732E69F8
:107E6C006F002F76657273696F6E2D746573742F46
:107E7C006170692F312E312F77662F6765744D61D4
:107E8C00696E54656D7000474554004170706C69A3
:107E9C00636174696F6E3E09526573706F6E7365C2
:107EAC00207374617475733A20004170706C69634F
:107EBC006174696F6E3E094854545020526573705A
:107ECC006F6E736520426F64793A200048545450A9
:107EDC00206572726F723A200000000000000000F2
:107EEC0000000000C9400B00DD400B002C0100001D
:107EFC0018000000F40100002C01000050000000EC
:107F0C0000000000003E5B4F5B3E3E6B4F6B3E1C27
:107F1C003E7C3E1C183C7E3C181C577D571C1C5E3E
:107F2C007F5E1C00183C1800FFE7C3E7FF00182415
:107F3C001800FFE7DBE7FF30483A060E26297929BF
:107F4C0026407F050507407F05253F5A3CE73C5AF4
:107F5C007F3E1C1C08081C1C3E7F14227F22145FD1
:107F6C005F005F5F06097F017F006689956A60602C
:107F7C0060606094A2FFA29408047E040810207E26
:107F8C00201008082A1C08081C2A08081E101010AB
:107F9C00100C1E0C1E0C30383E3830060E3E0E06F1
:107FAC00000000000000005F000000070007001444
:107FBC007F147F14242A7F2A122313086462364903
:107FCC005620500008070300001C224100004122EB
:107FDC001C002A1C7F1C2A08083E080800807030F0
:107FEC00000808080808000060600020100804025F
:107FFC003E5149453E00427F400072494949462165
:10800C0041494D331814127F1027454545393C4AD8
:10801C0049493141211109073649494936464949EF
:10802C00291E000014000000403400000008142237
:10803C0041141414141400412214080201590906A5
:10804C003E415D594E7C1211127C7F494949363EA6
:10805C00414141227F4141413E7F494949417F098C
:10806C000909013E414151737F0808087F00417F97
:10807C0041002040413F017F081422417F40404095
:10808C00407F021C027F7F0408107F3E4141413E2D
:10809C007F090909063E4151215E7F0919294626AF
:1080AC004949493203017F01033F4040403F1F20B3
:1080BC0040201F3F4038403F63140814630304788A
:1080CC0004036159494D43007F41414102040810AA
:1080DC0020004141417F04020102044040404040E5
:1080EC00000307080020545478407F284444383853
:1080FC0044444428384444287F38545454180008C5
:10810C007E090218A4A49C787F0804047800447D9E
:10811C0040002040403D007F1028440000417F403B
:10812C00007C047804787C0804047838444444388F
:10813C00FC1824241818242418FC7C08040408486F
:10814C005454542404043F44243C4040207C1C20C0
:10815C0040201C3C4030403C44281028444C90901B
:10816C00907C4464544C4400083641000000770075
:10817C0000004136080002010204023C2623263C82
:10818C001EA1A161123A4040207A3854545559210D
:10819C0055557941215454784121555478402054F7
:1081AC005579400C1E527212395555555939545443
:1081BC00545939555454580000457C410002457DB2
:1081CC00420001457C40F0292429F0F0282528F0B4
:1081DC007C545545002054547C547C0A097F493208
:1081EC00494949323248484832324A4848303A4183
:1081FC0041217A3A42402078009DA0A07D39444428
:10820C0044393D4040403D3C24FF2424487E4943B2
:10821C00662B2FFC2F2BFF0929F620C0887E090323
:10822C0020545479410000447D413048484A32384A
:10823C004040227A007A0A0A727D0D19317D262976
:10824C00292F28262929292630484D40203808086E
:10825C00080808080808382F10C8ACBA2F102834A2
:10826C00FA00007B000008142A142222142A140895
:10827C00AA005500AAAA55AA55AA000000FF001092
:10828C001010FF00141414FF001010FF00FF10104A
:10829C00F010F0141414FC001414F700FF0000FF8D
:1082AC0000FF1414F404FC141417101F10101F10EA
:1082BC001F1414141F00101010F0000000001F10E9
:1082CC001010101F10101010F010000000FF1010F4
:1082DC0010101010101010FF10000000FF14000000
:1082EC00FF00FF00001F10170000FC04F41414170B
:1082FC0010171414F404F40000FF00F714141414F1
:10830C00141414F700F7141414171410101F101F62
:10831C00141414F4141010F010F000001F101F00AF
:10832C0000001F14000000FC140000F010F01010EE
:10833C00FF10FF141414FF141010101F0000000085
:10834C00F010FFFFFFFFFFF0F0F0F0F0FFFFFF0079
:10835C0000000000FFFF0F0F0F0F0F38444438448C
:10836C007C2A2A3E147E02020606027E027E0263EC
:10837C00554941633844443C04407E201E2006028B
:10838C007E020299A5E7A5991C2A492A1C4C720168
:10839C00724C304A4D4D303048784830BC625A46A9
:1083AC003D3E494949007E0101017E2A2A2A2A2A9A
:1083BC0044445F444440514A444040444A51400084
:1083CC0000FF0103E080FF000008086B6B08361209
:1083DC00362436060F090F0600001818000000108E
:1083EC0010003040FF0101001F01011E00191D1774
:1083FC0012003C3C3C3C000000000000000000006F
:10840C0000000000000000000000000059510B00AB
:10841C0021690B00A1400B00714E0B00974F0B0014
:10842C00B34F0B002F4F0B00CD4F0B0003500B0025
:10843C001F500B000000000000000000B1540B00A6
:10844C0041550B0059510B0021690B00B5540B0021
:10845C00714E0B003D530B00CD510B002F4F0B00F9
:10846C00CD4F0B0003500B001F500B000000000001
:10847C00000000001D580B0039580B0000000000D4
:10848C00000000004D580B0071580B00204854544C
:10849C00502F312E300D0A00636C6F736500436FE3
:1084AC006E6E656374696F6E00484F535400436F72
:1084BC006E74656E742D4C656E67746800504F5306
:1084CC0054000D0A0D0A000000000000000000001E
:1084DC000000000000000000B7650B00AD650B004C
:1084EC00A3650B0099650B008D650B0081650B0076
:1084FC00FD670B0005680B0075650B006D650B00C7
:10850C0063650B0059650B0035680B00000000001B
:10851C0000000000D5650B001F660B00F7650B0013
:10852C00D7650B00FF650B0007660B000F660B0091
:10853C0017660B000000000000000000A1660B0095
:10854C0091660B0093660B006170700000000000D8
:10855C0000000000BD670B00C7670B00D1670B0064
:10856C00DB670B00E5670B00F1670B00FD670B0089
:10857C0005680B000D680B0019680B0021680B00D7
:10858C002B680B0035680B000008101820283038B9
:10859C00776972696E670072656376206572726FB7
:1085AC0072203D2025640000000000000000000047
:1085BC002D6E0B00516E0B003B730B005F6E0B00AE
:1085CC00316E0B00000000000000000011410B0098
:1085DC0045410B00A96D0B00C36D0B00D1710B0055
:1085EC00ED6D0B0047700B00216E0B00D9700B006A
:1085FC00196F0B0075700B0085720B0015700B005A
:10860C00236E0B00D56D0B00656E0B00F96E0B0025
:10861C0025592D256D2D25645425483A254D3A258F
:10862C0053257A0061736374696D65000000000066
:10863C000000000055730B00C1730B0099730B0005
:10864C0021690B0069730B0085730B0077730B00AA
:10865C0093730B0057730B005B730B00000000004F
:10866C0000000000FF730B0067740B003D740B00DF
:10867C0021690B002F740B0001740B0011740B009B
:10868C0061740B0021740B00F9730B0000000000E7
:10869C000000000067750B005D750B0053750B0037
:1086AC0009750B0047750B003B750B00FD670B0044
:1086BC0005680B002F750B0027750B001D750B0043
:1086CC0013750B0035680B0000537431395F537010
:1086DC005F6D616B655F7368617265645F74616720
:1086EC000000000030870B00D5860B0090870B0034
:1086FC0004870B00B4870B004E31305F5F637878D2
:10870C00616269763131375F5F636C6173735F747B
:10871C007970655F696E666F4500000000000000AF
:10872C00F8860B004D790B0061790B00F57A0B0084
:10873C00F57A0B00CB790B000D790B00B3790B009C
:10874C0075790B003F790B0090870B0060870B004D
:10875C00F8860B004E31305F5F6378786162697622
:10876C003132305F5F73695F636C6173735F74790F
:10877C0070655F696E666F450000000000000000C8
:10878C0054870B00F5790B00097A0B00F57A0B0076
:10879C00F57A0B00CB790B000D790B00C97A0B0025
:1087AC00557A0B001D7A0B0030870B00BC870B0031
:1087BC00537439747970655F696E666F0052454504
:1087CC004E54206D616C6C6F6320737563636565CB
:1087DC00646564002F746D702F6A656E6B696E73BF
:1087EC002D4743432D31302D706970656C696E6572
:1087FC002D34385F32303230313132345F313630F3
:10880C00363138303633392F7372632F6E65776C8F
:10881C0069622F6E65776C69622F6C6962632F7366
:10882C0074646C69622F72616E642E630000202088
:10883C002020202020202028282828282020202004
:10884C0020202020202020202020202020208810C4
:10885C001010101010101010101010101010040424
:10886C00040404040404040410101010101010412B
:10887C00414141414101010101010101010101019C
:10888C000101010101010101011010101010104231
:10889C00424242424202020202020202020202026C
:1088AC00020202020202020202101010102000004A
:1088BC0000000000000000000000000000000000AC
:1088CC00000000000000000000000000000000009C
:1088DC00000000000000000000000000000000008C
:1088EC00000000000000000000000000000000007C
:1088FC00000000000000000000000000000000006C
:10890C00000000000000000000000000000000005B
:10891C00000000000000000000000000000000004B
:10892C00000000000000000000000000000000003B
:10893C00CD480B00614E0B0049650B00C1650B0067
:10894C00AD670B000D690B00496A0B00856D0B00C0
:10895C0041730B0071750B0000000000000000005B
:04896C000000000007
:10897000040000001400000003000000474E5500F2
:108980007A3086406150F496451C90442859573EF1
:0489900067314FB448
:0489940000000000DF
:10899800010B0000000103070F1F3F7F0080C0E0AC
:1089A800F0F8FCFE000000000000000000000000DD
:1089B80000000000000000000000000000000000AF
:1089C800000000000000000000000000000000009F
:1089D800000000000000000000000000000000008F
:1089E80000000080808000000000000000000000FF
:1089F80000000000008080C0C000000000000000EF
:108A0800000000000000000000000000000000005E
:108A1800000000000000000000000000000000004E
:108A2800000000000000000000000000000000003E
:108A3800000000000000000080C0E0F0F8FCF8E052
:108A4800000000000000000000000000000000001E
:108A5800008080808080008080000000008080800E
:108A6800808000FFFFFF0000000080808080000001
:108A78008080000080FFFF808000808000808080F0
:108A8800800080800000000000808000008C8E84C0
:108A9800000080F8F8F880000000000000000000E6
:108AA80000000000F0F0F0F0F0F0F0F0F0F0F0F07E
:108AB800E0E0C08000E0FCFEFFFFFF7FFFFFFFFF5C
:108AC800FF0000000000000000000000000000FEA1
:108AD800FFC70101010183FFFF00007CFEC7010100
:108AE800010183FFFFFF0038FEC78301010183C72F
:108AF800FFFF000001FFFF010100FFFF0701010167
:108B080000007FFF80000000FFFF7F0000FFFFFFE5
:108B1800000001FFFFFF010000000000000000004E
:108B280000000000030F3F7F7FFFFFFFFFFFFFFFF5
:108B3800E7C7C78F8F9FBFFFFFC3C0F0FFFFFFFFCF
:108B4800FFFCFCFCFCFCFCFCFCF8F8F0F0E0C000CE
:108B580001030303030301030300000000010303EF
:108B680003030101030100000001030303030101E2
:108B780003030000000303000000030300000000DB
:108B880000000001030303030301000000010301C7
:108B980000000003030100000000000000000000C6
:108BA8000000000000000080C0E0F0F9FFFFFFFFB8
:108BB800FF3F1F0F87C7F7FFFF1F1F3DFCF8F8F89F
:108BC800F87C7DFFFFFFFFFFFFFFFF7F3F0F0700E0
:108BD800303000000000000000000000000000002D
:108BE8000000000000000000FEFEFC000000000085
:108BF800000000000000000000000000000000006D
:108C080000E0C0000000000000000000000030305C
:108C1800000000000000000000000000000000004C
:108C28000000000000C0FEFFFFFFFFFFFFFFFFFF87
:108C38007F7F3F1F0F071F7FFFFFF8F8FFFFFFFF32
:108C4800FFFEF8E000000001000000000000000046
:108C5800FEFE000000FCFEFC0C06060EFCF8000000
:108C6800F0F81C0E0606060CFFFFFF0000FEFE00D3
:108C7800000000FCFEFC00183C7E66E6CE84000086
:108C880006FFFF0606FCFEFC0C0606060000FEFEBC
:108C98000000C0F8FC4E4646464E7C7840183C76AC
:108CA800E6CECC80000000000000000000000000BC
:108CB800000000000000000001070F1F1F3F3F3F9A
:108CC8003F1F0F030000000000000000000000002C
:108CD8000F0F0000000F0F0F000000000F0F000023
:108CE80003070E0C18180C060F0F0F0000010F0ECB
:108CF8000C180C0F070100040E0C180C0F070000CD
:108D0800000F0F00000F0F0F0000000000000F0FF2
:108D180000000007070C0C181C0C060600040E0CBB
:108D2800180C0F0700000000000000000000000001
:108D3800000000000000000000000000000000002B
:108D4800000000000000000000000000000000001B
:108D5800000000000000000000000000000000000B
:108D680000000000000000000000000000000000FB
:108D780000000000000000000000000000000000EB
:108D880000000000000000000000000000000000DB
:108D980000000000000000000000000000000000CB
:108DA8000000000030860B0020DE032000000000D9
:108DB80000000000000000000000000000000000AB
:108DC800000000000000000000000000000000009B
:108DD800000000000000000000000000000000008B
:108DE800000000000000000000000000000000007B
:108DF800000000000000000000000000000000006B
:108E0800000000000000000000000000ECE7032064
:108E1800FFFFFFFF00000102030405060708090A17
:108E28000B0C0D0E0F101112131415161718191A12
:088E38001B1C1D1E1F20280059
:048E4000785634121A
:04000003B000401CED
:00000001FF
