:02000002B0004C
:1040000000400B0090820B00000006000C0005022F
:084010000401A60F00000000EE
:0440180064740B00C1
:10401C0009480A49884208B505D0094A824202D0AB
:10402C00121A03F05DF90748074A0021121A03F02F
:10403C0065F9014808BD00BFA0E10320E87D0B0035
:10404C0020E6032020E60320EDE7032070B5074EA1
:10405C00074C02F0D9FEA41BA4080025AC4200D1E9
:10406C0070BD56F8043B98470135F7E7987D0B0077
:10407C00C07D0B0000F030B808B500F0B9F8BDE811
:10408C00084002F079BE01F065BE01F063BE01F09C
:10409C0069BE000008B5034A03490C2001F0B6FDC7
:1040AC00FEE700BF79580B0078740B000078B0FA6B
:1040BC0080F0400970470123037070470EB403B5BC
:1040CC0003AB002153F8042B019302F0C0F802B0AB
:1040DC005DF804EB03B0704738B502F0C7FD4FF440
:1040EC00165102F0B3FD002001F0D8FB43F69825E1
:1040FC000446002001F0D2FB001B61F10001A84234
:10410C0071F1000307D202F0B1FD02F0A3FD10B96A
:10411C0001F0B0FDEDE702F0A9FD02F09BFD1D489A
:10412C0000F0D7FB0121102002F0DEFE012111204E
:10413C0002F0DAFE00210F2002F0D6FE0021112041
:10414C0002F0E3FE0021102002F0DFFE012001F05E
:10415C0039FE0121112002F0D8FE012001F032FEBF
:10416C000021112002F0D1FE0121102002F0CDFE21
:10417C00012001F027FE022107483C2201F08EFAB3
:10418C00054801F0A3F9BDE838400021122002F0E7
:10419C00ABBE00BF74E6032050E60320F8B504461E
:1041AC00124817460D461E4600F0E2FD0F4800F07F
:1041BC00C9FBF9B20D480D4F00F0B3FDAC4206DA65
:1041CC00A1B23246384600F069FD0134F6E70748E3
:1041DC0000F0B8FB642001F0F5FD044800F0C8FDC8
:1041EC00024800F0AFFB2846F8BD00BF74E6032080
:1041FC002DE9F041122002F0A1FE9D4D9D4F28604B
:10420C0002F034FD2A689C49FFF758FFB846002697
:10421C003C460021102002F078FE012001F0D2FD76
:10422C000F2002F08BFE012148F8040B102002F045
:10423C006CFE0136012001F0C5FD072EE9D1DFF837
:10424C004C82002602F012FD324657F8043B4146E0
:10425C000136FFF733FF072EF4D1884B2A681B6811
:10426C009A4240F3E4828648022100F042FF012288
:10427C008348082100F030FF8148022100F02FFF15
:10428C007F48012100F030FF2A687B497C487D4D36
:10429C00FFF714FF7A4801F091F9794801F016F90B
:1042AC00774801F08BF901F0F1FA2B68C01AB0F5E0
:1042BC00FA7F40F2C08201F0E9FA236828603F2BB4
:1042CC0006DC4FF47F03322204210020FFF766FF47
:1042DC002368403B602B06D84FF47F035522042102
:1042EC000020FFF75BFF2368A13BEF2B06D84FF4B0
:1042FC007F03642204210020FFF750FF23686FF432
:10430C00C8710B44B3F5167F06D24FF47F03962287
:10431C0004210020FFF742FF23686FF47A721344E4
:10432C0040F2DB52934206D84FF47F03C82204219B
:10433C000020FFF733FF236840F6A562A3F6C513F0
:10434C00934206D84FF47F03DC2204210020FFF7B0
:10435C0025FF2368A3F5C3530B3B42F2156293422E
:10436C0006D84FF47F03FF2204210020FFF716FF2D
:10437C0063683F2B06DC4FF0FF1332220621052029
:10438C00FFF70CFF6368A02B14DC23683F2B0ADCBF
:10439C002368A02B16DD4FF0FF13642206210520A5
:1043AC00FFF7FCFE0AE04FF0FF1355220621052013
:1043BC00FFF7F4FE6368B3F5C87FE9DD6368B3F516
:1043CC007A7F0ADC2368B3F5C87F0BDD4FF0FF134F
:1043DC00962206210520FFF7E1FE626840F6C41321
:1043EC009A420ADC2368B3F57A7F0BDD4FF0FF139A
:1043FC00C82206210520FFF7D1FE626841F66A0348
:10440C009A420BDC226840F6C4139A420ADD4FF044
:10441C00FF13DC2206210520FFF7C0FE6368B3F50D
:10442C007A5F0BDC226841F66A039A4206DD4FF094
:10443C00FF13FF2206210520FFF7B0FEA3683F2BD8
:10444C0005DC114B322208210720FFF7A7FEA368D9
:10445C00A02B23DC23683F2B1ADC2368A02B25DD43
:10446C00094B642208210720FFF798FE1AE000BFD1
:10447C004CE6032098E603208D740B00A0E103208A
:10448C0050E603202CE60320FF0077009C740B0001
:10449C00914B552208210720FFF780FEA368B3F546
:1044AC00C87FDADDA368B3F57A7F09DC2368B3F53E
:1044BC00C87F0ADD884B962208210720FFF76EFE85
:1044CC00A26840F6C4139A4209DC2368B3F57A7FDC
:1044DC000ADD814BC82208210720FFF75FFEA26886
:1044EC0041F66A039A420ADC226840F6C4139A42E7
:1044FC0009DD794BDC2208210720FFF74FFEA3686A
:10450C00B3F57A5F0ADC226841F66A039A4205DD4C
:10451C00714BFF2208210720FFF740FEE3683F2B79
:10452C0005DCFF2332220C210920FFF737FEE3685C
:10453C00A02B12DC23683F2B09DC2368A02B14DD95
:10454C00FF2364220C210920FFF728FE09E0FF233A
:10455C0055220C210920FFF721FEE368B3F5C87F33
:10456C00EBDDE368B3F57A7F09DC2368B3F5C87F2C
:10457C000ADDFF2396220C210920FFF70FFEE268CB
:10458C0040F6C4139A4209DC2368B3F57A7F0ADD3E
:10459C00FF23C8220C210920FFF700FEE26841F638
:1045AC006A039A420ADC226840F6C4139A4209DD77
:1045BC00FF23DC220C210920FFF7F0FDE368B3F5A3
:1045CC007A5F0ADC226841F66A039A4205DDFF2312
:1045DC001A460C210920FFF7E1FD23693F2B06DC6D
:1045EC004FF47F4332220E210D20FFF7D7FD2369B4
:1045FC00A02B14DC23683F2B0ADC2368A02B16DDD0
:10460C004FF47F4364220E210D20FFF7C7FD0AE013
:10461C004FF47F4355220E210D20FFF7BFFD236978
:10462C00B3F5C87FE9DD2369B3F57A7F0ADC23682B
:10463C00B3F5C87F0BDD4FF47F4396220E210D207E
:10464C00FFF7ACFD226940F6C4139A420ADC2368DA
:10465C00B3F57A7F0BDD4FF47F43C8220E210D207A
:10466C00FFF79CFD226941F66A039A420BDC226833
:10467C0040F6C4139A420ADD4FF47F43DC220E212C
:10468C000D20FFF78BFD2369B3F57A5F0BDC2268F5
:10469C0041F66A039A4206DD4FF47F43FF220E2156
:1046AC000D20FFF77BFD63693F2B05DC0F210B4BC6
:1046BC0032220846FFF772FD6369A02B16DC2368D3
:1046CC003F2B0DDC2368A02B18DD0F21034B64223C
:1046DC000846FFF763FD0DE0FF00770000FFFF00C9
:1046EC000F21564B55220846FFF758FD6369B3F569
:1046FC00C87FE7DD6369B3F57A7F09DC2368B3F51E
:10470C00C87F0ADD0F214D4B96220846FFF746FD68
:10471C00626940F6C4139A4209DC2368B3F57A7FC8
:10472C000ADD0F21454BC8220846FFF737FD6269A9
:10473C0041F66A039A420ADC226840F6C4139A4294
:10474C0009DD0F213D4BDC220846FFF727FD63698D
:10475C00B3F57A5F0ADC226841F66A039A4205DDFA
:10476C000F21364BFF220846FFF718FDA3693F2B9C
:10477C0005DC1021324B32220846FFF70FFDA369EE
:10478C00A02B12DC23683F2B09DC2368A02B14DD43
:10479C0010212B4B64220846FFF700FD09E0102185
:1047AC00274B55220846FFF7F9FCA369B3F5C87FE0
:1047BC00EBDDA369B3F57A7F09DC2368B3F5C87F19
:1047CC000ADD10211E4B96220846FFF7E7FCA26972
:1047DC0040F6C4139A4209DC2368B3F57A7F0ADDEC
:1047EC001021174BC8220846FFF7D8FCA26941F6E6
:1047FC006A039A420ADC226840F6C4139A4209DD25
:10480C0010210F4BDC220846FFF7C8FCA369B3F557
:10481C007A5F10DC226841F66A039A420BDD1021A4
:10482C00BDE8F041064BFF220846FFF7B7BC12204B
:10483C0002F084FB2860BDE8F08100BF00FFFF00A0
:10484C000077FF0008B50822022310210C4800F065
:10485C0067F804210B4800F023FE0B4802F034F9F2
:10486C000A490B4801F02EFE0A4B0022C3E9002234
:10487C00A2F580329A60BDE80840022001F0D6B95A
:10488C0074E6032050E6032030E603209B740B00F3
:10489C0088E6032020E6032038B50446C0680D46A0
:1048AC0008B101F05FFAA379062B0CBF042003209A
:1048BC0010FB05F080B2A08001F04CFAE06028B14A
:1048CC00A288002102F01AFD658038BDA0806080AE
:1048DC00FBE710B504460121C07902F005FBE07935
:1048EC00002102F012FB0123237010BD37B50378B1
:1048FC0005460C461BB1C079002102F0F5FA2B7865
:10490C00EC715BB1A0B20121019002F0EDFA0198BB
:10491C00002103B0BDE8304002F0F7BA03B030BD5F
:10492C0070B50025044616468371C0E90355057021
:10493C000572FFF7B1FF20463146FFF7D7FF20463F
:10494C0070BD0000C368002B00F0A4812DE9F04F6E
:10495C008379023BDBB2042B9CBFBF4A52F8234045
:10496C0085B0054688BF322400F088FF2B69C01A39
:10497C00A042F9D3B94CAE88D4F800351BB9D4F8A1
:10498C006035002B7EDBB64CD4F8003523B9D4F857
:10499C006035002BC0F26E81B24CD4F80035002B80
:1049AC0000F04481EB79B04AB04C1268190102EB6B
:1049BC000313575CAE495B78D1F8FC2042F080724F
:1049CC00C1F8FC20226803F01F0343EA47130127B8
:1049DC003A432260A988D5F80C80D4F804909F4003
:1049EC00002944D04FF0000E72464FF0A04118F849
:1049FC0001CB0820802663689B1A462BFBD9626882
:104A0C00D1F808351CEA060F43EA0703C1F808354C
:104A1C002FD063689B1A282BFBD9D1F80C350138A1
:104A2C0043EA07034FEA5606C1F80C35E3D1AB88CD
:104A3C000EF1010E1FFA8EFE7345D8D84FF430716B
:104A4C0003FB01F163689B1A462BFBD96368A3EB4C
:104A5C0009098945C0F0E4804FF4967000F006FF18
:104A6C00A988D5F80C80D4F804900029BAD10A464C
:104A7C00E8E763689B1A112BCFD863689B1A112B3C
:104A8C00F7D9CAE7D4F86435002BBFF67CAFD4F85D
:104A9C006835002BBFF677AFD4F86C35002BBFF61A
:104AAC0072AF3601331D1846009301F053F90028FC
:104ABC003FF478AFAB88002B00F0ED80EA68013B47
:104ACC0012FA83F702F1FF3E002348F2060248F285
:104ADC000D011EF801CF1CF0800F0CBF93468B46C6
:104AEC001CF0400F0CBF16460E461CF0200F0CBFDE
:104AFC009046884603F10109CDF80880019603F130
:104B0C0002081FFA89F9019E20F813B01FFA88F8E1
:104B1C0020F81960029E20F8186003F103081CF0BD
:104B2C00100F1FFA88F80CBF93468B4620F818B06C
:104B3C0003F104081CF0080F1FFA88F80CBF934609
:104B4C008B4620F818B003F105081CF0040F1FFA6F
:104B5C0088F80CBF93468B4620F818B003F1080A6E
:104B6C0003F1060807339BB21CF0020F1FFA88F8FA
:104B7C000CBF93468B46CDF80CA01CF0010F20F80F
:104B8C0018B015BF20F8131020F813201FFA8AF361
:104B9C00BDF80C3077459CD1591C023389B29BB2BD
:104BAC0049005B004FF400474752009AC7522E4B06
:104BBC0056081F6800221423C4F80425C4F80C25D9
:104BCC00C4F80835C4F81425C4F81025C4F8200519
:104BDC00C4F82465C4F82825C4F82C25EB7907EB18
:104BEC00031C1B010121FE5C9CF8013003F01F0328
:104BFC0043EA4613C4F86035C4F80015C4F8102114
:104C0C00A160D4F81031002BFBD000234FF0FF3201
:104C1C00C4F81031C4F80035C4F8602501F0A2F8CE
:104C2C0000F02CFE286105B0BDE8F08FD4F860359B
:104C3C00002BBFF6B7AED4F86435002BBFF6B2AE7E
:104C4C00D4F86835002BBFF6ADAED4F86C35002B1C
:104C5C00BFF6A8AE25E700BFB0740B0000C0014042
:104C6C000010024000200240B4E60320001000E0D7
:104C7C0000ED00E0D4F86435002BBFF68DAED4F80F
:104C8C006835002BBFF688AED4F86C35002BBFF618
:104C9C0083AE06E770470423022183E743888B42E7
:104CAC00F0B52DD9067AC2F30743C2F30724D5B267
:104CBC003EB1734374437543C3F30723C4F3072412
:104CCC002D0A90F806C0C768BCF1060F0CBF04266D
:104CDC0003264E43ACF1020CB919BCF1060F1DD8DA
:104CEC00DFE80CF0041C08040F040400BC554B70E6
:104CFC008D7005E0FE2B28BFFE23BB554D708C70CC
:104D0C00F0BDBB554C708D70037A120E13B9D2B234
:104D1C00CA70F5E75A43C2F30722F9E7BB554C704A
:104D2C00E6E7037A4A1CD2B2934270B51FD0013B1E
:104D3C0013F0FF03C4680CD0FF291FBF110201F14F
:104D4C00FF31B1FBF3F39BB204BF4FF6FF71B1FB24
:104D5C00F3F325468688291B89B28E4206D9297819
:104D6C005943C1F3072105F8011BF3E7027270BD2B
:104D7C008288C068002102F0C1BA000008B500F0BA
:104D8C0095FD014B186008BDB4E603202DE9F04FEA
:104D9C0085B01F46BDF93880BDF83C30A8EB020940
:104DAC00A7EB010AB9F1000FB8BFC9F10009BAF1BC
:104DBC00000FB8BFCAF1000AD14583460C46154610
:104DCC0004DD3A462C4647460D469046BC4205DD6E
:104DDC002A464546904622463C4617463E1BB2B2F2
:104DEC000092A8EB050282EAE271A1EBE271C6F334
:104DFC00C03202FA86F64545B4BF01224FF0FF32AD
:104E0C00019176100292BC421CDCDBF8002003936B
:104E1C00D145D2F81080C7BF294622462A462146E2
:104E2C005846C047019A039BB61AB1B236B2002E4F
:104E3C0005DA029A1544009A56182DB236B201348E
:104E4C0024B2E0E705B0BDE8F08F2DE9F347BDF8DB
:104E5C002C800768BDF92890CDF800800446FF69C6
:104E6C0016468A461D46B8472368CDF8008009F1DE
:104E7C00FF323244DF6951462B46204612B2B84706
:104E8C002368CDF800809F6932464B465146204638
:104E9C00B8476B1E03EB0A012368CDF828809D6987
:104EAC0032464B4609B22046AC4602B0BDE8F0474C
:104EBC00604737B5013B13440468BDF818500195A1
:104ECC001BB2009364690B46A04703B030BD37B5E5
:104EDC00BDF818500468CDE90025013B0B4464690A
:104EEC001BB2A04703B030BD2DE9F347BDF92890A4
:104EFC00BDF82C80054692460C46CE18B4420BDA0F
:104F0C002B68CDF800809F6921464B4652462846B7
:104F1C000134B84724B2F1E702B0BDE8F08713B50D
:104F2C0002680191B0F90E100091546AB0F90C307E
:104F3C0000221146A04702B010BD704730B5428127
:104F4C00C2814FF0FF320024054D426101224460C2
:104F5C0005600181818104610283827630BD00BFCE
:104F6C00C8790B002DE9F04F2DED028B8DB0074663
:104F7C000491BDF860100591BDF864100691B0F96C
:104F8C000C1004989DF86850814252DDB7F90E1050
:104F9C0091424EDD062111FB0504002C49DD02EB8C
:104FAC00C504002C45DD03EB83030B9393B20793ED
:104FBC0008339BB2089100240993052C1CBF2C4B81
:104FCC000B9A079E16BF1B1900239B5C0393049A34
:104FDC00ABB20A9304FB05F313FA82F31BB204EB96
:104FEC00020A08EE103AB0460FFA85F90FFA8AFA5F
:104FFC00039BDB072FD5012D3B681FD1D3F810B0D5
:10500C00059B32B251463846D847039B5B08039345
:10501C000A9B01369844099BB6B2B3421FFA88F832
:10502C00E6D1089B013B013413F0FF0364B20893F3
:10503C00C3D10DB0BDEC028BBDE8F08F059ACDE964
:10504C00009218EE101AD3F824B00FFA88F24B46DF
:10505C003846D847D9E7DDE905239342D5D0012D51
:10506C003B6803D1D3F810B0069BCAE7069AE6E773
:10507C00C4740B0030B50A2985B0044607D1027EF2
:10508C00638A03EBC20363820023238221E00D2990
:10509C001FD0037E0293C38A0193838A0093B0F9D5
:1050AC0012200B46B0F91010FFF75CFF207E238A0C
:1050BC0000EB400103EB4103A17E1BB202462382AD
:1050CC0039B1B4F90C106FF0050505FB00118B42DA
:1050DC00D6DC012005B030BD018242827047012927
:1050EC0038BF012101767047C18281827047407EB2
:1050FC00704701F00303B0F90A204376C907B0F9F1
:10510C00083059BF8381C2818281C3817047B0F955
:10511C000C007047B0F90E0070470000F0B5457EEA
:10512C00BDF81440022D69D0032D00F09980012D9B
:10513C006CD10589D2432A4412B2002A5DDBB0F946
:10514C000850954259DD0029BEBF5B181BB20021E7
:10515C00B0F90A00CD188542C4BF431A1BB2002B0C
:10516C004BDDC1F3C400DFF820C102EBC01211F01B
:10517C000701DBB20CEB02001AD0C1F10805404E5E
:10518C00EDB2AB42775D3FBFA5EB030EFF2646FAAF
:10519C000EF637401CF80260012C0CBF3E43BE4398
:1051AC00AB420CF8026028D308390B44DBB28030D8
:1051BC00072B19D9012C4FF0FF3518BF0025EDB284
:1051CC0000F180011A46083AD2B2072A01F8805C35
:1051DC0001F18001F7D8A3F10802C2F3C402013235
:1051EC0000EBC21003F007033BB1264AD25C0378F4
:1051FC00012C0CBF134393430370F0BD4589D2437C
:10520C002A44CD180189491B12B209B2002AF4DBD9
:10521C00B0F90A509542F0DD0029BEBF5B181BB2F5
:10522C000021B0F90870CE18BE42C4BF6B1A1BB275
:10523C00002BE2DDD010802510FB05111248014433
:10524C0002F0070001228240012CD2B20B440CD197
:10525C008B42D2D011F8010B104301F8010CF7E787
:10526C00CD184189491B09B267E7D243D2B28B42B0
:10527C00C3D011F8010B104001F8010CF7E700BF87
:10528C00ACE10320A4E10320B4E10320F0B5457E9A
:10529C00BDF81440022D34D0032D00F09B80012D5D
:1052AC0037D1D5180289521B12B20029C0F2918055
:1052BC00B0F90A508D4240F38C80002ABEBF9B1877
:1052CC001BB20022B0F90870D618BE42C4BFAB1A8C
:1052DC001BB2002B7DDDC810802510FB0522454834
:1052EC00024401F0070001218140012CC9B2134492
:1052FC0075D19A426DD012F8010B084302F8010CDB
:10530C00F7E70589C9432944D5184289521B09B2CC
:10531C0012B200295DDBB0F908508D4259DD002A2C
:10532C00BEBF9B181BB20022B0F90A00D5188542EB
:10533C00C4BF831A1BB2002B4BDDC2F3C400DFF8D1
:10534C00B4C001EBC01112F00702DBB20CEB010090
:10535C001AD0C2F10805284EEDB2AB42775D3FBFC3
:10536C00A5EB030EFF2646FA0EF637401CF801603B
:10537C00012C0CBF3E43BE43AB420CF8016028D35A
:10538C00083A1344DBB28030072B19D9012C4FF0AB
:10539C00FF3518BF0025EDB200F180011A46083A1E
:1053AC00D2B2072A01F8805C01F18001F7D8A3F191
:1053BC000802C2F3C402013200EBC21003F007036F
:1053CC003BB10E4AD25C0378012C0CBF13439343C0
:1053DC000370F0BD4589C943294409B265E7C94347
:1053EC00C9B29A42F5D012F8010B084002F8010C30
:1053FC00F7E700BFB4E10320ACE10320A4E10320F4
:10540C0070470000F8B50D1E064614461F462DDBEE
:10541C00FFF77DFEA84229DD002C27DB3046FFF785
:10542C0079FEA04222DD3046FFF761FE02281ED035
:10543C00032825D0012804D13389E2431A442C4691
:10544C0015B2002C2246B8BFE21DD210802112FBEF
:10545C0001550E49012204F007044B5702FA04F4DB
:10546C0064B297420CBF2343A3434B55F8BD31891B
:10547C0072890139E4434D1B14442DB224B2E0E788
:10548C007389013B5B1B25461CB2DAE7B4E10320B0
:10549C0010B524210446FEF7FAFD204610BD00008D
:1054AC0038B5402204460D468021FFF747FD064BD8
:1054BC002360FF2384F8213063774FF6FF73E38377
:1054CC0084F82050204638BD007A0B0002484FF477
:1054DC008062002101F012BFB4E1032013B50B4C24
:1054EC002178BFF35B8F11F001010BD120460191A4
:1054FC00FEF7DCFD019928B1054800F0E5FE2046D9
:10550C00FEF7D9FD024802B010BD00BFB8E603207B
:10551C00BCE6032007B590F8223043B10191FFF7A8
:10552C00DDFF019903B05DF804EB00F081BF0B4681
:10553C00817F407F012203B05DF804EB01F015BDC3
:10554C0038B590F91D30013304460D461DD090F945
:10555C002100012180B201F0D8FC94F91F00002138
:10556C0080B201F0D2FC94F92100002180B201F04C
:10557C00CCFC29462046FFF7CDFF94F921000121F0
:10558C00BDE8384080B201F0C0BC01F02BFD94F9AD
:10559C001B1000F0B5FC01F025FD036800219B6891
:1055AC00984701F01FFD036829469B68984701F056
:1055BC0019FDBDE8384000F0AABC0000F8B5212167
:1055CC000446FFF7BDFF00212046FFF7B9FF7F21FE
:1055DC002046FFF7B5FF22212046FFF7B1FF00213F
:1055EC002046FFF7ADFF07212046FFF7A9FF94F9EE
:1055FC001D30294F01332AD094F92100012180B2AA
:10560C0001F083FC94F91F00012180B201F07DFCB4
:10561C0094F92100002180B201F077FC012000F008
:10562C0025F94FF48065013D17F8011B2046ADB2FA
:10563C00FFF770FF002DF6D1012000F017F994F957
:10564C0021000121BDE8F84080B201F05EBC0025CC
:10565C0001F0C8FC94F91B1000F052FC01F0C2FCE4
:10566C00036840219B68984705F11006B6B201F01B
:10567C00B9FC0368795D9B6898476B1C9DB2AE4280
:10568C00F5D101F0AFFC00F042FCB6F5806F00D113
:10569C00F8BD3546DCE700BFB4E1032038B590F91E
:1056AC001D300177013304460D46C27600F0C980E7
:1056BC0090F91F00012180B201F016FC94F9210031
:1056CC00012180B201F010FC94F82230002B00F084
:1056DC00A68094F92100012180B201F016FCFFF79D
:1056EC00FDFE012100F00EFEFFF7F8FE102100F088
:1056FC0079FEFFF7F3FE002100F018FEFFF7EEFE37
:10570C0000F0ECFD94F92000012180B201F0ECFBDB
:10571C0094F92000012180B201F0F7FB012000F088
:10572C0051FB94F92000002180B201F0EEFB0A201D
:10573C0000F048FB94F92000012180B201F0E5FB58
:10574C002046AE21FFF7FCFE2046D521FFF7F8FEE0
:10575C0020468021FFF7F4FE2046A821FFF7F0FE3B
:10576C0020463F21FFF7ECFE2046D321FFF7E8FE51
:10577C0020460021FFF7E4FE20464021FFF7E0FE23
:10578C008D212046FFF7DCFE012D0CBF10211421CA
:10579C002046FFF7D5FE20462021FFF7D1FE2046FC
:1057AC000021FFF7CDFE2046A121FFF7C9FE2046C0
:1057BC00C821FFF7C5FE2046DA21FFF7C1FE2046BF
:1057CC001221FFF7BDFE81212046FFF7B9FE012D06
:1057DC000CBF9F21CF212046FFF7B2FED9212046D6
:1057EC00FFF7AEFE012D0CBF2221F1212046FFF761
:1057FC00A7FE2046DB21FFF7A3FE20464021FFF742
:10580C009FFE2046A421FFF79BFE2046A621FFF712
:10581C0097FE2046AF21BDE83840FFF791BE94F9C2
:10582C001D00012180B201F05FFB94F91E000121E3
:10583C0080B201F059FB94F82230002B3FF462AF98
:10584C0047E701F0CFFB00F051FB5BE708B5024BDB
:10585C001B685B6C019308BD4802030008B5024B42
:10586C001B685B68019308BD1802030008B5024B66
:10587C001B68DB68019308BD1802030008B5024BD6
:10588C001B681B69019308BD1802030008B5024B85
:10589C001B685B69019308BD1802030008B5024B35
:1058AC001B68DB6D019308BD1802030008B5024BA1
:1058BC001B681B68019308BD2C02030008B5024B42
:1058CC001B685B68019308BD2C02030008B5024BF2
:1058DC001B689B68019308BD2C02030008B5024BA2
:1058EC001B68DB68019308BD2C02030008B5024B52
:1058FC001B681B69019308BD2C02030008B5024B01
:10590C001B681B6B019308BD2C02030008B5024BEE
:10591C001B68DB68019308BD2802030008B5024B25
:10592C001B689B69019308BD2802030008B5024B54
:10593C001B68DB69019308BD2802030008B5024B04
:10594C001B681B6A019308BD2802030008B5024BB3
:10595C001B685B6A019308BD2802030008B5024B63
:10596C001B689B6A019308BD2802030008B5024B13
:10597C001B68DB6A019308BD2802030008B5024BC3
:10598C001B681B6B019308BD2802030008B5024B72
:10599C001B685B6B019308BD2802030008B5024B22
:1059AC001B681B6C019308BD2802030008B5024B51
:1059BC001B685B69019308BD6C02030008B5024BC0
:1059CC001B685B69019308BD6402030008B5024BB8
:1059DC001B681B6A019308BD6402030008B5024BE7
:1059EC001B689B6A019308BD6402030008B5024B57
:1059FC001B689B68019308BD6802030008B5024B45
:105A0C001B68DB68019308BD6802030008B5024BF4
:105A1C001B689B69019308BD3802030008B5024B53
:105A2C001B68DB69019308BD3802030008B5024B03
:105A3C001B681B6A019308BD3802030008B5024BB2
:105A4C001B689B6A019308BD3802030008B5024B22
:105A5C001B681B6B019308BD3802030008B5024B91
:105A6C001B689B6B019308BD3802030008B5024B01
:105A7C001B681B68019308BD3002030008B5024B7C
:105A8C001B689B68019308BD3002030008B5024BEC
:105A9C001B68DB68019308BD3002030008B5024B9C
:105AAC001B681B69019308BD3002030008B5024B4B
:105ABC001B685B69019308BD3002030008B5024BFB
:105ACC001B68DB69019308BD3002030008B5024B6B
:105ADC001B681B6A019308BD3002030008B5024B1A
:105AEC001B685B6A019308BD3002030008B5024BCA
:105AFC001B681B6C019308BD3002030008B5024BF8
:105B0C001B685B6C019308BD3002030008B5024BA7
:105B1C001B68DB68019308BD3C02030008B5024B0F
:105B2C001B681B69019308BD3C02030008B5024BBE
:105B3C001B685B69019308BD3C02030008B5024B6E
:105B4C001B689B69019308BD3C02030008B5024B1E
:105B5C001B68DB69019308BD3C02030008B5024BCE
:105B6C001B681B6A019308BD3C02030008B5024B7D
:105B7C001B689B6A019308BD3C02030008B5024BED
:105B8C001B681B6C019308BD3C02030008B5024B5B
:105B9C001B681B68019308BD4C02030008B5024B3F
:105BAC001B685B68019308BD4C02030008B5024BEF
:105BBC001B681B69019308BD4C02030008B5024B1E
:105BCC001B685B69019308BD4C02030008B5024BCE
:105BDC001B689B69019308BD4C02030008B5024B7E
:105BEC001B68DB69019308BD4C02030008B5024B2E
:105BFC001B681B6A019308BD4C02030008B5024BDD
:105C0C001B689B6A019308BD4C02030008B5024B4C
:105C1C001B685B6B019308BD6002030008B5024B67
:105C2C001B681B6D019308BD6002030008B5024B95
:105C3C001B685B68019308BD2002030008B5024B8A
:105C4C001B685B69019308BD2002030008B5034B78
:105C5C001B68D3F88830019308BD000020020300B4
:105C6C0008B5034B1B68D3F89430019308BD0000B2
:105C7C002002030008B5024B1B689B68019308BD0A
:105C8C004402030008B5024B1B68DB6B019308BD93
:105C9C004402030008B5024B1B685B68019308BD06
:105CAC004002030008B5024B1B689B68019308BDBA
:105CBC004002030008B5024B1B68DB68019308BD6A
:105CCC004002030008B5024B1B681B69019308BD19
:105CDC004002030008B5024B1B685B69019308BDC9
:105CEC004002030008B5024B1B689B69019308BD79
:105CFC004002030008B5024B1B68DB69019308BD29
:105D0C004002030008B5024B1B681B6A019308BDD7
:105D1C004002030008B5024B1B681B6B019308BDC6
:105D2C004002030008B5024B1B685B6B019308BD76
:105D3C004002030008B5024B1B681B6C019308BDA5
:105D4C004002030008B5024B1B685B6C019308BD55
:105D5C004002030008B5024B1B681B68019308BD89
:105D6C001C02030008B5024B1B685B68019308BD5D
:105D7C001C02030008B5024B1B689B68019308BD0D
:105D8C001C02030008B5024B1B685B6A019308BD3B
:105D9C001C02030008B5024B1B68DB6B019308BDAA
:105DAC001C02030008B5024B1B681B6C019308BD59
:105DBC001C02030008B5024B1B685B6C019308BD09
:105DCC001C0203000021FFF739BF0000024800232A
:105DDC000360FFF73BBD00BFC4E603200022406810
:105DEC001146FFF78FBF002240681146FFF79ABF9C
:105DFC0040680022FFF78EBF4068002281F001014D
:105E0C00FFF778BF002340681A461946FFF76ABFB0
:105E1C00002340681A461946FFF75CBF0022406811
:105E2C001146FFF74FBF002240681146FFF73ABFFB
:105E3C00406800220221FFF73DBF002340681A464C
:105E4C00FFF728BF024B03225A60024A1A607047C0
:105E5C00C8E60320407A0B007047F8B50646154695
:105E6C000C468F18BC4206D0336814F8011B9B6893
:105E7C0030469847F6E72846F8BD007C0022FFF72D
:105E8C005DBD007C0021FFF761BD007C0021FFF7A8
:105E9C0065BD007C0021FFF769BD007C0021FFF788
:105EAC006DBD10B514210446FEF7F1F8204610BD67
:105EBC0038B5044615464FF47A730022C4E9012321
:105ECC00094B2174084623602946FFF767FDBF3054
:105EDC0008D16B69DB0705D56868FFF743FFE868F5
:105EEC00FFF740FF204638BD7C7A0B000023007C76
:105EFC001A461946FFF70ABD007C0022FFF70EBDBB
:105F0C00C9B2FFF7F9BF007C0022FFF70FBD0121DA
:105F1C00FFF7F9BF704710B518210446FEF7B7F824
:105F2C00204610BDF0B5037D062B8DB00E4600F15A
:105F3C0004074FF0000412D000F1080515F8011DFC
:105F4C000A22304600F065F9AF42044419D0002C07
:105F5C00F4D02E21304600F04DF90444EEE72F2307
:105F6C006A4639460A208DF80040FFF727FD68463F
:105F7C0001F004FA33680246DB68694630469847FC
:105F8C00044620460DB0F0BD10B5054B0446112259
:105F9C0040F8043B002101F0B1F9204610BD00BFD0
:105FAC00A47A0B000346074A10B543F8042B01F101
:105FBC00100251F8044B43F8044B9142F9D10A7882
:105FCC001A7010BDA47A0B00037D042B04D1406819
:105FDC00003818BF01207047062B07D143683BB926
:105FEC0083682BB9C3681BB90069F1E700207047BF
:105FFC000120704710B59DF8084044EA032343EA9A
:10600C00024242EA016104234160037510BD0000A5
:10601C0007B5064B0360CB7800938B784A780978E8
:10602C00FFF7E8FF03B05DF804FB00BFA47A0B0098
:10603C00014B024A1A607047D0E60320B07A0B007D
:10604C00002340681A46FFF725BE40680022022153
:10605C00FFF730BE002240681146FFF723BE002236
:10606C0040681146FFF72EBE002340681A461946B9
:10607C00FFF730BE002340681A461946FFF732BEC0
:10608C0040680021FFF756BE40680021FFF75ABE5A
:10609C004068002281F00101FFF72CBE406800220D
:1060AC00FFF738BE002240681146FFF73BBE0022C6
:1060BC0040681146FFF726BE2DE9F04395B0144613
:1060CC000D460746FFF760FF00211C220DA800912A
:1060DC0001F014F940230C9320466B460CAA0021C6
:1060EC00FFF78CFC044600284BD10246012168685E
:1060FC00FFF7E8FD0221804622466868FFF7E2FDC3
:10610C00009E81462146002E3BD0002939D1736870
:10611C00022B03D00A2B11D0F669F4E7B8F1000F6B
:10612C00FAD0716906A8043107ADFFF771FF0FCDE6
:10613C003C1D0FC42B6823704146EDE7B9F1000FED
:10614C00EAD07469102201A801F0D8F806238DF862
:10615C00143001AD04F108031834186859682A4644
:10616C0003C20833A3421546F7D101A906A807AD0F
:10617C00FFF718FF0FCD3C1D0FC42B682370494649
:10618C00CAE70098FFF732FC384615B0BDE8F0833B
:10619C00024B034A1A6000225A607047D4E603206F
:1061AC00BC7A0B00F8B506460D468F180024BD428C
:1061BC000CD0336815F8011B9B6830469847031EBA
:1061CC0001DB1C44F3E7002C08BF1C462046F8BD3D
:1061DC0013B50446084659B1019101F0CFF8236874
:1061EC000199DB680246204602B0BDE81040184712
:1061FC0002B010BD03689B68184738B50D210546E1
:10620C00FFF7F8FF0A2104462846FFF7F3FF204466
:10621C0038BD30B58BB00023012A8DF8243098BFDF
:10622C000A2209AC0D46B1FBF2F101FB125303F04B
:10623C00FF03092B94BF30333733DBB2AA4204F887
:10624C00013DEFD92146FFF7C3FF0BB030BD2DE95F
:10625C00F04186B000AF05460E46381D1421144699
:10626C003B60FFF78FFD13280ED8391D2846FFF72A
:10627C00AFFF04461EB12846FFF7BFFF044420467B
:10628C001837BD46BDE8F08100F1080323F0070381
:10629C00E846ADEB030D2246411C3B686846FFF710
:1062AC0071FD69462846FFF793FF0446C546E1E7B2
:1062BC00014B00229A607047DCE603200021FFF7B7
:1062CC001DBC0021FFF712BC10B504460846217016
:1062DC00FFF7F4FB00236360204610BD13B50446A2
:1062EC000078FFF7EEFF58B9207801904FF6FF7158
:1062FC00FFF7BCFB019802B0BDE81040FFF7DEBF12
:10630C0002B010BD13B5044600780191FFF7D9FF18
:10631C00019948B920780190FFF7B0FB019802B0C1
:10632C00BDE81040FFF7CABF02B010BD13B504465C
:10633C0000780191FFF7C5FF019948B920780190C9
:10634C00FFF7A4FB019802B0BDE81040FFF7B6BF01
:10635C0002B010BD400830B518600024186888429F
:10636C00E5B206D90134082C02D040081860F5E7D4
:10637C000725024B5B5D137030BD00BFF07A0B003C
:10638C002DE9F04188B000230446007802930E46B4
:10639C001746FFF796FF054600BB94F800800146B0
:1063AC00142203A800F0AAFF0B232A4603A9404697
:1063BC00ADF80C30FFF792FB04988DF8075002AB48
:1063CC000DF1070207FB06F1FFF7C4FF20789DF8DB
:1063DC000710FFF763FB2078FFF770FF029808B0F7
:1063EC00BDE8F08138B5044600780D46FFF769FF2B
:1063FC000346D0B9616899B10C4A12F8010B854279
:10640C0002D00133082BF8D10133DBB20122D94081
:10641C002046FFF7B5FF2078BDE83840FFF74EBFA8
:10642C0020782946FFF73AFBF5E738BDF07A0B00E8
:10643C0008B50078FFF73AFBC0B208BD10B50446AA
:10644C00006808B1FFF78EFC0023C4E90133236018
:10645C0010BD38B504460D4600680131FFF78AFCC3
:10646C0010B1C4E90005012038BD10B5036804461D
:10647C0023B143688B4201D3012010BD2046FFF7A6
:10648C00E8FF0028F9D0A368002BF5D1226813701F
:10649C00F2E737B50D46114601920446FFF7E5FFCA
:1064AC00019A28B92046FFF7C9FF204603B030BD3A
:1064BC00A2602946206800F013FF2268A36800211F
:1064CC00D154F2E7002313B5C0E9003304468360CE
:1064DC00037341B10846019100F050FF0199024647
:1064EC002046FFF7D6FF204602B010BD054B022216
:1064FC001A60054B054A9A600020C3E90000FFF7BB
:10650C0095BB00BFF8E60320ECE603200000FFFF7C
:10651C0013B503688DF80710DC6B01224FF0FF33C5
:10652C000DF10701A04702B010BD10B40368DC6B7D
:10653C004FF0FF33A4465DF8044B604713B5134688
:10654C0002688DF80710D46B0DF107010122A047EA
:10655C0002B010BD10B54369B3F88620B3F884308F
:10656C009A42044608D06369B3F88420511CA3F8FE
:10657C0084101344187910BD03681B6998470028D0
:10658C00F1D14FF0FF30F6E7704743691868C0430C
:10659C00C00F704770470000064B994210B500F1D0
:1065AC000C0405D0084600F083FD002808BF002429
:1065BC00204610BD307A0B0010B5AC210446FDF717
:1065CC0066FD204610BDAC21FDF761BD2DE9F04103
:1065DC004FF0000886B01C46C0F8048005460E46F5
:1065EC0017464146102202A800F088FE631C09D011
:1065FC004FF47A73B4FBF3F203FB1244CDE9022897
:10660C005C430494686910230093006802AB41F268
:10661C00050240F6FF71FFF7F9F9002807DAFFF7DA
:10662C00B9FB03686B60002006B0BDE8F0816869B7
:10663C00002300683A463146FFF708FA031EEEDBEA
:10664C001846F1E738B584690A4B036005467CB1FE
:10665C006368013B63605BB9236820469B6898477D
:10666C00A368013BA3601BB923682046DB689847ED
:10667C00284638BD347B0B0010B50446FFF7E2FF0B
:10668C0020461C21FDF703FD204610BD30B587B018
:10669C00044601AD6846FFF7BBFC0FCD04340FC4B4
:1066AC002B68237007B030BD70B54D69054B04469F
:1066BC008C3544F8043B06460FCD0FC42B68237071
:1066CC00304670BDA47A0B002DE9F0439846036860
:1066DC0093B00D460024DB6A0646174698472846B9
:1066EC006B46224621460094FFF788F905460028A0
:1066FC0063D1009B002B4BD05B69002B48D006A8C4
:10670C00FFF742FC009B5C696378022B04D1211DCE
:10671C0006A8FFF7BBFF26E00A2B24D1112229463D
:10672C0001A800F0EBFDA368002B38D004F108039E
:10673C000DF1040C183418685968624603C208330A
:10674C00A3429446F7D1062301A90CA88DF8143066
:10675C00FFF728FC0DF1340CBCE80F0007AC0FC49C
:10676C00DCF80030237006A8FFF72EFC80B13368EC
:10677C0007ADD3F82090124B0C930FCD0DAC0FC47A
:10678C002B6823703A4643460CA93046C847054649
:10679C000098FFF72BF9284613B0BDE8F083E368A7
:1067AC00002BC3D14FF6FF70D4F81090FFF70EF901
:1067BC008145BBD104F11401AAE72546E8E700BFE7
:1067CC00A47A0B0038B543691A68002A054610DA1A
:1067DC00B3F88620B3F884309A420AD103681B6957
:1067EC009847044628B92B682846DB6A9847204608
:1067FC0038BD0120FCE710B54369B3F88620B3F827
:10680C0084309A42044605D06369B3F8842013445B
:10681C00187910BD03681B6998470028F4D14FF014
:10682C00FF30F6E7F8B543691746B3F88620B3F89E
:10683C0084309A4205460E4616D06969B1F8843008
:10684C00B1F88640E41ABC4228BF3C4604332246C9
:10685C001944304600F044FD6A69B2F88430234490
:10686C00A2F884302046F8BD03681B6998470028BD
:10687C00E3D14FF0FF34F5E742690023A2F88430EE
:10688C004269A2F8863070472DE9F0411F46036833
:10689C000C46DB6A8AB0054616469847237DD5F828
:1068AC001480042B0CBF02200A2006220121FFF7C2
:1068BC00D5F8C8F800006B691B68002B08DA2B6848
:1068CC002846DB6A0024984720460AB0BDE8F081D0
:1068DC002846FFF7D1FFB7B1002303A9F8B2039301
:1068EC00ADF81030FFF762F80028E8D1686906238C
:1068FC000093006803AB41F20B0240F6FF71FFF707
:10690C0085F80028DBD11C22002103A800F0F6FC3E
:10691C00237D042B1DD14FF407733046ADF80C309A
:10692C00FFF75CF8ADF80E006068FFF74FF80490C5
:10693C006B691C22186803A9FFF778F80028BED1F0
:10694C0004340FCC6D698C350FC523682B70012472
:10695C00BAE740F61C233046ADF80C30FFF73EF892
:10696C0005AEADF80E00231D04F114071868596824
:10697C00324603C20833BB421646F7D1D8E70000B3
:10698C0030B54269B2F886308BB004462BB1B2F800
:10699C0084209A4201D1FFF76FFF616908680028D3
:1069AC0018DBB1F886507F2D14D804310823C5F1BB
:1069BC0080022944FFF742F8002813DD6369B3F81D
:1069CC0086200AB9A3F884206369B3F886201044A2
:1069DC00A3F886006369B3F88600B3F88430C01A54
:1069EC000BB030BDFFF7D6F903680B2BF2D0FFF7D5
:1069FC00D1F903680B2BEDD020230025CDE902350E
:106A0C00FFF7C8F903680193084B0949009302AAE0
:106A1C002B463220FFF702F963691868FEF7FEFF78
:106A2C0063694FF0FF321A60D4E700BFFF7A0B00A6
:106A3C00F87A0B0010B5436904461868002801DB8E
:106A4C00FEF7ECFF63694FF0FF321A6060691122A8
:106A5C0000218C3000F052FC2046BDE81040FFF7BE
:106A6C000BBF10B5002304460160C0F88430883099
:106A7C00FFF78AFA204610BD73B500234FF47A72E3
:106A8C00C0E901320E4A0361026043610446AC2046
:106A9C000191FDF7F8FA051E05F10C0608D001234B
:106AAC00C5E90133074B01992B603046FFF7D9FF3D
:106ABC002046C4E90565FFF7DFFE02B070BD00BFDC
:106ACC00347B0B00187B0B0010B54FF0FF310446E4
:106ADC00FFF7D2FF204610BD10B504460068002811
:106AEC0001DBFEF79BFF204610BD0C30FFF7F4BF17
:106AFC00024B1A68024B1A60704700BFB4E50320C2
:106B0C00FCE6032070474174704708B5007CFFF722
:106B1C002DF820EAE07008BD08B5007CFEF7FEFFFA
:106B2C0020EAE07008BD08B5007CFFF707F840EAE2
:106B3C00E07008BD08B5007CFEF7F8FF40EAE07095
:106B4C0008BD007CFFF702B837B5457C04462DB173
:106B5C00207C03B0BDE83040FEF7D8BF007C01912B
:106B6C00FFF704F800280199F2DC284603B030BD89
:106B7C0010B514210446FDF78AFA204610BD00001A
:106B8C0010B54FF47A730446084611460022C4E946
:106B9C000123044B2360012320746374FEF7EEFF82
:106BAC00204610BD9C7B0B004174704770477047AA
:106BBC0008B50021007CFFF709F840EAE07008BD39
:106BCC0008B50121007CFFF701F840EAE07008BD30
:106BDC0008B5007CFEF7F2FF20EAE07008BD08B5AE
:106BEC00007CFEF7E3FF20EAE07008BD13B5044615
:106BFC00007C0191FEF7E2FF0028019901DC607C2A
:106C0C0020B1207CFEF7EAFF20EAE07002B010BD54
:106C1C00007CFEF7EBBF10B514210446FDF737FAE4
:106C2C00204610BD10B54FF47A7304460846002177
:106C3C00C4E90113044B23600123207463741146CF
:106C4C00FEF7A4FF204610BDCC7B0B00007C00227D
:106C5C00FEF7A4BF007CFEF7D1BF10B5142204468A
:106C6C00002100F04BFB204610BD000010B50F4C6E
:106C7C0088B003A8FFF7F1FF2178BFF35B8F11F009
:106C8C0001010FD120460191FDF710FA019948B18D
:106C9C0003AA0748FFF7C6FF2046FDF70CFA054884
:106CAC0000F018FB024808B010BD00BF00E703203D
:106CBC0004E70320B96B0B00002240681146FFF774
:106CCC0001B8002240681146FFF71CB8002240684A
:106CDC001146FFF727B840680022FFF71BB8406841
:106CEC00002281F00101FFF705B8002340681A4625
:106CFC001946FEF7F7BF002340681A461946FEF7FF
:106D0C00E9BF002240681146FEF7CCBF4068002264
:106D1C000221FEF7CFBF002340681A46FEF7BABF28
:106D2C00024B04225A60024A1A60704718E703208B
:106D3C00FC7B0B00014B1860704700BFB8E50320CB
:106D4C0008B50B4B43B1FFF791FF03681B699847DC
:106D5C00002801DDAFF30080064B43B100F082F94F
:106D6C0003681B699847002801DDAFF3008008BD5C
:106D7C00000000000000000008B5FFF7E1FFFEF77F
:106D8C0085FD014B186008BD28E703200548064A1D
:106D9C00064908B5121A00F0A3FA054B054A1A6009
:106DAC0008BD00BF00F4032004F40320E47D0B00B5
:106DBC0000F403201E1C279A07B5002300931A46E3
:106DCC006FF07701FEF74CFF03B05DF804FB000099
:106DDC0007B543880A2B08D0502B0BD1094B1B68E5
:106DEC004BB103B05DF804EB1847FFF7E5FF03B0B8
:106DFC005DF804FB002300931A466FF07701FEF751
:106E0C002FFFF4E724E7032010B512480021FEF70A
:106E1C00D1FF114B1A68114B9A42114B0CBF012236
:106E2C0000221A7001D0FFF7B1FFFEF717FD0446E0
:106E3C0000F06CFA0B4B13B12046AFF3008000212D
:106E4C000848FEF71FFFBDE8104007480021FEF779
:106E5C00FDBE00BF416D0B0000F403201E1C279AE1
:106E6C0020E7032000000000DD6D0B00232813B584
:106E7C0002D9002002B010BDA0F10B03022B1AD8CE
:106E8C00174C2178BFF35B8F11F001010BD1204619
:106E9C000191FDF70BF9019928B11248FFF714FA8B
:106EAC002046FDF708F90F4B1878FEF70FFE002867
:106EBC00DFD10120DEE7012809D800F093F800218A
:106ECC00007CFEF763FD80F00100C0B2D2E7093808
:106EDC000128EED800F0C6F8007CFEF73FFEF2E782
:106EEC00B8E60320BCE60320232838B504460D463B
:106EFC000AD8FF2908D0FFF7B9FF28B12946204648
:106F0C00BDE83840FEF7E2BC38BD38B504460D4646
:106F1C00FEF7E4FCFF2810D0062804D84D2323FAF2
:106F2C0000F0C30709D42046FFF7A0FF28B129467B
:106F3C002046BDE83840FEF7D9BC38BD0D2810B549
:106F4C0004469CBF0E34A4B22046FFF78FFF50B10D
:106F5C0003212046FEF7B2FC032804D12046BDE8ED
:106F6C001040FEF7CBBC002010BD2DE9F04190463F
:106F7C001F46072406460D46C4F10701B8F1000F61
:106F8C0012D147FA01F101F001013046FFF7BDFFC4
:106F9C0001212846FFF7B9FF00212846FFF7B5FF6E
:106FAC00013CE9D2BDE8F08147FA04F1EBE7704708
:106FBC0038B50A4B0360012304464361084920207D
:106FCC0000F074F8202560600549A560284600F0A3
:106FDC006DF8C4E90305204638BD00BF1800010058
:106FEC00307C0B0030B50E4D2978BFF35B8F11F060
:106FFC00010487B011D12846FDF758F868B16846EE
:10700C00FFF7D6FF6A4621460648FEF751FF284691
:10701C00FDF751F8044800F05DF9024807B030BDA7
:10702C002CE7032030E70320BB6F0B0070470000F8
:10703C0038B5044614252A46002100F05FF9258056
:10704C004025074925812846258200F02FF8044960
:10705C006060284600F02AF8E060204638BD00BF8A
:10706C00307C0B0030B50E4D2978BFF35B8F11F0DF
:10707C00010487B011D12846FDF718F868B101A8B2
:10708C00FFF7D6FF01AA21460648FFF779FD2846EF
:10709C00FDF711F8044800F01DF9024807B030BDA7
:1070AC0044E7032048E7032039700B00FCF7EDBFE1
:1070BC00014900F0F9B800BF4C7C0B007FB50024EF
:1070CC001023CDE90234036815469E6912686B469D
:1070DC00CDE90044B0479DF8043003F00603062BBD
:1070EC0003BF009B2B600120204604B070BD0098AC
:1070FC00904214BF012006207047000010B5034BCE
:10710C000360044600F0CDF8204610BD8C7C0B00CB
:10711C0010B50446FFF7F2FF20460821FCF7B7FF35
:10712C00204610BD2DE9F0411F46DDE90834DDF89D
:10713C00188098450646154607D1079900F0B4F813
:10714C0018B165710020BDE8F0813946304600F079
:10715C00ABF80028F6D00123C4F800802571A37188
:10716C00F0E738B515461C4600F09EF820B1082310
:10717C00E36006232560237138BD73B505460C46C4
:10718C0001921E4600F090F850B9032E08D82368DF
:10719C00019A5B692946204602B0BDE87040184749
:1071AC0002B070BD10B5034B03600446FFF7A6FF99
:1071BC00204610BDEC7C0B0010B50446FFF7F2FF27
:1071CC0020460C21FCF763FF204610BDF7B5089F45
:1071DC00974205460E4614460AD0A86802680897DE
:1071EC00156A31462246AC4603B0BDE8F040604714
:1071FC001946019300F058F8019B0028EDD00620A9
:10720C0003B0F0BD2DE9F14F0D461946DDE90A4BEF
:10721C00DDE90CA681461746984600F045F890B17A
:10722C00002D3460377109DB61198A450CBF0621CA
:10723C000121B171002001B0BDE8F08F0235F9D108
:10724C000123B371F6E7544506D15946484600F080
:10725C002BF808B17771EDE7D9F808000368CDE990
:10726C000CA6CDE90A4BDC693A4643462946A446AE
:10727C0001B0BDE8F04F60472DE9F04107460C46E0
:10728C0015461E46FFF76DFF48B9B86803689F693D
:10729C002A4633462146BC46BDE8F0416047BDE86E
:1072AC00F081704700207047814208B50ED04068CD
:1072BC0003782A2B0CD049680B782A2B08BF013194
:1072CC0000F052F8B0FA80F0400908BD0120FCE74C
:1072DC000020FAE7002301461A46184600F056B87B
:1072EC000A44914200F1FF3300D1704710B511F8F8
:1072FC00014B03F8014F9142F9D110BD02440346F2
:10730C00934200D1704703F8011BF9E738B5104BD5
:10731C001D68AB6B0446B3B91820FEF71BFD024683
:10732C00A86320B90B4B0C484221FEF73BFD0B49DF
:10733C000B4BC0E900130B4B83600B2383810021A3
:10734C000120C2E90401AB6B00221C615A6138BDFB
:10735C00B8E50320257D0B003C7D0B000E33CDAB37
:10736C0034126DE6ECDE050010F8012B11F8013B30
:10737C00012A28BF9A42F7D0D01A7047034613F857
:10738C00012B002AFBD1181A013870472DE9F8435C
:10739C00DFF8B8800646D8F800001F460D46914627
:1073AC0000F056F8254B1C6834B9254C1C60254B55
:1073BC0013B11B68C4F8883063681F2B07DDD8F83D
:1073CC00000000F047F84FF0FF30BDE8F8834EB3F3
:1073DC00D4F8880088B91C4B23B9D8F8000000F009
:1073EC0038F8F0E74FF48470FEF7B4FC0028F4D0C2
:1073FC000023C0E94033C4F88800636840F8239048
:10740C0001229A4000EB8301D0F800311343C0F8FD
:10741C000031022EC1F8807002BFD0F80431134342
:10742C00C0F804316368D8F800005A1C023362605B
:10743C0044F8235000F00EF80020C6E7E8E70320DC
:10744C005CE7032000000000615D0B001CE60320DC
:10745C0070477047704700001D400B0059400B00EF
:10746C0081400B0085400B000000000043616C6CF8
:10747C00206F6E2070757265207669727475616C00
:10748C000044697374616E6365203D2025690A00B0
:10749C004C6576656C2025690A2056616C756520F3
:1074AC0025690A002C01000018000000F4010000FE
:1074BC002C0100005000000000000000003E5B4F5B
:1074CC005B3E3E6B4F6B3E1C3E7C3E1C183C7E3C38
:1074DC00181C577D571C1C5E7F5E1C00183C180046
:1074EC00FFE7C3E7FF0018241800FFE7DBE7FF30D6
:1074FC00483A060E2629792926407F050507407F44
:10750C0005253F5A3CE73C5A7F3E1C1C08081C1CB6
:10751C003E7F14227F22145F5F005F5F06097F01AC
:10752C007F006689956A606060606094A2FFA29497
:10753C0008047E040810207E201008082A1C080865
:10754C001C2A08081E101010100C1E0C1E0C3038B3
:10755C003E3830060E3E0E06000000000000005FB4
:10756C0000000007000700147F147F14242A7F2AD0
:10757C001223130864623649562050000807030092
:10758C00001C2241000041221C002A1C7F1C2A08DE
:10759C00083E080800807030000808080808000041
:1075AC0060600020100804023E5149453E00427FB5
:1075BC00400072494949462141494D331814127F04
:1075CC001027454545393C4A4949314121110907A4
:1075DC003649494936464949291E00001400000025
:1075EC0040340000000814224114141414140041F7
:1075FC0022140802015909063E415D594E7C1211B4
:10760C00127C7F494949363E414141227F414141EB
:10761C003E7F494949417F090909013E4141517366
:10762C007F0808087F00417F41002040413F017FD7
:10763C00081422417F404040407F021C027F7F049F
:10764C0008107F3E4141413E7F090909063E4151E8
:10765C00215E7F09192946264949493203017F01D8
:10766C00033F4040403F1F2040201F3F4038403FD9
:10767C00631408146303047804036159494D4300EF
:10768C007F4141410204081020004141417F040226
:10769C0001020440404040400003070800205454BD
:1076AC0078407F284444383844444428384444289B
:1076BC007F385454541800087E090218A4A49C78EE
:1076CC007F0804047800447D40002040403D007F4A
:1076DC001028440000417F40007C047804787C082A
:1076EC000404783844444438FC18242418182424FE
:1076FC0018FC7C08040408485454542404043F44E3
:10770C00243C4040207C1C2040201C3C4030403C11
:10771C0044281028444C9090907C4464544C440071
:10772C0008364100000077000000413608000201D5
:10773C000204023C2623263C1EA1A161123A4040C1
:10774C00207A38545455592155557941215454783F
:10775C0041215554784020545579400C1E527212D8
:10776C003955555559395454545939555454580060
:10777C0000457C410002457D420001457C40F029DA
:10778C002429F0F0282528F07C5455450020545429
:10779C007C547C0A097F493249494932324848486D
:1077AC0032324A4848303A4141217A3A42402078B4
:1077BC00009DA0A07D39444444393D4040403D3CAF
:1077CC0024FF2424487E4943662B2FFC2F2BFF09D2
:1077DC0029F620C0887E09032054547941000044C6
:1077EC007D413048484A32384040227A007A0A0AB1
:1077FC00727D0D19317D2629292F28262929292624
:10780C0030484D4020380808080808080808382F68
:10781C0010C8ACBA2F102834FA00007B00000814F2
:10782C002A142222142A1408AA005500AAAA55AA1E
:10783C0055AA000000FF00101010FF00141414FFD4
:10784C00001010FF00FF1010F010F0141414FC00C6
:10785C001414F700FF0000FF00FF1414F404FC14D0
:10786C001417101F10101F101F1414141F001010C9
:10787C0010F0000000001F101010101F101010103E
:10788C00F010000000FF101010101010101010FF5E
:10789C0010000000FF140000FF00FF00001F101775
:1078AC000000FC04F414141710171414F404F4005E
:1078BC0000FF00F714141414141414F700F7141424
:1078CC0014171410101F101F141414F4141010F0AB
:1078DC0010F000001F101F0000001F14000000FC1F
:1078EC00140000F010F01010FF10FF141414FF140B
:1078FC001010101F00000000F010FFFFFFFFFFF042
:10790C00F0F0F0F0FFFFFF0000000000FFFF0F0F92
:10791C000F0F0F38444438447C2A2A3E147E02024E
:10792C000606027E027E0263554941633844443C9C
:10793C0004407E201E2006027E020299A5E7A5992E
:10794C001C2A492A1C4C7201724C304A4D4D303065
:10795C0048784830BC625A463D3E494949007E0150
:10796C0001017E2A2A2A2A2A44445F444440514A6F
:10797C00444040444A51400000FF0103E080FF00B6
:10798C000008086B6B083612362436060F090F06F2
:10799C00000018180000001010003040FF0101001A
:1079AC001F01011E00191D1712003C3C3C3C00003D
:1079BC0000000000000000000000000000000000BB
:1079CC000000000081500B00B1610B00A1400B00C6
:1079DC00994D0B00BF4E0B00DB4E0B00574E0B00AE
:1079EC00F54E0B002B4F0B00474F0B000000000017
:1079FC00000000000D540B009D540B0081500B0037
:107A0C00B1610B0011540B00994D0B0099520B00F6
:107A1C0029510B00574E0B00F54E0B002B4F0B0052
:107A2C00474F0B00000000000000000000000000A9
:107A3C0000000000475E0B003D5E0B00335E0B0048
:107A4C00295E0B001D5E0B00115E0B008D600B00A0
:107A5C0095600B00055E0B00FD5D0B00F35D0B00EC
:107A6C00E95D0B00C5600B00000000000000000089
:107A7C00655E0B00AF5E0B00875E0B00675E0B0054
:107A8C008F5E0B00975E0B009F5E0B00A75E0B00DA
:107A9C000000000000000000315F0B00215F0B00B4
:107AAC00235F0B00617070000000000000000000FC
:107ABC004D600B0057600B0061600B006B600B009E
:107ACC0075600B0081600B008D600B0095600B00E6
:107ADC009D600B00A9600B00B1600B00BB600B003C
:107AEC00C5600B00000810182028303877697269BF
:107AFC006E670072656376206572726F72203D202E
:107B0C00256400000000000000000000A1650B00CF
:107B1C00C5650B00F76A0B00D3650B00A5650B0060
:107B2C00000000000000000051660B0085660B0091
:107B3C001D650B0037650B008D690B0061650B0033
:107B4C0003680B0095650B0095680B00D5660B0060
:107B5C0031680B00416A0B00D1670B0097650B0075
:107B6C0049650B00D9650B00B5660B0025592D2511
:107B7C006D2D25645425483A254D3A2553257A0018
:107B8C0061736374696D6500000000000000000003
:107B9C00116B0B007D6B0B00556B0B00B1610B0077
:107BAC00256B0B00416B0B00336B0B004F6B0B0009
:107BBC00136B0B00176B0B000000000000000000A3
:107BCC00BB6B0B00236C0B00F96B0B00B1610B0052
:107BDC00EB6B0B00BD6B0B00CD6B0B001D6C0B002E
:107BEC00DD6B0B00B56B0B0000000000000000000B
:107BFC00236D0B00196D0B000F6D0B00C56C0B008A
:107C0C00036D0B00F76C0B008D600B0095600B0087
:107C1C00EB6C0B00E36C0B00D96C0B00CF6C0B0006
:107C2C00C5600B0000537431395F53705F6D616B2D
:107C3C00655F7368617265645F7461670000000062
:107C4C008C7C0B00317C0B00EC7C0B00607C0B0003
:107C5C00107D0B004E31305F5F637878616269761E
:107C6C003131375F5F636C6173735F747970655F1B
:107C7C00696E666F4500000000000000547C0B002C
:107C8C0009710B001D710B00B1720B00B1720B006E
:107C9C0087710B00C9700B006F710B0031710B00F9
:107CAC00FB700B00EC7C0B00BC7C0B00547C0B00C1
:107CBC004E31305F5F637878616269763132305F64
:107CCC005F73695F636C6173735F747970655F690F
:107CDC006E666F450000000000000000B07C0B00D9
:107CEC00B1710B00C5710B00B1720B00B1720B00BE
:107CFC0087710B00C9700B0085720B0011720B00A1
:107D0C00D9710B008C7C0B00187D0B0053743974EB
:107D1C007970655F696E666F005245454E54206DF3
:107D2C00616C6C6F63207375636365656465640077
:107D3C002F746D702F6A656E6B696E732D4743439C
:107D4C002D31302D706970656C696E652D34385F1E
:107D5C0032303230313132345F31363036313830C6
:107D6C003633392F7372632F6E65776C69622F6EA1
:107D7C0065776C69622F6C6962632F7374646C69CC
:107D8C00622F72616E642E630000000051480B007C
:107D9C00894D0B00D95D0B00515E0B003D600B0053
:107DAC009D610B00BD620B00F9640B00FD6A0B00BA
:047DBC002D6D0B001E
:107DC000040000001400000003000000474E5500AE
:107DD000445A10B93E477433D710CDDCCA59FB0A58
:047DE0004BBAEBE7C8
:047DE400000000009B
:107DE800540B0000000103070F1F3F7F0080C0E015
:107DF800F0F8FCFE00000000000000000000000099
:107E0800000000000000000000000000000000006A
:107E1800000000000000000000000000000000005A
:107E2800000000000000000000000000000000004A
:107E380000000080808000000000000000000000BA
:107E480000000000008080C0C000000000000000AA
:107E5800000000000000000000000000000000001A
:107E6800000000000000000000000000000000000A
:107E780000000000000000000000000000000000FA
:107E8800000000000000000080C0E0F0F8FCF8E00E
:107E980000000000000000000000000000000000DA
:107EA80000808080808000808000000000808080CA
:107EB800808000FFFFFF00000000808080800000BD
:107EC8008080000080FFFF808000808000808080AC
:107ED800800080800000000000808000008C8E847C
:107EE800000080F8F8F880000000000000000000A2
:107EF80000000000F0F0F0F0F0F0F0F0F0F0F0F03A
:107F0800E0E0C08000E0FCFEFFFFFF7FFFFFFFFF17
:107F1800FF0000000000000000000000000000FE5C
:107F2800FFC70101010183FFFF00007CFEC70101BB
:107F3800010183FFFFFF0038FEC78301010183C7EA
:107F4800FFFF000001FFFF010100FFFF0701010122
:107F580000007FFF80000000FFFF7F0000FFFFFFA1
:107F6800000001FFFFFF010000000000000000000A
:107F780000000000030F3F7F7FFFFFFFFFFFFFFFB1
:107F8800E7C7C78F8F9FBFFFFFC3C0F0FFFFFFFF8B
:107F9800FFFCFCFCFCFCFCFCFCF8F8F0F0E0C0008A
:107FA80001030303030301030300000000010303AB
:107FB800030301010301000000010303030301019E
:107FC8000303000000030300000003030000000097
:107FD8000000000103030303030100000001030183
:107FE8000000000303010000000000000000000082
:107FF8000000000000000080C0E0F0F9FFFFFFFF74
:10800800FF3F1F0F87C7F7FFFF1F1F3DFCF8F8F85A
:10801800F87C7DFFFFFFFFFFFFFFFF7F3F0F07009B
:1080280030300000000000000000000000000000E8
:108038000000000000000000FEFEFC000000000040
:108048000000000000000000000000000000000028
:1080580000E0C00000000000000000000000303018
:108068000000000000000000000000000000000008
:108078000000000000C0FEFFFFFFFFFFFFFFFFFF43
:108088007F7F3F1F0F071F7FFFFFF8F8FFFFFFFFEE
:10809800FFFEF8E000000001000000000000000002
:1080A800FEFE000000FCFEFC0C06060EFCF80000BC
:1080B800F0F81C0E0606060CFFFFFF0000FEFE008F
:1080C800000000FCFEFC00183C7E66E6CE84000042
:1080D80006FFFF0606FCFEFC0C0606060000FEFE78
:1080E8000000C0F8FC4E4646464E7C7840183C7668
:1080F800E6CECC8000000000000000000000000078
:10810800000000000000000001070F1F1F3F3F3F55
:108118003F1F0F03000000000000000000000000E7
:108128000F0F0000000F0F0F000000000F0F0000DE
:1081380003070E0C18180C060F0F0F0000010F0E86
:108148000C180C0F070100040E0C180C0F07000088
:10815800000F0F00000F0F0F0000000000000F0FAE
:1081680000000007070C0C181C0C060600040E0C77
:10817800180C0F07000000000000000000000000BD
:1081880000000000000000000000000000000000E7
:1081980000000000000000000000000000000000D7
:1081A80000000000000000000000000000000000C7
:1081B80000000000000000000000000000000000B7
:1081C80000000000000000000000000000000000A7
:1081D8000000000000000000000000000000000097
:1081E8000000000000000000000000000000000087
:1081F800000000008C7B0B00BCE5032000000000A1
:108208000000000000000000000000000000000066
:108218000000000000000000000000000000000056
:108228000000000000000000000000000000000046
:108238000000000000000000000000000000000036
:108248000000000000000000000000000000000026
:10825800000000000000000000000000ECE7032020
:10826800FFFFFFFF00000102030405060708090AD3
:108278000B0C0D0E0F101112131415161718191ACE
:088288001B1C1D1E1F20280015
:0482900078563412D6
:04000003B000401CED
:00000001FF
