:02000002B0004C
:1040000000400B00DC7C0B00000006000C000502E9
:084010000401A60F00000000EE
:04401800986E0B0093
:10401C0009480A49884208B505D0094A824202D0AB
:10402C00121A02F077FE0748074A0021121A02F012
:10403C007FFE014808BD00BFC0E1032038780B00AB
:10404C003CE603203CE60320EDE7032070B5074E69
:10405C00074C02F0F3FBA41BA4080025AC4200D1D2
:10406C0070BD56F8043B98470135F7E7DC770B0039
:10407C0004780B0000F030B808B500F0C3F8BDE8C8
:10408C00084002F093BB01F07FBB01F07DBB01F057
:10409C0083BB000008B5034A03490C2001F0D0FA99
:1040AC00FEE700BFAD520B00AC6E0B000078B0FA0F
:1040BC0080F0400970470123037070470EB403B5BC
:1040CC0003AB002153F8042B019301F0DAFD02B08D
:1040DC005DF804EB03B0704738B502F0E1FA4FF429
:1040EC00165102F0CDFA002001F0F2F843F69825B3
:1040FC000446002001F0ECF8001B61F10001A8421D
:10410C0071F1000307D202F0CBFA02F0BDFA10B93C
:10411C0001F0CAFAEDE702F0C3FA02F0B5FA08486A
:10412C0000F0F7F8022107483C2200F0D1FF0548C7
:10413C0000F0E6FEBDE838400021122002F0EEBB94
:10414C0090E603206CE603202DE9F74FDFF8AC80F6
:10415C0006460C461425284BDFF8A4B01D60E9B2C6
:10416C00404600F0FEFA4FF0000AD9465BF8042BEB
:10417C003746A7420ADCB9B24046019200F0AEFACB
:10418C00404600F0FFF80137019AF2E764200AF18B
:10419C00010A01F031FBBAF10A0FE7D10135B5F58F
:1041AC00807FD8D1DFF854A0FF25E9B2504600F04B
:1041BC00D8FA092759F82720B046A0450CDC1FFA7D
:1041CC0088F15046019200F089FA504600F0DAF876
:1041DC0008F10108019AF0E7642001F00DFB013FA2
:1041EC00E8D2013D132DE0D1044800F0CBF8204675
:1041FC0003B0BDE8F08F00BF48E6032090E6032033
:10420C00D06E0B0070B51C4D1C4E1D4C4FF47F42F4
:10421C0010210020FFF798FF68B3122002F0A8FBD2
:10422C00286002F03DFA2A683146FFF747FF204626
:10423C00022100F078FC01222046082100F066FCE7
:10424C002046022100F065FC2046012100F066FCAE
:10425C002A6831462046FFF731FF204600F0C8FEA1
:10426C0040F6B83001F0C8FA204600F049FE20466E
:10427C0000F0BEFECAE770BD68E60320C16E0B00FD
:10428C006CE6032008B50822022310210C4800F02C
:10429C0067F804210B4800F01DFE0B4802F02EF9C4
:1042AC000A490B4801F028FE0A4B0022C3E9002200
:1042BC00A2F580329A60BDE80840022001F0D0B926
:1042CC0090E603206CE603204CE60320CF6E0B0037
:1042DC00A4E603203CE6032038B50446C0680D462E
:1042EC0008B101F059FAA379062B0CBF0420032066
:1042FC0010FB05F080B2A08001F046FAE06028B116
:10430C00A288002102F014FD658038BDA080608079
:10431C00FBE710B504460121C07902F0FFFAE07901
:10432C00002102F00CFB0123237010BD37B503787C
:10433C0005460C461BB1C079002102F0EFFA2B7830
:10434C00EC715BB1A0B20121019002F0E7FA019887
:10435C00002103B0BDE8304002F0F1BA03B030BD2B
:10436C0070B50025044616468371C0E903550570E7
:10437C000572FFF7B1FF20463146FFF7D7FF204605
:10438C0070BD0000C368002B00F0A4812DE9F04F34
:10439C008379023BDBB2042B9CBFBF4A52F823400B
:1043AC0085B0054688BF322400F082FF2B69C01A05
:1043BC00A042F9D3B94CAE88D4F800351BB9D4F867
:1043CC006035002B7EDBB64CD4F8003523B9D4F81D
:1043DC006035002BC0F26E81B24CD4F80035002B46
:1043EC0000F04481EB79B04AB04C1268190102EB31
:1043FC000313575CAE495B78D1F8FC2042F0807215
:10440C00C1F8FC20226803F01F0343EA471301277D
:10441C003A432260A988D5F80C80D4F804909F40C8
:10442C00002944D04FF0000E72464FF0A04118F80E
:10443C0001CB0820802663689B1A462BFBD9626847
:10444C00D1F808351CEA060F43EA0703C1F8083512
:10445C002FD063689B1A282BFBD9D1F80C35013867
:10446C0043EA07034FEA5606C1F80C35E3D1AB8893
:10447C000EF1010E1FFA8EFE7345D8D84FF4307131
:10448C0003FB01F163689B1A462BFBD96368A3EB12
:10449C0009098945C0F0E4804FF4967000F000FFE4
:1044AC00A988D5F80C80D4F804900029BAD10A4612
:1044BC00E8E763689B1A112BCFD863689B1A112B02
:1044CC00F7D9CAE7D4F86435002BBFF67CAFD4F823
:1044DC006835002BBFF677AFD4F86C35002BBFF6E0
:1044EC0072AF3601331D1846009301F04DF90028C8
:1044FC003FF478AFAB88002B00F0ED80EA68013B0D
:10450C0012FA83F702F1FF3E002348F2060248F24A
:10451C000D011EF801CF1CF0800F0CBF93468B468B
:10452C001CF0400F0CBF16460E461CF0200F0CBFA3
:10453C009046884603F10109CDF80880019603F1F5
:10454C0002081FFA89F9019E20F813B01FFA88F8A7
:10455C0020F81960029E20F8186003F103081CF083
:10456C00100F1FFA88F80CBF93468B4620F818B032
:10457C0003F104081CF0080F1FFA88F80CBF9346CF
:10458C008B4620F818B003F105081CF0040F1FFA35
:10459C0088F80CBF93468B4620F818B003F1080A34
:1045AC0003F1060807339BB21CF0020F1FFA88F8C0
:1045BC000CBF93468B46CDF80CA01CF0010F20F8D5
:1045CC0018B015BF20F8131020F813201FFA8AF327
:1045DC00BDF80C3077459CD1591C023389B29BB283
:1045EC0049005B004FF400474752009AC7522E4BCC
:1045FC0056081F6800221423C4F80425C4F80C259F
:10460C00C4F80835C4F81425C4F81025C4F82005DE
:10461C00C4F82465C4F82825C4F82C25EB7907EBDD
:10462C00031C1B010121FE5C9CF8013003F01F03ED
:10463C0043EA4613C4F86035C4F80015C4F81021D9
:10464C00A160D4F81031002BFBD000234FF0FF32C7
:10465C00C4F81031C4F80035C4F8602501F09CF89A
:10466C0000F026FE286105B0BDE8F08FD4F8603567
:10467C00002BBFF6B7AED4F86435002BBFF6B2AE44
:10468C00D4F86835002BBFF6ADAED4F86C35002BE2
:10469C00BFF6A8AE25E700BFF46E0B0000C00140CA
:1046AC000010024000200240B4E60320001000E09D
:1046BC0000ED00E0D4F86435002BBFF68DAED4F8D5
:1046CC006835002BBFF688AED4F86C35002BBFF6DE
:1046DC0083AE06E770470423022183E743888B42AD
:1046EC00F0B52DD9067AC2F30743C2F30724D5B22D
:1046FC003EB1734374437543C3F30723C4F30724D8
:10470C002D0A90F806C0C768BCF1060F0CBF042632
:10471C0003264E43ACF1020CB919BCF1060F1DD89F
:10472C00DFE80CF0041C08040F040400BC554B70AB
:10473C008D7005E0FE2B28BFFE23BB554D708C7091
:10474C00F0BDBB554C708D70037A120E13B9D2B2FA
:10475C00CA70F5E75A43C2F30722F9E7BB554C7010
:10476C00E6E7037A4A1CD2B2934270B51FD0013BE4
:10477C0013F0FF03C4680CD0FF291FBF110201F115
:10478C00FF31B1FBF3F39BB204BF4FF6FF71B1FBEA
:10479C00F3F325468688291B89B28E4206D92978DF
:1047AC005943C1F3072105F8011BF3E7027270BDF1
:1047BC0008B500F095FD014B186008BDB4E6032068
:1047CC002DE9F04F85B01F46BDF93880BDF83C305F
:1047DC00A8EB0209A7EB010AB9F1000FB8BFC9F1A8
:1047EC000009BAF1000FB8BFCAF1000AD1458346DF
:1047FC000C46154604DD3A462C4647460D46904677
:10480C00BC4205DD2A464546904622463C461746A4
:10481C003E1BB2B20092A8EB050282EAE271A1EB58
:10482C00E271C6F3C03202FA86F64545B4BF0122E6
:10483C004FF0FF32019176100292BC421CDCDBF887
:10484C0000200393D145D2F81080C7BF29462246D9
:10485C002A4621465846C047019A039BB61AB1B264
:10486C0036B2002E05DA029A1544009A56182DB26B
:10487C0036B2013424B2E0E705B0BDE8F08F2DE983
:10488C00F347BDF82C800768BDF92890CDF800805F
:10489C000446FF6916468A461D46B8472368CDF87C
:1048AC00008009F1FF323244DF6951462B46204625
:1048BC0012B2B8472368CDF800809F6932464B4648
:1048CC0051462046B8476B1E03EB0A012368CDF80E
:1048DC0028809D6932464B4609B22046AC4602B050
:1048EC00BDE8F047604737B5013B13440468BDF899
:1048FC00185001951BB2009364690B46A04703B096
:10490C0030BD37B5BDF818500468CDE90025013B22
:10491C000B4464691BB2A04703B030BD2DE9F347CB
:10492C00BDF92890BDF82C80054692460C46CE1851
:10493C00B4420BDA2B68CDF800809F6921464B46B8
:10494C00524628460134B84724B2F1E702B0BDE81C
:10495C00F08713B502680191B0F90E100091546AFA
:10496C00B0F90C3000221146A04702B010BD7047C0
:10497C0030B54281C2814FF0FF320024054D4261B7
:10498C000122446005600181818104610283827689
:10499C0030BD00BF0C740B002DE9F04F2DED028BD8
:1049AC008DB007460491BDF860100591BDF86410F8
:1049BC000691B0F90C1004989DF86850814252DDB4
:1049CC00B7F90E1091424EDD062111FB0504002CA7
:1049DC0049DD02EBC504002C45DD03EB83030B938F
:1049EC0093B2079308339BB2089100240993052CCA
:1049FC001CBF2C4B0B9A079E16BF1B1900239B5CEC
:104A0C000393049AABB20A9304FB05F313FA82F3F3
:104A1C001BB204EB020A08EE103AB0460FFA85F905
:104A2C000FFA8AFA039BDB072FD5012D3B681FD1A8
:104A3C00D3F810B0059B32B251463846D847039B89
:104A4C005B0803930A9B01369844099BB6B2B342A8
:104A5C001FFA88F8E6D1089B013B013413F0FF03E1
:104A6C0064B20893C3D10DB0BDEC028BBDE8F08FDE
:104A7C00059ACDE9009218EE101AD3F824B00FFA6B
:104A8C0088F24B463846D847D9E7DDE905239342EF
:104A9C00D5D0012D3B6803D1D3F810B0069BCAE7E3
:104AAC00069AE6E7086F0B0030B50A2985B0044674
:104ABC0007D1027E638A03EBC20363820023238245
:104ACC0021E00D291FD0037E0293C38A0193838AB0
:104ADC000093B0F912200B46B0F91010FFF75CFFF1
:104AEC00207E238A00EB400103EB4103A17E1BB225
:104AFC000246238239B1B4F90C106FF0050505FBA1
:104B0C0000118B42D6DC012005B030BD01824282FF
:104B1C007047012938BF012101767047C18281821B
:104B2C007047407E704701F00303B0F90A204376CA
:104B3C00C907B0F9083059BF8381C2818281C38112
:104B4C007047B0F90C007047B0F90E0070470000C8
:104B5C00F0B5457EBDF81440022D69D0032D00F050
:104B6C009980012D6CD10589D2432A4412B2002AB6
:104B7C005DDBB0F90850954259DD0029BEBF5B18CA
:104B8C001BB20021B0F90A00CD188542C4BF431AEC
:104B9C001BB2002B4BDDC1F3C400DFF820C102EBCC
:104BAC00C01211F00701DBB20CEB02001AD0C1F1FC
:104BBC000805404EEDB2AB42775D3FBFA5EB030E4F
:104BCC00FF2646FA0EF637401CF80260012C0CBF8B
:104BDC003E43BE43AB420CF8026028D308390B4469
:104BEC00DBB28030072B19D9012C4FF0FF3518BFE1
:104BFC000025EDB200F180011A46083AD2B2072A1C
:104C0C0001F8805C01F18001F7D8A3F10802C2F32E
:104C1C00C402013200EBC21003F007033BB1264A79
:104C2C00D25C0378012C0CBF134393430370F0BD8B
:104C3C004589D2432A44CD180189491B12B209B2C5
:104C4C00002AF4DBB0F90A509542F0DD0029BEBF12
:104C5C005B181BB20021B0F90870CE18BE42C4BF5D
:104C6C006B1A1BB2002BE2DDD010802510FB051156
:104C7C001248014402F0070001228240012CD2B2FA
:104C8C000B440CD18B42D2D011F8010B104301F81C
:104C9C00010CF7E7CD184189491B09B267E7D243EC
:104CAC00D2B28B42C3D011F8010B104001F8010CA9
:104CBC00F7E700BFC8E10320C0E10320D0E10320E7
:104CCC00F0B5457EBDF81440022D34D0032D00F014
:104CDC009B80012D37D1D5180289521B12B20029A5
:104CEC00C0F29180B0F90A508D4240F38C80002ABA
:104CFC00BEBF9B181BB20022B0F90870D618BE427A
:104D0C00C4BFAB1A1BB2002B7DDDC810802510FB75
:104D1C0005224548024401F0070001218140012C85
:104D2C00C9B2134475D19A426DD012F8010B0843E5
:104D3C0002F8010CF7E70589C9432944D5184289C3
:104D4C00521B09B212B200295DDBB0F908508D423A
:104D5C0059DD002ABEBF9B181BB20022B0F90A0015
:104D6C00D5188542C4BF831A1BB2002B4BDDC2F38E
:104D7C00C400DFF8B4C001EBC01112F00702DBB2C3
:104D8C000CEB01001AD0C2F10805284EEDB2AB4273
:104D9C00775D3FBFA5EB030EFF2646FA0EF63740B4
:104DAC001CF80160012C0CBF3E43BE43AB420CF817
:104DBC00016028D3083A1344DBB28030072B19D991
:104DCC00012C4FF0FF3518BF0025EDB200F180012A
:104DDC001A46083AD2B2072A01F8805C01F1800128
:104DEC00F7D8A3F10802C2F3C402013200EBC210DF
:104DFC0003F007033BB10E4AD25C0378012C0CBFC5
:104E0C00134393430370F0BD4589C943294409B248
:104E1C0065E7C943C9B29A42F5D012F8010B0840B4
:104E2C0002F8010CF7E700BFD0E10320C8E1032032
:104E3C00C0E1032070470000F8B50D1E064614466D
:104E4C001F462DDBFFF77DFEA84229DD002C27DB5A
:104E5C003046FFF779FEA04222DD3046FFF761FEB7
:104E6C0002281ED0032825D0012804D13389E2431F
:104E7C001A442C4615B2002C2246B8BFE21DD210A3
:104E8C00802112FB01550E49012204F007044B57F7
:104E9C0002FA04F464B297420CBF2343A3434B556C
:104EAC00F8BD318972890139E4434D1B14442DB28C
:104EBC0024B2E0E77389013B5B1B25461CB2DAE7A1
:104ECC00D0E1032010B524210446FFF7E0F820467A
:104EDC0010BD000038B5402204460D468021FFF776
:104EEC0047FD064B2360FF2384F8213063774FF690
:104EFC00FF73E38384F82050204638BD44740B00C4
:104F0C0002484FF48062002101F012BFD0E103206F
:104F1C0013B50B4C2178BFF35B8F11F001010BD152
:104F2C0020460191FFF7C2F8019928B1054800F01D
:104F3C00E5FE2046FFF7BFF8024802B010BD00BFE7
:104F4C00B8E60320BCE6032007B590F8223043B145
:104F5C000191FFF7DDFF019903B05DF804EB00F060
:104F6C0081BF0B46817F407F012203B05DF804EBCB
:104F7C0001F015BD38B590F91D30013304460D46CE
:104F8C001DD090F92100012180B201F0D8FC94F9D8
:104F9C001F00002180B201F0D2FC94F92100002105
:104FAC0080B201F0CCFC29462046FFF7CDFF94F9E6
:104FBC0021000121BDE8384080B201F0C0BC01F0F5
:104FCC002BFD94F91B1000F0B5FC01F025FD0368D6
:104FDC0000219B68984701F01FFD036829469B68D8
:104FEC00984701F019FDBDE8384000F0AABC00005C
:104FFC00F8B521210446FFF7BDFF00212046FFF73D
:10500C00B9FF7F212046FFF7B5FF22212046FFF78D
:10501C00B1FF00212046FFF7ADFF07212046FFF727
:10502C00A9FF94F91D30294F01332AD094F921009E
:10503C00012180B201F083FC94F91F00012180B2A0
:10504C0001F07DFC94F92100002180B201F077FC85
:10505C00012000F025F94FF48065013D17F8011B84
:10506C002046ADB2FFF770FF002DF6D1012000F005
:10507C0017F994F921000121BDE8F84080B201F044
:10508C005EBC002501F0C8FC94F91B1000F052FC2A
:10509C0001F0C2FC036840219B68984705F110069B
:1050AC00B6B201F0B9FC0368795D9B6898476B1C3C
:1050BC009DB2AE42F5D101F0AFFC00F042FCB6F56A
:1050CC00806F00D1F8BD3546DCE700BFD0E103208E
:1050DC0038B590F91D300177013304460D46C27680
:1050EC0000F0C98090F91F00012180B201F016FC7C
:1050FC0094F92100012180B201F010FC94F82230C7
:10510C00002B00F0A68094F92100012180B201F05F
:10511C0016FCFFF7FDFE012100F00EFEFFF7F8FE76
:10512C00102100F079FEFFF7F3FE002100F018FECD
:10513C00FFF7EEFE00F0ECFD94F92000012180B2A7
:10514C0001F0ECFB94F92000012180B201F0F7FB97
:10515C00012000F051FB94F92000002180B201F0F5
:10516C00EEFB0A2000F048FB94F92000012180B2EC
:10517C0001F0E5FB2046AE21FFF7FCFE2046D521D1
:10518C00FFF7F8FE20468021FFF7F4FE2046A82109
:10519C00FFF7F0FE20463F21FFF7ECFE2046D3211F
:1051AC00FFF7E8FE20460021FFF7E4FE20464021F1
:1051BC00FFF7E0FE8D212046FFF7DCFE012D0CBF32
:1051CC00102114212046FFF7D5FE20462021FFF7A1
:1051DC00D1FE20460021FFF7CDFE2046A121FFF78E
:1051EC00C9FE2046C821FFF7C5FE2046DA21FFF78D
:1051FC00C1FE20461221FFF7BDFE81212046FFF79C
:10520C00B9FE012D0CBF9F21CF212046FFF7B2FE26
:10521C00D9212046FFF7AEFE012D0CBF2221F12132
:10522C002046FFF7A7FE2046DB21FFF7A3FE204612
:10523C004021FFF79FFE2046A421FFF79BFE20464E
:10524C00A621FFF797FE2046AF21BDE83840FFF7B7
:10525C0091BE94F91D00012180B201F05FFB94F91D
:10526C001E00012180B201F059FB94F82230002B72
:10527C003FF462AF47E701F0CFFB00F051FB5BE777
:10528C0008B5024B1B685B6C019308BD4802030018
:10529C0008B5024B1B685B68019308BD180203003C
:1052AC0008B5024B1B68DB68019308BD18020300AC
:1052BC0008B5024B1B681B69019308BD180203005B
:1052CC0008B5024B1B685B69019308BD180203000B
:1052DC0008B5024B1B68DB6D019308BD1802030077
:1052EC0008B5024B1B681B68019308BD2C02030018
:1052FC0008B5024B1B685B68019308BD2C020300C8
:10530C0008B5024B1B689B68019308BD2C02030077
:10531C0008B5024B1B68DB68019308BD2C02030027
:10532C0008B5024B1B681B69019308BD2C020300D6
:10533C0008B5024B1B681B6B019308BD2C020300C4
:10534C0008B5024B1B68DB68019308BD28020300FB
:10535C0008B5024B1B689B69019308BD280203002A
:10536C0008B5024B1B68DB69019308BD28020300DA
:10537C0008B5024B1B681B6A019308BD2802030089
:10538C0008B5024B1B685B6A019308BD2802030039
:10539C0008B5024B1B689B6A019308BD28020300E9
:1053AC0008B5024B1B68DB6A019308BD2802030099
:1053BC0008B5024B1B681B6B019308BD2802030048
:1053CC0008B5024B1B685B6B019308BD28020300F8
:1053DC0008B5024B1B681B6C019308BD2802030027
:1053EC0008B5024B1B685B69019308BD6C02030096
:1053FC0008B5024B1B685B69019308BD640203008E
:10540C0008B5024B1B681B6A019308BD64020300BC
:10541C0008B5024B1B689B6A019308BD640203002C
:10542C0008B5024B1B689B68019308BD680203001A
:10543C0008B5024B1B68DB68019308BD68020300CA
:10544C0008B5024B1B689B69019308BD3802030029
:10545C0008B5024B1B68DB69019308BD38020300D9
:10546C0008B5024B1B681B6A019308BD3802030088
:10547C0008B5024B1B689B6A019308BD38020300F8
:10548C0008B5024B1B681B6B019308BD3802030067
:10549C0008B5024B1B689B6B019308BD38020300D7
:1054AC0008B5024B1B681B68019308BD3002030052
:1054BC0008B5024B1B689B68019308BD30020300C2
:1054CC0008B5024B1B68DB68019308BD3002030072
:1054DC0008B5024B1B681B69019308BD3002030021
:1054EC0008B5024B1B685B69019308BD30020300D1
:1054FC0008B5024B1B68DB69019308BD3002030041
:10550C0008B5024B1B681B6A019308BD30020300EF
:10551C0008B5024B1B685B6A019308BD300203009F
:10552C0008B5024B1B681B6C019308BD30020300CD
:10553C0008B5024B1B685B6C019308BD300203007D
:10554C0008B5024B1B68DB68019308BD3C020300E5
:10555C0008B5024B1B681B69019308BD3C02030094
:10556C0008B5024B1B685B69019308BD3C02030044
:10557C0008B5024B1B689B69019308BD3C020300F4
:10558C0008B5024B1B68DB69019308BD3C020300A4
:10559C0008B5024B1B681B6A019308BD3C02030053
:1055AC0008B5024B1B689B6A019308BD3C020300C3
:1055BC0008B5024B1B681B6C019308BD3C02030031
:1055CC0008B5024B1B681B68019308BD4C02030015
:1055DC0008B5024B1B685B68019308BD4C020300C5
:1055EC0008B5024B1B681B69019308BD4C020300F4
:1055FC0008B5024B1B685B69019308BD4C020300A4
:10560C0008B5024B1B689B69019308BD4C02030053
:10561C0008B5024B1B68DB69019308BD4C02030003
:10562C0008B5024B1B681B6A019308BD4C020300B2
:10563C0008B5024B1B689B6A019308BD4C02030022
:10564C0008B5024B1B685B6B019308BD600203003D
:10565C0008B5024B1B681B6D019308BD600203006B
:10566C0008B5024B1B685B68019308BD2002030060
:10567C0008B5024B1B685B69019308BD200203004F
:10568C0008B5034B1B68D3F88830019308BD0000A4
:10569C002002030008B5034B1B68D3F89430019328
:1056AC0008BD00002002030008B5024B1B689B6874
:1056BC00019308BD4402030008B5024B1B68DB6B69
:1056CC00019308BD4402030008B5024B1B685B68DC
:1056DC00019308BD4002030008B5024B1B689B6890
:1056EC00019308BD4002030008B5024B1B68DB6840
:1056FC00019308BD4002030008B5024B1B681B69EF
:10570C00019308BD4002030008B5024B1B685B699E
:10571C00019308BD4002030008B5024B1B689B694E
:10572C00019308BD4002030008B5024B1B68DB69FE
:10573C00019308BD4002030008B5024B1B681B6AAD
:10574C00019308BD4002030008B5024B1B681B6B9C
:10575C00019308BD4002030008B5024B1B685B6B4C
:10576C00019308BD4002030008B5024B1B681B6C7B
:10577C00019308BD4002030008B5024B1B685B6C2B
:10578C00019308BD4002030008B5024B1B681B685F
:10579C00019308BD1C02030008B5024B1B685B6833
:1057AC00019308BD1C02030008B5024B1B689B68E3
:1057BC00019308BD1C02030008B5024B1B685B6A11
:1057CC00019308BD1C02030008B5024B1B68DB6B80
:1057DC00019308BD1C02030008B5024B1B681B6C2F
:1057EC00019308BD1C02030008B5024B1B685B6CDF
:1057FC00019308BD1C0203000021FFF739BF000014
:10580C00024800230360FFF73BBD00BFC4E6032042
:10581C00002240681146FFF78FBF002240681146F6
:10582C00FFF79ABF40680022FFF78EBF4068002246
:10583C0081F00101FFF778BF002340681A46194632
:10584C00FFF76ABF002340681A461946FFF75CBF92
:10585C00002240681146FFF74FBF002240681146F6
:10586C00FFF73ABF406800220221FFF73DBF00233B
:10587C0040681A46FFF728BF024B03225A60024ABF
:10588C001A607047C8E6032084740B007047F8B5A3
:10589C00064615460C468F18BC4206D0336814F8E1
:1058AC00011B9B6830469847F6E72846F8BD007CFC
:1058BC000022FFF75DBD007C0021FFF761BD007C7D
:1058CC000021FFF765BD007C0021FFF769BD007C5E
:1058DC000021FFF76DBD10B514210446FEF7D7FB70
:1058EC00204610BD38B5044615464FF47A73002295
:1058FC00C4E90123094B2174084623602946FFF7AC
:10590C0067FDBF3008D16B69DB0705D56868FFF709
:10591C0043FFE868FFF740FF204638BDC0740B001A
:10592C000023007C1A461946FFF70ABD007C0022B2
:10593C00FFF70EBDC9B2FFF7F9BF007C0022FFF7DD
:10594C000FBD0121FFF7F9BF704710B518210446B0
:10595C00FEF79DFB204610BDF0B5037D062B8DB0E8
:10596C000E4600F104074FF0000412D000F10805B8
:10597C0015F8011D0A22304600F065F9AF420444C7
:10598C0019D0002CF4D02E21304600F04DF90444EF
:10599C00EEE72F236A4639460A208DF80040FFF7C0
:1059AC0027FD684601F004FA33680246DB68694655
:1059BC0030469847044620460DB0F0BD10B5054B57
:1059CC000446112240F8043B002101F0B1F92046B5
:1059DC0010BD00BFE8740B000346074A10B543F82E
:1059EC00042B01F1100251F8044B43F8044B914283
:1059FC00F9D10A781A7010BDE8740B00037D042BE2
:105A0C0004D14068003818BF01207047062B07D11D
:105A1C0043683BB983682BB9C3681BB90069F1E7CC
:105A2C00002070470120704710B59DF8084044EAEB
:105A3C00032343EA024242EA0161042341600375F5
:105A4C0010BD000007B5064B0360CB7800938B7834
:105A5C004A780978FFF7E8FF03B05DF804FB00BF54
:105A6C00E8740B00014B024A1A607047D0E6032021
:105A7C00F4740B00002340681A46FFF725BE4068FB
:105A8C0000220221FFF730BE002240681146FFF7CA
:105A9C0023BE002240681146FFF72EBE002340684B
:105AAC001A461946FFF730BE002340681A461946BD
:105ABC00FFF732BE40680021FFF756BE4068002158
:105ACC00FFF75ABE4068002281F00101FFF72CBE9F
:105ADC0040680022FFF738BE002240681146FFF7ED
:105AEC003BBE002240681146FFF726BE2DE9F0436D
:105AFC0095B014460D460746FFF760FF00211C22A7
:105B0C000DA8009101F014F940230C9320466B462C
:105B1C000CAA0021FFF78CFC044600284BD102464E
:105B2C0001216868FFF7E8FD02218046224668687B
:105B3C00FFF7E2FD009E81462146002E3BD0002956
:105B4C0039D17368022B03D00A2B11D0F669F4E714
:105B5C00B8F1000FFAD0716906A8043107ADFFF750
:105B6C0071FF0FCD3C1D0FC42B6823704146EDE730
:105B7C00B9F1000FEAD07469102201A801F0D8F82D
:105B8C0006238DF8143001AD04F10803183418689D
:105B9C0059682A4603C20833A3421546F7D101A916
:105BAC0006A807ADFFF718FF0FCD3C1D0FC42B68DF
:105BBC0023704946CAE70098FFF732FC384615B007
:105BCC00BDE8F083024B034A1A6000225A6070470A
:105BDC00D4E6032000750B00F8B506460D468F1869
:105BEC000024BD420CD0336815F8011B9B6830466D
:105BFC009847031E01DB1C44F3E7002C08BF1C462E
:105C0C002046F8BD13B50446084659B1019101F080
:105C1C00CFF823680199DB680246204602B0BDE844
:105C2C001040184702B010BD03689B68184738B580
:105C3C000D210546FFF7F8FF0A2104462846FFF719
:105C4C00F3FF204438BD30B58BB00023012A8DF80A
:105C5C00243098BF0A2209AC0D46B1FBF2F101FBCE
:105C6C00125303F0FF03092B94BF30333733DBB2ED
:105C7C00AA4204F8013DEFD92146FFF7C3FF0BB050
:105C8C0030BD2DE9F04186B000AF05460E46381DFB
:105C9C00142114463B60FFF78FFD13280ED8391DD5
:105CAC002846FFF7AFFF04461EB12846FFF7BFFF9B
:105CBC00044420461837BD46BDE8F08100F10803C6
:105CCC0023F00703E846ADEB030D2246411C3B686D
:105CDC006846FFF771FD69462846FFF793FF0446B7
:105CEC00C546E1E7014B00229A607047DCE60320D1
:105CFC000021FFF71DBC0021FFF712BC10B50446B4
:105D0C0008462170FFF7F4FB00236360204610BDAA
:105D1C0013B504460078FFF7EEFF58B920780190D0
:105D2C004FF6FF71FFF7BCFB019802B0BDE81040C5
:105D3C00FFF7DEBF02B010BD13B504460078019129
:105D4C00FFF7D9FF019948B920780190FFF7B0FB14
:105D5C00019802B0BDE81040FFF7CABF02B010BDF9
:105D6C0013B5044600780191FFF7C5FF019948B9B6
:105D7C0020780190FFF7A4FB019802B0BDE8104019
:105D8C00FFF7B6BF02B010BD400830B51860002454
:105D9C0018688842E5B206D90134082C02D04008B4
:105DAC001860F5E70725024B5B5D137030BD00BF33
:105DBC0034750B002DE9F04188B0002304460078BF
:105DCC0002930E461746FFF796FF054600BB94F864
:105DDC0000800146142203A800F0AAFF0B232A46D8
:105DEC0003A94046ADF80C30FFF792FB04988DF8F0
:105DFC00075002AB0DF1070207FB06F1FFF7C4FFDA
:105E0C0020789DF80710FFF763FB2078FFF770FFF1
:105E1C00029808B0BDE8F08138B5044600780D460C
:105E2C00FFF769FF0346D0B9616899B10C4A12F8C3
:105E3C00010B854202D00133082BF8D10133DBB2C0
:105E4C000122D9402046FFF7B5FF2078BDE8384045
:105E5C00FFF74EBF20782946FFF73AFBF5E738BD30
:105E6C0034750B0008B50078FFF73AFBC0B208BDDB
:105E7C0010B50446006808B1FFF78EFC0023C4E996
:105E8C000133236010BD38B504460D46006801315E
:105E9C00FFF78AFC10B1C4E90005012038BD10B52C
:105EAC000368044623B143688B4201D3012010BD23
:105EBC002046FFF7E8FF0028F9D0A368002BF5D1A6
:105ECC0022681370F2E737B50D461146019204466D
:105EDC00FFF7E5FF019A28B92046FFF7C9FF2046D6
:105EEC0003B030BDA2602946206800F013FF226881
:105EFC00A3680021D154F2E7002313B5C0E90033A5
:105F0C0004468360037341B10846019100F050FFD1
:105F1C00019902462046FFF7D6FF204602B010BD7D
:105F2C00054B02221A60054B054A9A600020C3E912
:105F3C000000FFF795BB00BFF8E60320ECE603205A
:105F4C000000FFFF13B503688DF80710DC6B01220E
:105F5C004FF0FF330DF10701A04702B010BD10B494
:105F6C000368DC6B4FF0FF33A4465DF8044B6047CD
:105F7C0013B5134602688DF80710D46B0DF10701A9
:105F8C000122A04702B010BD10B54369B3F88620BA
:105F9C00B3F884309A42044608D06369B3F884207D
:105FAC00511CA3F884101344187910BD03681B69A5
:105FBC0098470028F1D14FF0FF30F6E7704743695E
:105FCC001868C043C00F704770470000064B9942D9
:105FDC0010B500F10C0405D0084600F083FD002834
:105FEC0008BF0024204610BD74740B0010B5AC2102
:105FFC000446FEF74CF8204610BDAC21FEF747B81E
:10600C002DE9F0414FF0000886B01C46C0F8048022
:10601C0005460E4617464146102202A800F088FE9F
:10602C00631C09D04FF47A73B4FBF3F203FB1244F4
:10603C00CDE902285C43049468691023009300683E
:10604C0002AB41F2050240F6FF71FFF7F9F90028A7
:10605C0007DAFFF7B9FB03686B60002006B0BDE8F8
:10606C00F0816869002300683A463146FFF708FA68
:10607C00031EEEDB1846F1E738B584690A4B036062
:10608C0005467CB16368013B63605BB923682046BD
:10609C009B689847A368013BA3601BB92368204603
:1060AC00DB689847284638BD78750B0010B5044658
:1060BC00FFF7E2FF20461C21FDF7E9FF204610BD4B
:1060CC0030B587B0044601AD6846FFF7BBFC0FCD79
:1060DC0004340FC42B68237007B030BD70B54D6904
:1060EC00054B04468C3544F8043B06460FCD0FC4D3
:1060FC002B682370304670BDE8740B002DE9F0431B
:10610C009846036893B00D460024DB6A0646174692
:10611C00984728466B46224621460094FFF788F99B
:10612C000546002863D1009B002B4BD05B69002BEC
:10613C0048D006A8FFF742FC009B5C696378022BF1
:10614C0004D1211D06A8FFF7BBFF26E00A2B24D1A2
:10615C001122294601A800F0EBFDA368002B38D0D2
:10616C0004F108030DF1040C1834186859686246E0
:10617C0003C20833A3429446F7D1062301A90CA805
:10618C008DF81430FFF728FC0DF1340CBCE80F002F
:10619C0007AC0FC4DCF80030237006A8FFF72EFC08
:1061AC0080B1336807ADD3F82090124B0C930FCD10
:1061BC000DAC0FC42B6823703A4643460CA93046ED
:1061CC00C84705460098FFF72BF9284613B0BDE8E1
:1061DC00F083E368002BC3D14FF6FF70D4F8109016
:1061EC00FFF70EF98145BBD104F11401AAE725464E
:1061FC00E8E700BFE8740B0038B543691A68002A59
:10620C00054610DAB3F88620B3F884309A420AD1E6
:10621C0003681B699847044628B92B682846DB6A33
:10622C009847204638BD0120FCE710B54369B3F808
:10623C008620B3F884309A42044605D06369B3F8DB
:10624C0084201344187910BD03681B6998470028F3
:10625C00F4D14FF0FF30F6E7F8B543691746B3F8C1
:10626C008620B3F884309A4205460E4616D06969EA
:10627C00B1F88430B1F88640E41ABC4228BF3C46E1
:10628C00043322461944304600F044FD6A69B2F8E2
:10629C0084302344A2F884302046F8BD03681B697F
:1062AC0098470028E3D14FF0FF34F5E7426900230B
:1062BC00A2F884304269A2F8863070472DE9F0418B
:1062CC001F4603680C46DB6A8AB00546164698479B
:1062DC00237DD5F81480042B0CBF02200A20062243
:1062EC000121FFF7D5F8C8F800006B691B68002B7B
:1062FC0008DA2B682846DB6A0024984720460AB047
:10630C00BDE8F0812846FFF7D1FFB7B1002303A900
:10631C00F8B20393ADF81030FFF762F80028E8D11B
:10632C00686906230093006803AB41F20B0240F648
:10633C00FF71FFF785F80028DBD11C22002103A890
:10634C0000F0F6FC237D042B1DD14FF4077330466F
:10635C00ADF80C30FFF75CF8ADF80E006068FFF795
:10636C004FF804906B691C22186803A9FFF778F8A2
:10637C000028BED104340FCC6D698C350FC5236851
:10638C002B700124BAE740F61C233046ADF80C30D4
:10639C00FFF73EF805AEADF80E00231D04F114070F
:1063AC0018685968324603C20833BB421646F7D107
:1063BC00D8E7000030B54269B2F886308BB004469D
:1063CC002BB1B2F884209A4201D1FFF76FFF6169BB
:1063DC000868002818DBB1F886507F2D14D80431DA
:1063EC000823C5F180022944FFF742F8002813DD89
:1063FC006369B3F886200AB9A3F884206369B3F8FB
:10640C0086201044A3F886006369B3F88600B3F8BD
:10641C008430C01A0BB030BDFFF7D6F903680B2BD4
:10642C00F2D0FFF7D1F903680B2BEDD02023002518
:10643C00CDE90235FFF7C8F903680193084B094908
:10644C00009302AA2B463220FFF702F96369186801
:10645C00FEF7FEFF63694FF0FF321A60D4E700BF0E
:10646C0043750B003C750B0010B543690446186866
:10647C00002801DBFEF7ECFF63694FF0FF321A6076
:10648C006069112200218C3000F052FC2046BDE8DE
:10649C001040FFF70BBF10B5002304460160C0F895
:1064AC0084308830FFF78AFA204610BD73B500237C
:1064BC004FF47A72C0E901320E4A03610260436103
:1064CC000446AC200191FDF7DEFD051E05F10C061E
:1064DC0008D00123C5E90133074B01992B603046E5
:1064EC00FFF7D9FF2046C4E90565FFF7DFFE02B0D0
:1064FC0070BD00BF78750B005C750B0010B54FF0CC
:10650C00FF310446FFF7D2FF204610BD10B50446FC
:10651C000068002801DBFEF79BFF204610BD0C3005
:10652C00FFF7F4BF024B1A68024B1A60704700BFAA
:10653C00D0E50320FCE6032070474174704708B592
:10654C00007CFFF72DF820EAE07008BD08B5007C50
:10655C00FEF7FEFF20EAE07008BD08B5007CFFF7EF
:10656C0007F840EAE07008BD08B5007CFEF7F8FFBC
:10657C0040EAE07008BD007CFFF702B837B5457CF7
:10658C0004462DB1207C03B0BDE83040FEF7D8BFE7
:10659C00007C0191FFF704F800280199F2DC2846F1
:1065AC0003B030BD10B514210446FDF770FD204634
:1065BC0010BD000010B54FF47A730446084611461E
:1065CC000022C4E90123044B23600123207463746B
:1065DC00FEF7EEFF204610BDE0750B0041747047CE
:1065EC007047704708B50021007CFFF709F840EAB6
:1065FC00E07008BD08B50121007CFFF701F840EA06
:10660C00E07008BD08B5007CFEF7F2FF20EAE070F0
:10661C0008BD08B5007CFEF7E3FF20EAE07008BD7A
:10662C0013B50446007C0191FEF7E2FF00280199A6
:10663C0001DC607C20B1207CFEF7EAFF20EAE070F0
:10664C0002B010BD007CFEF7EBBF10B51421044660
:10665C00FDF71DFD204610BD10B54FF47A730446AE
:10666C0008460021C4E90113044B23600123207464
:10667C0063741146FEF7A4FF204610BD10760B0084
:10668C00007C0022FEF7A4BF007CFEF7D1BF10B542
:10669C0014220446002100F04BFB204610BD0000E4
:1066AC0010B50F4C88B003A8FFF7F1FF2178BFF3AA
:1066BC005B8F11F001010FD120460191FDF7F6FC23
:1066CC00019948B103AA0748FFF7C6FF2046FDF71A
:1066DC00F2FC054800F018FB024808B010BD00BFE2
:1066EC0000E7032004E70320ED650B00002240685F
:1066FC001146FFF701B8002240681146FFF71CB89D
:10670C00002240681146FFF727B840680022FFF7C7
:10671C001BB84068002281F00101FFF705B8002387
:10672C0040681A461946FEF7F7BF002340681A4620
:10673C001946FEF7E9BF002240681146FEF7CCBFB0
:10674C00406800220221FEF7CFBF002340681A46A2
:10675C00FEF7BABF024B04225A60024A1A60704715
:10676C0018E7032040760B00014B1860704700BF00
:10677C00D4E5032008B50B4B43B1FFF791FF036839
:10678C001B699847002801DDAFF30080064B43B12D
:10679C0000F082F903681B699847002801DDAFF30C
:1067AC00008008BD000000000000000008B5FFF7E5
:1067BC00E1FFFEF785FD014B186008BD28E70320BB
:1067CC000548064A064908B5121A00F0A3FA054B0B
:1067DC00054A1A6008BD00BF00F4032004F403202E
:1067EC0034780B0000F403201E1C279A07B50023F5
:1067FC0000931A466FF07701FEF74CFF03B05DF87B
:10680C0004FB000007B543880A2B08D0502B0BD192
:10681C00094B1B684BB103B05DF804EB1847FFF74D
:10682C00E5FF03B05DF804FB002300931A466FF0FC
:10683C007701FEF72FFFF4E724E7032010B5124889
:10684C000021FEF7D1FF114B1A68114B9A42114BE4
:10685C000CBF012200221A7001D0FFF7B1FFFEF726
:10686C0017FD044600F06CFA0B4B13B12046AFF346
:10687C00008000210848FEF71FFFBDE810400748C4
:10688C000021FEF7FDBE00BF75670B0000F403206E
:10689C001E1C279A20E703200000000011680B0043
:1068AC00232813B502D9002002B010BDA0F10B03B0
:1068BC00022B1AD8174C2178BFF35B8F11F0010112
:1068CC000BD120460191FDF7F1FB019928B112483B
:1068DC00FFF714FA2046FDF7EEFB0F4B1878FEF786
:1068EC000FFE0028DFD10120DEE7012809D800F0D7
:1068FC0093F80021007CFEF763FD80F00100C0B22C
:10690C00D2E709380128EED800F0C6F8007CFEF773
:10691C003FFEF2E7B8E60320BCE60320232838B597
:10692C0004460D460AD8FF2908D0FFF7B9FF28B155
:10693C0029462046BDE83840FEF7E2BC38BD38B5E4
:10694C0004460D46FEF7E4FCFF2810D0062804D8B8
:10695C004D2323FA00F0C30709D42046FFF7A0FF0C
:10696C0028B129462046BDE83840FEF7D9BC38BDD1
:10697C000D2810B504469CBF0E34A4B22046FFF778
:10698C008FFF50B103212046FEF7B2FC032804D13F
:10699C002046BDE81040FEF7CBBC002010BD2DE911
:1069AC00F04190461F46072406460D46C4F10701E8
:1069BC00B8F1000F12D147FA01F101F00101304694
:1069CC00FFF7BDFF01212846FFF7B9FF002128463C
:1069DC00FFF7B5FF013CE9D2BDE8F08147FA04F1BD
:1069EC00EBE7704738B50A4B03600123044643615B
:1069FC000849202000F074F8202560600549A56046
:106A0C00284600F06DF8C4E90305204638BD00BFE8
:106A1C001800010074760B0030B50E4D2978BFF3C9
:106A2C005B8F11F0010487B011D12846FDF73EFBB6
:106A3C0068B16846FFF7D6FF6A4621460648FEF75E
:106A4C0051FF2846FDF737FB044800F05DF902487A
:106A5C0007B030BD2CE7032030E70320EF690B00B3
:106A6C007047000038B5044614252A46002100F072
:106A7C005FF925804025074925812846258200F0AD
:106A8C002FF804496060284600F02AF8E0602046A0
:106A9C0038BD00BF74760B0030B50E4D2978BFF3AE
:106AAC005B8F11F0010487B011D12846FDF7FEFA77
:106ABC0068B101A8FFF7D6FF01AA21460648FFF7E7
:106ACC0079FD2846FDF7F7FA044800F01DF9024855
:106ADC0007B030BD44E7032048E703206D6A0B0084
:106AEC00FDF7D3BA014900F0F9B800BF90760B005E
:106AFC007FB500241023CDE90234036815469E6946
:106B0C0012686B46CDE90044B0479DF8043003F0A1
:106B1C000603062B03BF009B2B600120204604B00C
:106B2C0070BD0098904214BF0120062070470000F1
:106B3C0010B5034B0360044600F0CDF8204610BDA1
:106B4C00D0760B0010B50446FFF7F2FF2046082163
:106B5C00FDF79DFA204610BD2DE9F0411F46DDE9F9
:106B6C000834DDF8188098450646154607D1079974
:106B7C0000F0B4F818B165710020BDE8F081394619
:106B8C00304600F0ABF80028F6D00123C4F80080A2
:106B9C002571A371F0E738B515461C4600F09EF838
:106BAC0020B10823E36006232560237138BD73B53B
:106BBC0005460C4601921E4600F090F850B9032E83
:106BCC0008D82368019A5B692946204602B0BDE8C3
:106BDC007040184702B070BD10B5034B03600446FB
:106BEC00FFF7A6FF204610BD30770B0010B504460A
:106BFC00FFF7F2FF20460C21FDF749FA204610BDA5
:106C0C00F7B5089F974205460E4614460AD0A86869
:106C1C0002680897156A31462246AC4603B0BDE8B7
:106C2C00F04060471946019300F058F8019B00288A
:106C3C00EDD0062003B0F0BD2DE9F14F0D461946FD
:106C4C00DDE90A4BDDE90CA681461746984600F0B3
:106C5C0045F890B1002D3460377109DB61198A4514
:106C6C000CBF06210121B171002001B0BDE8F08FED
:106C7C000235F9D10123B371F6E7544506D15946D3
:106C8C00484600F02BF808B17771EDE7D9F8080009
:106C9C000368CDE90CA6CDE90A4BDC693A464346BC
:106CAC002946A44601B0BDE8F04F60472DE9F041FC
:106CBC0007460C4615461E46FFF76DFF48B9B868E7
:106CCC0003689F692A4633462146BC46BDE8F0411D
:106CDC006047BDE8F081704700207047814208B5DD
:106CEC000ED0406803782A2B0CD049680B782A2BDD
:106CFC0008BF013100F052F8B0FA80F0400908BD2D
:106D0C000120FCE70020FAE7002301461A4618464A
:106D1C0000F056B80A44914200F1FF3300D170479D
:106D2C0010B511F8014B03F8014F9142F9D110BD88
:106D3C0002440346934200D1704703F8011BF9E764
:106D4C0038B5104B1D68AB6B0446B3B91820FEF771
:106D5C001BFD0246A86320B90B4B0C484221FEF7E1
:106D6C003BFD0B490B4BC0E900130B4B83600B2312
:106D7C00838100210120C2E90401AB6B00221C615C
:106D8C005A6138BDD4E5032069770B0080770B007E
:106D9C000E33CDAB34126DE6ECDE050010F8012B92
:106DAC0011F8013B012A28BF9A42F7D0D01A70473C
:106DBC00034613F8012B002AFBD1181A013870472F
:106DCC002DE9F843DFF8B8800646D8F800001F46D6
:106DDC000D46914600F056F8254B1C6834B9254CED
:106DEC001C60254B13B11B68C4F8883063681F2BDB
:106DFC0007DDD8F8000000F047F84FF0FF30BDE891
:106E0C00F8834EB3D4F8880088B91C4B23B9D8F852
:106E1C00000000F038F8F0E74FF48470FEF7B4FC93
:106E2C000028F4D00023C0E94033C4F8880063681C
:106E3C0040F8239001229A4000EB8301D0F80031F6
:106E4C001343C0F80031022EC1F8807002BFD0F895
:106E5C0004311343C0F804316368D8F800005A1C9D
:106E6C000233626044F8235000F00EF80020C6E7AD
:106E7C00E8E703205CE703200000000095570B00B7
:106E8C0038E6032070477047704700001D400B0028
:106E9C0059400B0081400B0085400B0000000000A6
:106EAC0043616C6C206F6E20707572652076697210
:106EBC007475616C0044697374616E6365203D2068
:106ECC0025690A000000FF00FF00FF000077FF00AB
:106EDC0000FFFF0000FF0000FFFF000077FF000035
:106EEC00FF000000FF0077002C01000018000000DC
:106EFC00F40100002C010000500000000000000014
:106F0C00003E5B4F5B3E3E6B4F6B3E1C3E7C3E1C23
:106F1C00183C7E3C181C577D571C1C5E7F5E1C0069
:106F2C00183C1800FFE7C3E7FF0018241800FFE720
:106F3C00DBE7FF30483A060E2629792926407F05E3
:106F4C000507407F05253F5A3CE73C5A7F3E1C1CF9
:106F5C0008081C1C3E7F14227F22145F5F005F5FB9
:106F6C0006097F017F006689956A606060606094A5
:106F7C00A2FFA29408047E040810207E20100808AA
:106F8C002A1C08081C2A08081E101010100C1E0CB5
:106F9C001E0C30383E3830060E3E0E060000000047
:106FAC000000005F00000007000700147F147F142E
:106FBC00242A7F2A12231308646236495620500073
:106FCC0008070300001C2241000041221C002A1C5F
:106FDC007F1C2A08083E080800807030000808084A
:106FEC000808000060600020100804023E5149456A
:106FFC003E00427F400072494949462141494D3388
:10700C001814127F1027454545393C4A49493141EE
:10701C00211109073649494936464949291E0000BC
:10702C001400000040340000000814224114141411
:10703C001414004122140802015909063E415D59FD
:10704C004E7C1211127C7F494949363E4141412206
:10705C007F4141413E7F494949417F090909013E30
:10706C00414151737F0808087F00417F4100204057
:10707C00413F017F081422417F404040407F021C69
:10708C00027F7F0408107F3E4141413E7F09090980
:10709C00063E4151215E7F0919294626494949324C
:1070AC0003017F01033F4040403F1F2040201F3F12
:1070BC004038403F63140814630304780403615997
:1070CC00494D43007F4141410204081020004141D9
:1070DC00417F040201020440404040400003070885
:1070EC000020545478407F28444438384444442881
:1070FC00384444287F385454541800087E09021828
:10710C00A4A49C787F0804047800447D40002040AF
:10711C00403D007F1028440000417F40007C0478F3
:10712C0004787C080404783844444438FC1824243B
:10713C001818242418FC7C080404084854545424BB
:10714C0004043F44243C4040207C1C2040201C3C38
:10715C004030403C44281028444C9090907C44642F
:10716C00544C4400083641000000770000004136C2
:10717C00080002010204023C2623263C1EA1A16148
:10718C00123A4040207A385454555921555579417A
:10719C002154547841215554784020545579400C51
:1071AC001E52721239555555593954545459395532
:1071BC005454580000457C410002457D4200014575
:1071CC007C40F0292429F0F0282528F07C545545E2
:1071DC00002054547C547C0A097F49324949493275
:1071EC003248484832324A4848303A4141217A3A8A
:1071FC0042402078009DA0A07D39444444393D4054
:10720C0040403D3C24FF2424487E4943662B2FFC00
:10721C002F2BFF0929F620C0887E090320545479AE
:10722C00410000447D413048484A32384040227A7F
:10723C00007A0A0A727D0D19317D2629292F2826FC
:10724C002929292630484D40203808080808080804
:10725C000808382F10C8ACBA2F102834FA00007B5D
:10726C00000008142A142222142A1408AA0055001B
:10727C00AAAA55AA55AA000000FF00101010FF0082
:10728C00141414FF001010FF00FF1010F010F01475
:10729C001414FC001414F700FF0000FF00FF14147A
:1072AC00F404FC141417101F10101F101F141414C6
:1072BC001F00101010F0000000001F101010101F05
:1072CC0010101010F010000000FF10101010101013
:1072DC00101010FF10000000FF140000FF00FF0052
:1072EC00001F10170000FC04F414141710171414CA
:1072FC00F404F40000FF00F714141414141414F71D
:10730C0000F7141414171410101F101F141414F475
:10731C00141010F010F000001F101F0000001F14BC
:10732C00000000FC140000F010F01010FF10FF140F
:10733C001414FF141010101F00000000F010FFFFB9
:10734C00FFFFFFF0F0F0F0F0FFFFFF000000000087
:10735C00FFFF0F0F0F0F0F38444438447C2A2A3E8E
:10736C00147E02020606027E027E026355494163C8
:10737C003844443C04407E201E2006027E020299C2
:10738C00A5E7A5991C2A492A1C4C7201724C304A5B
:10739C004D4D303048784830BC625A463D3E4949E4
:1073AC0049007E0101017E2A2A2A2A2A44445F448C
:1073BC004440514A444040444A51400000FF0103BC
:1073CC00E080FF000008086B6B0836123624360686
:1073DC000F090F06000018180000001010003040B4
:1073EC00FF0101001F01011E00191D1712003C3C7A
:1073FC003C3C000000000000000000000000000009
:10740C000000000000000000B54A0B00E55B0B001B
:10741C00A1400B00CD470B00F3480B000F490B00AC
:10742C008B480B0029490B005F490B007B490B0073
:10743C000000000000000000414E0B00D14E0B007C
:10744C00B54A0B00E55B0B00454E0B00CD470B001E
:10745C00CD4C0B005D4B0B008B480B0029490B00EE
:10746C005F490B007B490B0000000000000000008E
:10747C0000000000000000007B580B0071580B004E
:10748C0067580B005D580B0051580B0045580B000A
:10749C00C15A0B00C95A0B0039580B0031580B005C
:1074AC0027580B001D580B00F95A0B000000000068
:1074BC000000000099580B00E3580B00BB580B0060
:1074CC009B580B00C3580B00CB580B00D3580B0028
:1074DC00DB580B00000000000000000065590B0099
:1074EC0055590B0057590B006170700000000000DB
:1074FC0000000000815A0B008B5A0B00955A0B00B0
:10750C009F5A0B00A95A0B00B55A0B00C15A0B001D
:10751C00C95A0B00D15A0B00DD5A0B00E55A0B006F
:10752C00EF5A0B00F95A0B000008101820283038BD
:10753C00776972696E670072656376206572726F27
:10754C0072203D20256400000000000000000000B7
:10755C00D55F0B00F95F0B002B650B0007600B0070
:10756C00D95F0B00000000000000000085600B00DC
:10757C00B9600B00515F0B006B5F0B00C1630B001C
:10758C00955F0B0037620B00C95F0B00C9620B00E3
:10759C0009610B0065620B0075640B0005620B0042
:1075AC00CB5F0B007D5F0B000D600B00E9600B00E7
:1075BC0025592D256D2D25645425483A254D3A2500
:1075CC0053257A0061736374696D650000000000D7
:1075DC000000000045650B00B1650B0089650B00D0
:1075EC00E55B0B0059650B0075650B0067650B00BF
:1075FC0083650B0047650B004B650B00000000001A
:10760C0000000000EF650B0057660B002D660B00A9
:10761C00E55B0B001F660B00F1650B0001660B00B0
:10762C0051660B0011660B00E9650B0000000000B1
:10763C000000000057670B004D670B0043670B0001
:10764C00F9660B0037670B002B670B00C15A0B0058
:10765C00C95A0B001F670B0017670B000D670B0057
:10766C0003670B00F95A0B0000537431395F5370E8
:10767C005F6D616B655F7368617265645F74616790
:10768C0000000000D0760B0075760B0030770B00F5
:10769C00A4760B0054770B004E31305F5F63787823
:1076AC00616269763131375F5F636C6173735F74EC
:1076BC007970655F696E666F450000000000000020
:1076CC0098760B003D6B0B00516B0B00E56C0B00BF
:1076DC00E56C0B00BB6B0B00FD6A0B00A36B0B0086
:1076EC00656B0B002F6B0B0030770B0000770B00DA
:1076FC0098760B004E31305F5F6378786162697603
:10770C003132305F5F73695F636C6173735F74797F
:10771C0070655F696E666F45000000000000000038
:10772C00F4760B00E56B0B00F96B0B00E56C0B00B2
:10773C00E56C0B00BB6B0B00FD6A0B00B96C0B000E
:10774C00456C0B000D6C0B00D0760B005C770B00BE
:10775C00537439747970655F696E666F0052454574
:10776C004E54206D616C6C6F63207375636365653B
:10777C00646564002F746D702F6A656E6B696E732F
:10778C002D4743432D31302D706970656C696E65E2
:10779C002D34385F32303230313132345F31363063
:1077AC00363138303633392F7372632F6E65776C00
:1077BC0069622F6E65776C69622F6C6962632F73D7
:1077CC0074646C69622F72616E642E630000000039
:1077DC0091420B00BD470B000D580B0085580B0058
:1077EC00715A0B00D15B0B00F15C0B002D5F0B0091
:1077FC0031650B0061670B00000000000000000009
:04780C000000000078
:10781000040000001400000003000000474E550063
:10782000C18C6A3AF948F071E5A47649FA0D158FD2
:04783000792D1ACEC6
:047834000000000050
:10783800000103070F1F3F7F0080C0E0F0F8FCFE47
:107848000000000000000000000000000000000030
:107858000000000000000000000000000000000020
:107868000000000000000000000000000000000010
:107878000000000000000000000000000000008080
:1078880080800000000000000000000000000000F0
:10789800008080C0C0000000000000000000000060
:1078A80000000000000000000000000000000000D0
:1078B80000000000000000000000000000000000C0
:1078C80000000000000000000000000000000000B0
:1078D8000000000080C0E0F0F8FCF8E000000000C4
:1078E8000000000000000000000000000080808010
:1078F800808000808000000000808080808000FF01
:10790800FFFF000000008080808000008080000071
:1079180080FFFF80800080800080808080008080E1
:107928000000000000808000008C8E84000080F839
:10793800F8F88000000000000000000000000000CF
:10794800F0F0F0F0F0F0F0F0F0F0F0F0E0E0C080EF
:1079580000E0FCFEFFFFFF7FFFFFFFFFFF000000CE
:107968000000000000000000000000FEFFC7010149
:10797800010183FFFF00007CFEC70101010183FFB5
:10798800FFFF0038FEC78301010183C7FFFF000026
:1079980001FFFF010100FFFF0701010100007FFF58
:1079A80080000000FFFF7F0000FFFFFF000001FFD5
:1079B800FFFF0100000000000000000000000000C0
:1079C800030F3F7F7FFFFFFFFFFFFFFFE7C7C78F63
:1079D8008F9FBFFFFFC3C0F0FFFFFFFFFFFCFCFC52
:1079E800FCFCFCFCFCF8F8F0F0E0C0000103030329
:1079F8000303010303000000000103030303010163
:107A08000301000000010303030301010303000055
:107A18000003030000000303000000000000000151
:107A28000303030303010000000103010000000336
:107A3800030100000000000000000000000000003A
:107A480000000080C0E0F0F9FFFFFFFFFF3F1F0FBD
:107A580087C7F7FFFF1F1F3DFCF8F8F8F87C7DFF8C
:107A6800FFFFFFFFFFFFFF7F3F0F070030300000E1
:107A780000000000000000000000000000000000FE
:107A880000000000FEFEFC000000000000000000F6
:107A980000000000000000000000000000E0C0003E
:107AA800000000000000000000003030000000006E
:107AB80000000000000000000000000000000000BE
:107AC80000C0FEFFFFFFFFFFFFFFFFFF7F7F3F1F9D
:107AD8000F071F7FFFFFF8F8FFFFFFFFFFFEF8E02B
:107AE800000000010000000000000000FEFE000091
:107AF80000FCFEFC0C06060EFCF80000F0F81C0E5C
:107B08000606060CFFFFFF0000FEFE00000000FC5A
:107B1800FEFC00183C7E66E6CE84000006FFFF06E9
:107B280006FCFEFC0C0606060000FEFE0000C0F87F
:107B3800FC4E4646464E7C7840183C76E6CECC80D5
:107B4800000000000000000000000000000000002D
:107B58000000000001070F1F1F3F3F3F3F1F0F039B
:107B68000000000000000000000000000F0F0000EF
:107B7800000F0F0F000000000F0F000003070E0C8E
:107B880018180C060F0F0F0000010F0E0C180C0F21
:107B9800070100040E0C180C0F070000000F0F005F
:107BA800000F0F0F0000000000000F0F000000077B
:107BB800070C0C181C0C060600040E0C180C0F07FA
:107BC80000000000000000000000000000000000AD
:107BD800000000000000000000000000000000009D
:107BE800000000000000000000000000000000008D
:107BF800000000000000000000000000000000007D
:107C0800000000000000000000000000000000006C
:107C1800000000000000000000000000000000005C
:107C2800000000000000000000000000000000004C
:107C3800000000000000000000000000000000003C
:107C4800D0750B00D8E503200000000000000000FC
:107C5800000000000000000000000000000000001C
:107C6800000000000000000000000000000000000C
:107C780000000000000000000000000000000000FC
:107C880000000000000000000000000000000000EC
:107C980000000000000000000000000000000000DC
:0C7CA8000000000000000000ECE70320DA
:107CB400FFFFFFFF00000102030405060708090A8D
:107CC4000B0C0D0E0F101112131415161718191A88
:087CD4001B1C1D1E1F202800CF
:047CDC007856341290
:04000003B000401CED
:00000001FF
