:02000002B0004C
:1040000000400B00749B0B00000006000C00050232
:084010000401A60F00000000EE
:04401800A88A0B0067
:10401C0009480A49884208B505D0094A824202D0AB
:10402C00121A04F0D5FB0748074A0021121A04F0B3
:10403C00DDFB014808BD00BFE0D70320C8960B008C
:10404C0064DC032064DC0320EDE7032070B5074E2D
:10405C00074C03F099FCA41BA4080025AC4200D12A
:10406C0070BD56F8043B98470135F7E770960B0086
:10407C0098960B0000F046B808B500F0F5F8BDE8CE
:10408C00084003F039BC02F0B3BA02F0B1BA02F046
:10409C00B7BA000008B5034A03490C2002F004FA31
:1040AC00FEE700BF15610B00BC8A0B000078B0FA6C
:1040BC0080F04009704701230370704710B5034B23
:1040CC000360044601F05CFC204610BDDC8B0B0049
:1040DC0010B50446FFF7F2FF204640F26C51FFF793
:1040EC00D6FF204610BD0EB403B503AB002153F828
:1040FC00042B019302F0EAFD02B05DF804EB03B06F
:10410C007047000070B503F071FB4FF4165103F0CB
:10411C005DFB002002F010F843F6982504460020C1
:10412C0002F00AF8001B61F10001A84271F10003D2
:10413C0007D203F05BFB03F04DFB10B902F0E8F97A
:10414C00EDE703F053FB03F045FB2D4D2D482E4EB0
:10415C0000F041FC00231A461946686802F008FA80
:10416C00002368681A46194602F0E2F900226868D2
:10417C00114602F0E5F9044628B103F037FB31464D
:10418C00FFF7B1FFF2E703F031FB2049FFF7ABFF7C
:10419C000121102003F068FC0121112003F064FCC4
:1041AC0021460F2003F060FC2146112003F06DFC2A
:1041BC002146102003F069FC012002F051FA012184
:1041CC00112003F062FC204601F09EFF21461120D5
:1041DC0003F05BFC0121102003F057FC482001F098
:1041EC0093FF02210A483C2201F0DAFA084801F058
:1041FC00EFF921461220BDE8704003F035BC00BF3A
:10420C0018E7032024E60320D18A0B00D38A0B0085
:10421C0000E60320F8B50446124817460D461E4624
:10422C0000F028FE0F4800F00FFCF9B20D480D4FBE
:10423C0000F0F9FDAC4206DAA1B23246384600F085
:10424C00AFFD0134F6E7074800F0FEFB642002F0F6
:10425C0007FA044800F00EFE024800F0F5FB284671
:10426C00F8BD00BF24E6032070B52DED048B1220A1
:10427C0082B003F023FCC84C206003F0B7FA22682C
:10428C00C649FFF730FFC64B22681B689A4240F3C1
:10429C001C83C44B00225868114602F051F90646A3
:1042AC00002859D1C04DC14BC14C1968284602F0A9
:1042BC0064FE40F2BB13BF49AB6305F1280002F06A
:1042CC005CFEBD4B0093BD4833462246294601F0A7
:1042DC00E3FD2368C82B40F0DA8203F087FA6168AB
:1042EC0002F0E9FBB64801F053FDB54801F050FD72
:1042FC0009EE100AB24801F04BFD08EE900AB048E6
:10430C0001F046FD08EE100A03F070FAAD4902F018
:10431C00BFFB03F06BFAB8EE490A022102F0C7FCAE
:10432C0003F064FAA84902F0B3FB03F05FFAB8EEAD
:10433C00680A022102F0BBFC03F058FAA34902F010
:10434C00A7FB03F053FAB8EE480A022102F0AFFCC7
:10435C0041F2883002F084F99D489E4C01F038F906
:10436C009B4801F0ADF99A48022100F044FF01226C
:10437C001146974800F032FF9548022100F031FFBA
:10438C009348012100F032FF934B94491A689048EE
:10439C00FFF7A9FE8E4801F093F90021102003F0DD
:1043AC0074FB482001F0B0FE0F2003F087FB206067
:1043BC0003F01CFA22688A49FFF795FE01211020B0
:1043CC0003F063FB482001F09FFE2368B3F5C87F20
:1043DC0006DA4FF47F03322202210020FFF71AFF86
:1043EC002368A3F5C873B3F5167F06D24FF47F0389
:1043FC00642202210020FFF70DFF2368A3F57A73D6
:10440C00B3F57A7F06D24FF47F0396220221002067
:10441C00FFF700FF2368A3F5FA63B3F57A7F06D2A2
:10442C004FF47F03C82202210020FFF7F3FE22681D
:10443C0040F6B7339A4206DD4FF47F03FF22022188
:10444C000020FFF7E7FE0021102003F01EFB4820A0
:10445C0001F05AFE0F2003F031FB606003F0C6F947
:10446C0062686049FFF73FFE0121102003F00DFB4D
:10447C00482001F049FE6368B3F5C87F06DA4FF0B7
:10448C00FF13322205210320FFF7C4FE6368A3F556
:10449C00C873B3F5167F06D24FF0FF1364220521C3
:1044AC000320FFF7B7FE6368A3F57A73B3F57A7F41
:1044BC0006D24FF0FF13962205210320FFF7AAFE28
:1044CC006368A3F5FA63B3F57A7F06D24FF0FF1356
:1044DC00C82205210320FFF79DFE626840F6B73322
:1044EC009A4206DD4FF0FF13FF2205210320FFF750
:1044FC0091FE0021102003F0C8FA482001F004FEC0
:10450C000F2003F0DBFAA06003F070F9A2683649C3
:10451C00FFF7E9FD0121102003F0B7FA482001F064
:10452C00F3FDA368B3F5C87F05DA304B32220821BE
:10453C000620FFF76FFEA368A3F5C873B3F5167FCB
:10454C0005D22A4B642208210620FFF763FEA368DC
:10455C00A3F57A73B3F57A7F05D2244B9622082102
:10456C000620FFF757FEA368A3F5FA63B3F57A7F2D
:10457C0005D21E4BC82208210620FFF74BFEA2686D
:10458C0040F6B7339A4233DD184BFF220821062040
:10459C00FFF740FE2CE000BF70DC0320D68A0B0036
:1045AC00E0D7032018E7032038E60320E4D70320E4
:1045BC0084E60320EB8A0B00058B0B0074DC0320D4
:1045CC0090E00320098B0B00158B0B00208B0B004C
:1045DC0000E6032098E60320FCE503205C8B0B002F
:1045EC004D8B0B00608B0B00738B0B00FF00770067
:1045FC000021102003F049FA482001F085FD0F201E
:10460C0003F05CFAE06003F0F1F8E268B149FFF7FF
:10461C006AFD0121102003F038FA482001F074FDE6
:10462C00E368B3F5C87F05DAFF2332220B2109209A
:10463C00FFF7F0FDE368A3F5C873B3F5167F05D259
:10464C00FF2364220B210920FFF7E4FDE368A3F5A7
:10465C007A73B3F57A7F05D2FF2396220B210920BA
:10466C00FFF7D8FDE368A3F5FA63B3F57A7F05D2BB
:10467C00FF23C8220B210920FFF7CCFDE26840F68E
:10468C00B7339A4205DDFF231A460B210920FFF7A9
:10469C00C1FD0021102003F0F8F9482001F034FD91
:1046AC000F2003F00BFA206103F0A0F822698A496D
:1046BC00FFF719FD0121102003F0E7F9482001F064
:1046CC0023FD2369B3F5C87F06DA4FF47F4332220A
:1046DC000D210C20FFF79EFD2369A3F5C873B3F5DC
:1046EC00167F06D24FF47F4364220D210C20FFF776
:1046FC0091FD2369A3F57A73B3F57A7F06D24FF453
:10470C007F4396220D210C20FFF784FD2369A3F52E
:10471C00FA63B3F57A7F06D24FF47F43C8220D219A
:10472C000C20FFF777FD226940F6B7339A4206DD7D
:10473C004FF47F43FF220D210C20FFF76BFD00216E
:10474C00102003F0A2F9482001F0DEFC0F2003F04A
:10475C00B5F9606103F04AF862696049FFF7C3FC80
:10476C000121102003F091F9482001F0CDFC2369C0
:10477C00B3F5C87F05DA5A4B32220F210E20FFF712
:10478C0049FD6369A3F5C873B3F5167F05D2544B85
:10479C0064220F210E20FFF73DFD6369A3F57A73A8
:1047AC00B3F57A7F05D24E4B96220F210E20FFF7E0
:1047BC0031FD6369A3F5FA63B3F57A7F05D2484BF3
:1047CC00C8220F210E20FFF725FD626940F6B73392
:1047DC009A4205DD424BFF220F210E20FFF71AFDF6
:1047EC000021102003F051F9482001F08DFC0F201E
:1047FC0003F064F9A06102F0F9FFA2693949FFF7EF
:10480C0072FC0121102003F040F9482001F07CFCDF
:10481C00A369B3F5C87F05DA334B32220F210E2082
:10482C00FFF7F8FC314CA369A3F5C873B3F5167FF9
:10483C0005D210212C4B64220846FFF7EBFCA36930
:10484C00A3F57A73B3F57A7F05D21021264B962205
:10485C000846FFF7DFFCA369A3F5FA63B3F57A7F8B
:10486C0005D21021204BC8220846FFF7D3FCA269C1
:10487C0040F6B7339A4223DD10211B4BFF2208462A
:10488C0002B0BDEC048BBDE87040FFF7C3BC02F076
:10489C00ADFF174902F0FCF802F0A8FF2468002CC9
:1048AC0005460BDA2D2102F0F7F861420A22284660
:1048BC0002F00BF9284602F0F2F849E52146F5E73B
:1048CC00122003F0FBF80B4B186002B0BDEC048B0C
:1048DC0070BD00BF868B0B00998B0B00AC8B0B0053
:1048EC0000FFFF00BF8B0B000077FF0098E6032052
:1048FC002C8B0B0070DC032013B502230822102133
:10490C001D481E4C00F08EF804211D4800F04AFE94
:10491C001C4801F08AFA1C49204602F01AFB04F1EB
:10492C00100001F07FFF184904F1280002F011FB80
:10493C00154904F13C0002F00CFB144C12491448CC
:10494C0002F007FB142300934FF4806204F22C4313
:10495C0004F12C01204601F02FF80E4B23600E4B76
:10496C000022C3E900220120A2F580329A6002B035
:10497C00BDE8104001F0A8BD24E6032038E6032072
:10498C0000E6032074DC0320D58A0B0090E00320A2
:10499C0088E60320DC8B0B0064DC032038B504466E
:1049AC00C0680D4608B101F02BFEA379062B0CBF95
:1049BC000420032010FB05F080B2A08001F018FE4B
:1049CC00E06028B1A288002103F010FF658038BD9B
:1049DC00A0806080FBE710B504460121C07903F08C
:1049EC0043F8E079002103F050F80123237010BD47
:1049FC0037B5037805460C461BB1C079002103F08E
:104A0C0033F82B78EC715BB1A0B20121019003F06B
:104A1C002BF80198002103B0BDE8304003F035B805
:104A2C0003B030BD70B50025044616468371C0E94D
:104A3C00035505700572FFF7B1FF20463146FFF7AD
:104A4C00D7FF204670BD0000C368002B00F0A48186
:104A5C002DE9F04F8379023BDBB2042B9CBFBF4A9C
:104A6C0052F8234085B0054688BF322401F054FB30
:104A7C002B69C01AA042F9D3B94CAE88D4F80035D2
:104A8C001BB9D4F86035002B7EDBB64CD4F800355E
:104A9C0023B9D4F86035002BC0F26E81B24CD4F837
:104AAC000035002B00F04481EB79B04AB04C126811
:104ABC00190102EB0313575CAE495B78D1F8FC206B
:104ACC0042F08072C1F8FC20226803F01F0343EA15
:104ADC00471301273A432260A988D5F80C80D4F8F3
:104AEC0004909F40002944D04FF0000E72464FF0C6
:104AFC00A04118F801CB0820802663689B1A462B2E
:104B0C00FBD96268D1F808351CEA060F43EA0703A3
:104B1C00C1F808352FD063689B1A282BFBD9D1F824
:104B2C000C35013843EA07034FEA5606C1F80C3539
:104B3C00E3D1AB880EF1010E1FFA8EFE7345D8D867
:104B4C004FF4307103FB01F163689B1A462BFBD9C0
:104B5C006368A3EB09098945C0F0E4804FF49670B3
:104B6C0001F0D2FAA988D5F80C80D4F80490002969
:104B7C00BAD10A46E8E763689B1A112BCFD8636851
:104B8C009B1A112BF7D9CAE7D4F86435002BBFF662
:104B9C007CAFD4F86835002BBFF677AFD4F86C3502
:104BAC00002BBFF672AF3601331D1846009301F08F
:104BBC001FFD00283FF478AFAB88002B00F0ED8090
:104BCC00EA68013B12FA83F702F1FF3E002348F238
:104BDC00060248F20D011EF801CF1CF0800F0CBF2D
:104BEC0093468B461CF0400F0CBF16460E461CF02D
:104BFC00200F0CBF9046884603F10109CDF80880C0
:104C0C00019603F102081FFA89F9019E20F813B0EE
:104C1C001FFA88F820F81960029E20F8186003F13A
:104C2C0003081CF0100F1FFA88F80CBF93468B4634
:104C3C0020F818B003F104081CF0080F1FFA88F8CC
:104C4C000CBF93468B4620F818B003F105081CF0F6
:104C5C00040F1FFA88F80CBF93468B4620F818B047
:104C6C0003F1080A03F1060807339BB21CF0020F8C
:104C7C001FFA88F80CBF93468B46CDF80CA01CF09D
:104C8C00010F20F818B015BF20F8131020F81320CE
:104C9C001FFA8AF3BDF80C3077459CD1591C0233AE
:104CAC0089B29BB249005B004FF400474752009A0F
:104CBC00C7522E4B56081F6800221423C4F8042533
:104CCC00C4F80C25C4F80835C4F81425C4F810250C
:104CDC00C4F82005C4F82465C4F82825C4F82C258C
:104CEC00EB7907EB031C1B010121FE5C9CF80130E6
:104CFC0003F01F0343EA4613C4F86035C4F80015EB
:104D0C00C4F81021A160D4F81031002BFBD0002383
:104D1C004FF0FF32C4F81031C4F80035C4F86025E8
:104D2C0001F06EFC01F0F8F9286105B0BDE8F08FD8
:104D3C00D4F86035002BBFF6B7AED4F86435002B31
:104D4C00BFF6B2AED4F86835002BBFF6ADAED4F8D2
:104D5C006C35002BBFF6A8AE25E700BF208C0B00EE
:104D6C0000C001400010024000200240B4E60320C5
:104D7C00001000E000ED00E0D4F86435002BBFF625
:104D8C008DAED4F86835002BBFF688AED4F86C35F0
:104D9C00002BBFF683AE06E770470423022183E79E
:104DAC0043888B42F0B52DD9067AC2F30743C2F380
:104DBC000724D5B23EB1734374437543C3F3072341
:104DCC00C4F307242D0A90F806C0C768BCF1060F7F
:104DDC000CBF042603264E43ACF1020CB919BCF1EE
:104DEC00060F1DD8DFE80CF0041C08040F040400A7
:104DFC00BC554B708D7005E0FE2B28BFFE23BB55B8
:104E0C004D708C70F0BDBB554C708D70037A120ECA
:104E1C0013B9D2B2CA70F5E75A43C2F30722F9E7C5
:104E2C00BB554C70E6E7037A4A1CD2B2934270B57C
:104E3C001FD0013B13F0FF03C4680CD0FF291FBF28
:104E4C00110201F1FF31B1FBF3F39BB204BF4FF63A
:104E5C00FF71B1FBF3F325468688291B89B28E427C
:104E6C0006D929785943C1F3072105F8011BF3E74B
:104E7C00027270BD8288C068002103F0B7BC0000CC
:104E8C0008B501F061F9014B186008BDB4E60320C8
:104E9C002DE9F04F85B01F46BDF93880BDF83C3088
:104EAC00A8EB0209A7EB010AB9F1000FB8BFC9F1D1
:104EBC000009BAF1000FB8BFCAF1000AD145834608
:104ECC000C46154604DD3A462C4647460D469046A0
:104EDC00BC4205DD2A464546904622463C461746CE
:104EEC003E1BB2B20092A8EB050282EAE271A1EB82
:104EFC00E271C6F3C03202FA86F64545B4BF012210
:104F0C004FF0FF32019176100292BC421CDCDBF8B0
:104F1C0000200393D145D2F81080C7BF2946224602
:104F2C002A4621465846C047019A039BB61AB1B28D
:104F3C0036B2002E05DA029A1544009A56182DB294
:104F4C0036B2013424B2E0E705B0BDE8F08F2DE9AC
:104F5C00F347BDF82C800768BDF92890CDF8008088
:104F6C000446FF6916468A461D46B8472368CDF8A5
:104F7C00008009F1FF323244DF6951462B4620464E
:104F8C0012B2B8472368CDF800809F6932464B4671
:104F9C0051462046B8476B1E03EB0A012368CDF837
:104FAC0028809D6932464B4609B22046AC4602B079
:104FBC00BDE8F047604737B5013B13440468BDF8C2
:104FCC00185001951BB2009364690B46A04703B0BF
:104FDC0030BD37B5BDF818500468CDE90025013B4C
:104FEC000B4464691BB2A04703B030BD2DE9F347F5
:104FFC00BDF92890BDF82C80054692460C46CE187B
:10500C00B4420BDA2B68CDF800809F6921464B46E1
:10501C00524628460134B84724B2F1E702B0BDE845
:10502C00F08713B502680191B0F90E100091546A23
:10503C00B0F90C3000221146A04702B010BD7047E9
:10504C0030B54281C2814FF0FF320024054D4261E0
:10505C0001224460056001818181046102838276B2
:10506C0030BD00BF38910B002DE9F04F2DED028BB8
:10507C008DB007460491BDF860100591BDF8641021
:10508C000691B0F90C1004989DF86850814252DDDD
:10509C00B7F90E1091424EDD062111FB0504002CD0
:1050AC0049DD02EBC504002C45DD03EB83030B93B8
:1050BC0093B2079308339BB2089100240993052CF3
:1050CC001CBF2C4B0B9A079E16BF1B1900239B5C15
:1050DC000393049AABB20A9304FB05F313FA82F31D
:1050EC001BB204EB020A08EE103AB0460FFA85F92F
:1050FC000FFA8AFA039BDB072FD5012D3B681FD1D2
:10510C00D3F810B0059B32B251463846D847039BB2
:10511C005B0803930A9B01369844099BB6B2B342D1
:10512C001FFA88F8E6D1089B013B013413F0FF030A
:10513C0064B20893C3D10DB0BDEC028BBDE8F08F07
:10514C00059ACDE9009218EE101AD3F824B00FFA94
:10515C0088F24B463846D847D9E7DDE90523934218
:10516C00D5D0012D3B6803D1D3F810B0069BCAE70C
:10517C00069AE6E7348C0B0030B50A2985B0044654
:10518C0007D1027E638A03EBC2036382002323826E
:10519C0021E00D291FD0037E0293C38A0193838AD9
:1051AC000093B0F912200B46B0F91010FFF75CFF1A
:1051BC00207E238A00EB400103EB4103A17E1BB24E
:1051CC000246238239B1B4F90C106FF0050505FBCA
:1051DC0000118B42D6DC012005B030BD0182428229
:1051EC007047012938BF012101767047C182818245
:1051FC007047407E704701F00303B0F90A204376F4
:10520C00C907B0F9083059BF8381C2818281C3813B
:10521C007047B0F90C007047B0F90E0070470000F1
:10522C00F0B5457EBDF81440022D69D0032D00F079
:10523C009980012D6CD10589D2432A4412B2002ADF
:10524C005DDBB0F90850954259DD0029BEBF5B18F3
:10525C001BB20021B0F90A00CD188542C4BF431A15
:10526C001BB2002B4BDDC1F3C400DFF820C102EBF5
:10527C00C01211F00701DBB20CEB02001AD0C1F125
:10528C000805404EEDB2AB42775D3FBFA5EB030E78
:10529C00FF2646FA0EF637401CF80260012C0CBFB4
:1052AC003E43BE43AB420CF8026028D308390B4492
:1052BC00DBB28030072B19D9012C4FF0FF3518BF0A
:1052CC000025EDB200F180011A46083AD2B2072A45
:1052DC0001F8805C01F18001F7D8A3F10802C2F358
:1052EC00C402013200EBC21003F007033BB1264AA3
:1052FC00D25C0378012C0CBF134393430370F0BDB5
:10530C004589D2432A44CD180189491B12B209B2EE
:10531C00002AF4DBB0F90A509542F0DD0029BEBF3B
:10532C005B181BB20021B0F90870CE18BE42C4BF86
:10533C006B1A1BB2002BE2DDD010802510FB05117F
:10534C001248014402F0070001228240012CD2B223
:10535C000B440CD18B42D2D011F8010B104301F845
:10536C00010CF7E7CD184189491B09B267E7D24315
:10537C00D2B28B42C3D011F8010B104001F8010CD2
:10538C00F7E700BFF0D70320E8D70320F8D70320B6
:10539C00F0B5457EBDF81440022D34D0032D00F03D
:1053AC009B80012D37D1D5180289521B12B20029CE
:1053BC00C0F29180B0F90A508D4240F38C80002AE3
:1053CC00BEBF9B181BB20022B0F90870D618BE42A3
:1053DC00C4BFAB1A1BB2002B7DDDC810802510FB9F
:1053EC0005224548024401F0070001218140012CAF
:1053FC00C9B2134475D19A426DD012F8010B08430F
:10540C0002F8010CF7E70589C9432944D5184289EC
:10541C00521B09B212B200295DDBB0F908508D4263
:10542C0059DD002ABEBF9B181BB20022B0F90A003E
:10543C00D5188542C4BF831A1BB2002B4BDDC2F3B7
:10544C00C400DFF8B4C001EBC01112F00702DBB2EC
:10545C000CEB01001AD0C2F10805284EEDB2AB429C
:10546C00775D3FBFA5EB030EFF2646FA0EF63740DD
:10547C001CF80160012C0CBF3E43BE43AB420CF840
:10548C00016028D3083A1344DBB28030072B19D9BA
:10549C00012C4FF0FF3518BF0025EDB200F1800153
:1054AC001A46083AD2B2072A01F8805C01F1800151
:1054BC00F7D8A3F10802C2F3C402013200EBC21008
:1054CC0003F007033BB10E4AD25C0378012C0CBFEE
:1054DC00134393430370F0BD4589C943294409B272
:1054EC0065E7C943C9B29A42F5D012F8010B0840DE
:1054FC0002F8010CF7E700BFF8D70320F0D7032020
:10550C00E8D7032070470000F8B50D1E0646144678
:10551C001F462DDBFFF77DFEA84229DD002C27DB83
:10552C003046FFF779FEA04222DD3046FFF761FEE0
:10553C0002281ED0032825D0012804D13389E24348
:10554C001A442C4615B2002C2246B8BFE21DD210CC
:10555C00802112FB01550E49012204F007044B5720
:10556C0002FA04F464B297420CBF2343A3434B5595
:10557C00F8BD318972890139E4434D1B14442DB2B5
:10558C0024B2E0E77389013B5B1B25461CB2DAE7CA
:10559C00F8D7032010B524210446FEF778FD2046E9
:1055AC0010BD000038B5402204460D468021FFF79F
:1055BC0047FD064B2360FF2384F8213063774FF6B9
:1055CC00FF73E38384F82050204638BD70910B00A4
:1055DC0002484FF48062002103F008B9F8D7032089
:1055EC0013B50B4C2178BFF35B8F11F001010BD17C
:1055FC0020460191FEF75AFD019928B1054801F0AA
:10560C00A3FB2046FEF757FD024802B010BD00BFB9
:10561C00B8E60320BCE6032007B590F8223043B16E
:10562C000191FFF7DDFF019903B05DF804EB01F088
:10563C003FBC0B46817F407F012203B05DF804EB39
:10564C0002F053BA38B590F91D30013304460D46BB
:10565C001DD090F92100012180B202F016FA94F9C4
:10566C001F00002180B202F010FA94F921000021F1
:10567C0080B202F00AFA29462046FFF7CDFF94F9D2
:10568C0021000121BDE8384080B202F0FEB902F0E1
:10569C0069FA94F91B1001F081F802F063FA0368BF
:1056AC0000219B68984702F05DFA036829469B68C5
:1056BC00984702F057FABDE8384001F076B8000080
:1056CC00F8B521210446FFF7BDFF00212046FFF766
:1056DC00B9FF7F212046FFF7B5FF22212046FFF7B7
:1056EC00B1FF00212046FFF7ADFF07212046FFF751
:1056FC00A9FF94F91D30294F01332AD094F92100C8
:10570C00012180B202F0C1F994F91F00012180B28D
:10571C0002F0BBF994F92100002180B202F0B5F936
:10572C00012000F0F1FC4FF48065013D17F8011BDE
:10573C002046ADB2FFF770FF002DF6D1012000F02E
:10574C00E3FC94F921000121BDE8F84080B202F09D
:10575C009CB9002502F006FA94F91B1001F01EF812
:10576C0002F000FA036840219B68984705F1100687
:10577C00B6B202F0F7F90368795D9B6898476B1C29
:10578C009DB2AE42F5D102F0EDF901F00EF8B6F58E
:10579C00806F00D1F8BD3546DCE700BFF8D7032099
:1057AC0038B590F91D300177013304460D46C276A9
:1057BC0000F0C98090F91F00012180B202F054F969
:1057CC0094F92100012180B202F04EF994F82230B4
:1057DC00002B00F0A68094F92100012180B202F088
:1057EC0054F9FFF7FDFE012101F0CCFAFFF7F8FEAA
:1057FC00102101F037FBFFF7F3FE002101F0D6FA80
:10580C00FFF7EEFE01F0AAFA94F92000012180B214
:10581C0002F02AF994F92000012180B202F035F946
:10582C00012000F01DFF94F92000002180B202F04D
:10583C002CF90A2000F014FF94F92000012180B209
:10584C0002F023F92046AE21FFF7FCFE2046D521BD
:10585C00FFF7F8FE20468021FFF7F4FE2046A82132
:10586C00FFF7F0FE20463F21FFF7ECFE2046D32148
:10587C00FFF7E8FE20460021FFF7E4FE204640211A
:10588C00FFF7E0FE8D212046FFF7DCFE012D0CBF5B
:10589C00102114212046FFF7D5FE20462021FFF7CA
:1058AC00D1FE20460021FFF7CDFE2046A121FFF7B7
:1058BC00C9FE2046C821FFF7C5FE2046DA21FFF7B6
:1058CC00C1FE20461221FFF7BDFE81212046FFF7C5
:1058DC00B9FE012D0CBF9F21CF212046FFF7B2FE50
:1058EC00D9212046FFF7AEFE012D0CBF2221F1215C
:1058FC002046FFF7A7FE2046DB21FFF7A3FE20463C
:10590C004021FFF79FFE2046A421FFF79BFE204677
:10591C00A621FFF797FE2046AF21BDE83840FFF7E0
:10592C0091BE94F91D00012180B202F09DF894F90A
:10593C001E00012180B202F097F894F82230002B5F
:10594C003FF462AF47E702F00DF900F01DFF5BE793
:10595C0010B5054B0360037C04461BB9406808B1C5
:10596C0000F04EFE204610BDA8910B0010B5044669
:10597C00FFF7EEFF20461421FEF789FB204610BDF1
:10598C0010B5074B0360037C04461BB9406908B192
:10599C0000F036FE2046FFF7DBFF204610BD00BFAF
:1059AC00B8910B0010B50446FFF7EAFF20462C21F6
:1059BC00FEF76DFB204610BD10B5C0E901120022A8
:1059CC00C260012202744361024A029B0260C361FD
:1059DC0010BD00BFB8910B002DE9F04F44684FF09B
:1059EC00010C4FF0FF36D0F800E0964580F0B981FD
:1059FC0011F80E80B8F1000F00F0B381B8F13A0F36
:105A0C0000F0988033D8B8F1220F00F0A68010D89F
:105A1C00A8F109085FFA88F8B8F1170F0DD89F4D57
:105A2C000CFA08F818EA050F07D00568013505606F
:105A3C00D9E7B8F12C0F00F03381D0F80080424543
:105A4C000ED911F808505DB13A2D00F269811F2D65
:105A5C0000F251810A2D00F26081082D40F256812E
:105A6C00002B40F0628108F1FF350560A5E0B8F12C
:105A7C007B0F37D02ED8B8F15B0F33D0B8F15D0F58
:105A8C00DBD1002BD1D04FF002094568013D03EB6F
:105A9C000518002D55DBD8F8047001374DD0D8F817
:105AAC0008A0BAF1FF3F48D198F800B0CB454BD1D4
:105ABC000EF1010EC0F808A0C8F808E003EB051EB3
:105ACC00DEF80470013742D0DEF8087001373ED1A1
:105ADC008560AAE7B8F17D0FAFD1002BA5D04FF0B0
:105AEC000109D2E70134002B9FD04568099FAF42D2
:105AFC004AD905F1010EC0F804E003EB051ECEE90E
:105B0C0001664FEA051A0025CEF80C5085686F1C0B
:105B1C001FBF03EB0519D9F80C500135C9F80C500F
:105B2C00B8F17B0F0CBF0125022503F80A5005685C
:105B3C00CEF804504568013DCAE7013DA8F11008B4
:105B4C00A7E701357FF471AF6FF001041EE0013D52
:105B5C006F1CAEF1100EB3D167E70EF10109C0F85E
:105B6C000090D0F80080424540F2938011F8085024
:105B7C00002D00F08E80222D30D1F3B14568099FA5
:105B8C00AF4206D8C0F800E04FF0FF342046BDE825
:105B9C00F08F05F1010E4FEA051803EB0515C0F85F
:105BAC0004E0C5E901660027EF60D0F800E04FF093
:105BBC00030A03F808A0C5E9019E85686F1C04F16F
:105BCC0001043FF432AF002B3FF42FAF03EB051E63
:105BDC00DEF80C500135CEF80C5026E75C2D11D1B7
:105BEC0008F10105AA420DD905604D5D752D2BD824
:105BFC006D2D0BD8662D27D85B2D1DD8222D01D0ED
:105C0C002F2D21D1056801350560AAE76E3D072DC2
:105C1C001AD801A757F825F0115C0B00555C0B0046
:105C2C00555C0B00555C0B00115C0B00555C0B00BC
:105C3C00115C0B005B5C0B005C3DEDB20CFA05F5E6
:105C4C0040F241473D42DDD1C0F800E07CE708F16D
:105C5C00020505604FF0040AD0F80080424503D8D5
:105C6C000568013D0560CDE711F80850002DF7D00F
:105C7C00A5F1300BBBF1090F04D925F02005413DEE
:105C8C00052DE1D808F10105BAF1010A0560E3D14F
:105C9C00E6E7C0F800E06FF0020477E7130080003D
:105CAC00002B3FF4C2AE85686F1C3FF4BEAE2D01D5
:105CBC005D5D013D012D7FF6B8AE456805F1FF38FD
:105CCC0003EB051EB8F1000FFFF6AFAE1EF8105C2B
:105CDC00013D012D0AD85EF80C5C013506D05EF84A
:105CEC00085C013502D1C0F808809EE608F1FF3847
:105CFC00AEF1100EE6E7A5F12009244F5FFA89F901
:105D0C000CFA09F919EA070F7FF4AAAE203D5E2DB3
:105D1C009AD808F1010505608FE60D2DF6D19FE6A6
:105D2C0005F0DF09B9F15D0FF8E74568099FAF424F
:105D3C007FF628AF05F101084FEA051903EB0515AD
:105D4C00C0F80480C5E901660027EF60D0F8008038
:105D5C004FF0040A03F809A0C5E901E80568013D04
:105D6C0083E6002B3FF412AF4268511E03EB021383
:105D7C000029FFF60BAF53F80C2C013203D053F86B
:105D8C00082C013287D00139103BF1E701100004D7
:105D9C00F7B5C268044612B9002003B0F0BD4369E0
:105DAC0000F12006ABB10021C0E908114FF0FF3122
:105DBC008162C169009141683046FFF70DFE431CBA
:105DCC0028D1257C002DE7D1606900F019FC6561B4
:105DDC00E56100254FF0FF37C4E90855E2686168BA
:105DEC00A76200952B463046FFF7F6FD0028D3DB63
:105DFC00E06117D0000100F0FBFBE2696061034633
:105E0C000092C4E90855E2686168A7623046FFF762
:105E1C00E3FD01E00028BFDB636903EB0010A06128
:105E2C000120BAE76369A361FAE710B5044601F0F3
:105E3C000BFC204610BD000038B50446154600F09A
:105E4C0027FE0549204600F023FE29462046BDE8E2
:105E5C00384000F030BE00BF298B0B0038B505462A
:105E6C00144600F015FE0B49284600F011FE002CDC
:105E7C000DDA2D21284600F00FFE614228460A2239
:105E8C0000F023FE2846BDE8384000F008BE21464D
:105E9C00F4E700BF298B0B002DE9F04F0E4691B0B3
:105EAC0098464FF0FF331360044600213046DDF86E
:105EBC006890174601F08EF8D6F838E0034698B98A
:105ECC00BEF1000F14BF72465022316892B22046C8
:105EDC0001F0BAF9051E18BF0125C5B9204611B04D
:105EEC00BDE8F04F01F066BB754B0A9306F1140C3C
:105EFC00BCE80F000BAD0FC5DCF800302B701FFA9F
:105F0C008EF200230AA9204601F07EFAE2E7494608
:105F1C00204600F0BDFD6B49204600F0B9FDB16A8A
:105F2C00204600F0B5FD6849204600F0B1FD6749F8
:105F3C00674A2046FFF780FF0021304601F04AF8FF
:105F4C0020B9326863492046FFF776FF06F13C0A18
:105F5C000021504601F03EF828B9726C5E4920468B
:105F6C00FFF77CFF06E05D49484602F075FC0246EF
:105F7C000028F3D0B8F1000F0ED0D8F8001059B1AA
:105F8C00D8F80420204622B1FFF756FF08F1080884
:105F9C00F3E700F090FDF9E7204600F080FD204685
:105FAC0001F0B2F80021504601F014F818B9F16B69
:105FBC00204600F080FD04F11C0A4FF480620021A1
:105FCC00504602F013FC00F0AFF8019000F0ACF872
:105FDC004FF00008464641F2883B204601F090FA0B
:105FEC00D8B1204601F076F8814600F09DF840F2D9
:105FFC00FE339E42019004D8A31983F81C900136FD
:10600C00EBE740F2FF339E42F9D1002384F81B34B6
:10601C00204601F0CFFAA846F1E7A319187700F053
:10602C0083F8019BA0EB0309B8F1000F04D1D9450B
:10603C0002D8C82000F014FB204601F083F920B1EF
:10604C00D94502D8B8F1000FC7D0204601F0B2FAFA
:10605C00514602A800F07DFF0C23092202A906A8D4
:10606C0000F0DCFF1E490AA800F073FF0AA902A881
:10607C0000F0D1FF04460AA800F020FF631C08D1F1
:10608C0006A800F01BFF02A800F018FF11B0BDE835
:10609C00F08F3D1D1349284600F06FFF221D02A909
:1060AC000AA800F0DBFF0AA9284600F08FFF0AA817
:1060BC0000F004FF069802F087FB3860E0E700BFB1
:1060CC0070920B002A8B0B00C0910B00D2910B002D
:1060DC00CC910B00DD910B00E2910B00F1910B00C8
:1060EC00F6910B00D58A0B0008B5024B1B685B6C54
:1060FC00019308BD4802030008B5024B1B685B689E
:10610C00019308BD1802030008B5024B1B68DB683D
:10611C00019308BD1802030008B5024B1B681B69EC
:10612C00019308BD1802030008B5024B1B685B699C
:10613C00019308BD1802030008B5024B1B68DB6D08
:10614C00019308BD1802030008B5024B1B681B68BD
:10615C00019308BD2C02030008B5024B1B685B6859
:10616C00019308BD2C02030008B5024B1B689B6809
:10617C00019308BD2C02030008B5024B1B68DB68B9
:10618C00019308BD2C02030008B5024B1B681B6968
:10619C00019308BD2C02030008B5024B1B681B6B56
:1061AC00019308BD2C02030008B5024B1B68DB6889
:1061BC00019308BD2802030008B5024B1B689B69BC
:1061CC00019308BD2802030008B5024B1B68DB696C
:1061DC00019308BD2802030008B5024B1B681B6A1B
:1061EC00019308BD2802030008B5024B1B685B6ACB
:1061FC00019308BD2802030008B5024B1B689B6A7B
:10620C00019308BD2802030008B5024B1B68DB6A2A
:10621C00019308BD2802030008B5024B1B681B6BD9
:10622C00019308BD2802030008B5024B1B685B6B89
:10623C00019308BD2802030008B5024B1B681B6CB8
:10624C00019308BD2802030008B5024B1B685B696B
:10625C00019308BD6C02030008B5024B1B685B6917
:10626C00019308BD6402030008B5024B1B681B6A4E
:10627C00019308BD6402030008B5024B1B689B6ABE
:10628C00019308BD6402030008B5024B1B689B68B0
:10629C00019308BD6802030008B5024B1B68DB685C
:1062AC00019308BD6802030008B5024B1B689B698B
:1062BC00019308BD3802030008B5024B1B68DB696B
:1062CC00019308BD3802030008B5024B1B681B6A1A
:1062DC00019308BD3802030008B5024B1B689B6A8A
:1062EC00019308BD3802030008B5024B1B681B6BF9
:1062FC00019308BD3802030008B5024B1B689B6B69
:10630C00019308BD3802030008B5024B1B681B68DB
:10631C00019308BD3002030008B5024B1B689B6853
:10632C00019308BD3002030008B5024B1B68DB6803
:10633C00019308BD3002030008B5024B1B681B69B2
:10634C00019308BD3002030008B5024B1B685B6962
:10635C00019308BD3002030008B5024B1B68DB69D2
:10636C00019308BD3002030008B5024B1B681B6A81
:10637C00019308BD3002030008B5024B1B685B6A31
:10638C00019308BD3002030008B5024B1B681B6C5F
:10639C00019308BD3002030008B5024B1B685B6C0F
:1063AC00019308BD3002030008B5024B1B68DB6883
:1063BC00019308BD3C02030008B5024B1B681B6926
:1063CC00019308BD3C02030008B5024B1B685B69D6
:1063DC00019308BD3C02030008B5024B1B689B6986
:1063EC00019308BD3C02030008B5024B1B68DB6936
:1063FC00019308BD3C02030008B5024B1B681B6AE5
:10640C00019308BD3C02030008B5024B1B689B6A54
:10641C00019308BD3C02030008B5024B1B681B6CC2
:10642C00019308BD3C02030008B5024B1B681B68B6
:10643C00019308BD4C02030008B5024B1B685B6856
:10644C00019308BD4C02030008B5024B1B681B6985
:10645C00019308BD4C02030008B5024B1B685B6935
:10646C00019308BD4C02030008B5024B1B689B69E5
:10647C00019308BD4C02030008B5024B1B68DB6995
:10648C00019308BD4C02030008B5024B1B681B6A44
:10649C00019308BD4C02030008B5024B1B689B6AB4
:1064AC00019308BD4C02030008B5024B1B685B6BE3
:1064BC00019308BD6002030008B5024B1B681B6DFD
:1064CC00019308BD6002030008B5024B1B685B68B2
:1064DC00019308BD2002030008B5024B1B685B69E1
:1064EC00019308BD2002030008B5034B1B68D3F8C9
:1064FC008830019308BD00002002030008B5034B4F
:10650C001B68D3F89430019308BD000020020300EF
:10651C0008B5024B1B689B68019308BD440203003D
:10652C0008B5024B1B68DB6B019308BD44020300EA
:10653C0008B5024B1B685B68019308BD4002030061
:10654C0008B5024B1B689B68019308BD4002030011
:10655C0008B5024B1B68DB68019308BD40020300C1
:10656C0008B5024B1B681B69019308BD4002030070
:10657C0008B5024B1B685B69019308BD4002030020
:10658C0008B5024B1B689B69019308BD40020300D0
:10659C0008B5024B1B68DB69019308BD4002030080
:1065AC0008B5024B1B681B6A019308BD400203002F
:1065BC0008B5024B1B681B6B019308BD400203001E
:1065CC0008B5024B1B685B6B019308BD40020300CE
:1065DC0008B5024B1B681B6C019308BD40020300FD
:1065EC0008B5024B1B685B6C019308BD40020300AD
:1065FC0008B5024B1B681B68019308BD1C02030005
:10660C0008B5024B1B685B68019308BD1C020300B4
:10661C0008B5024B1B689B68019308BD1C02030064
:10662C0008B5024B1B685B6A019308BD1C02030092
:10663C0008B5024B1B68DB6B019308BD1C02030001
:10664C0008B5024B1B681B6C019308BD1C020300B0
:10665C0008B5024B1B685B6C019308BD1C02030060
:10666C000021FFF739BF0000024800230360FFF749
:10667C003BBD00BFC4E60320002240681146FFF773
:10668C008FBF002240681146FFF79ABF4068002276
:10669C00FFF78EBF4068002281F00101FFF778BF41
:1066AC00002340681A461946FFF76ABF002340686A
:1066BC001A461946FFF75CBF002240681146FFF7E7
:1066CC004FBF002240681146FFF73ABF40680022D6
:1066DC000221FFF73DBF002340681A46FFF728BF91
:1066EC00024B03225A60024A1A607047C8E6032024
:1066FC000C920B007047F8B5064615460C468F18E1
:10670C00BC4206D0336814F8011B9B68304698478E
:10671C00F6E72846F8BD007C0022FFF75DBD007C43
:10672C000021FFF761BD007C0021FFF765BD007CF7
:10673C000021FFF769BD007C0021FFF76DBD10B58E
:10674C0014210446FDF7A3FC204610BD38B50446C1
:10675C0015464FF47A730022C4E90123094B2174C6
:10676C00084623602946FFF767FDBF3008D16B69E7
:10677C00DB0705D56868FFF743FFE868FFF740FFC4
:10678C00204638BD48920B000023007C1A4619465F
:10679C00FFF70ABD007C0022FFF70EBDC9B2FFF760
:1067AC00F9BF007C0022FFF70FBD0121FFF7F9BFF5
:1067BC00704710B518210446FDF769FC204610BD42
:1067CC00F0B5037D062B8DB00E4600F104074FF09B
:1067DC00000412D000F1080515F8011D0A223046FC
:1067EC0000F073F9AF42044419D0002CF4D02E21E0
:1067FC00304600F051F90444EEE72F236A4639463F
:10680C000A208DF80040FFF727FD684602F036F8A5
:10681C0033680246DB686946304698470446204692
:10682C000DB0F0BD10B5054B0446112240F8043BE9
:10683C00002101F0DBFF204610BD00BF70920B0061
:10684C000346074A10B543F8042B01F1100251F826
:10685C00044B43F8044B9142F9D10A781A7010BDDD
:10686C0070920B00037D042B04D14068003818BFD4
:10687C0001207047062B07D143683BB983682BB9BD
:10688C00C3681BB90069F1E700207047012070470D
:10689C0010B59DF8084044EA032343EA024242EA59
:1068AC00016104234160037510BD000007B5064B60
:1068BC000360CB7800938B784A780978FFF7E8FF70
:1068CC0003B05DF804FB00BF70920B00014B024A51
:1068DC001A607047D0E603207C920B0000234068BE
:1068EC001A46FFF725BE406800220221FFF730BE92
:1068FC00002240681146FFF723BE00224068114673
:10690C00FFF72EBE002340681A461946FFF730BE2B
:10691C00002340681A461946FFF732BE4068002132
:10692C00FFF756BE40680021FFF75ABE40680022B0
:10693C0081F00101FFF72CBE40680022FFF738BE42
:10694C00002240681146FFF73BBE0022406811460A
:10695C00FFF726BE2DE9F04395B014460D460746C9
:10696C00FFF760FF00211C220DA8009101F03EFFF3
:10697C0040230C9320466B460CAA0021FFF78CFC9D
:10698C00044600284BD1024601216868FFF7E8FD58
:10699C000221804622466868FFF7E2FD009E814690
:1069AC002146002E3BD0002939D17368022B03D02D
:1069BC000A2B11D0F669F4E7B8F1000FFAD071691F
:1069CC0006A8043107ADFFF771FF0FCD3C1D0FC4B6
:1069DC002B6823704146EDE7B9F1000FEAD07469DA
:1069EC00102201A801F002FF06238DF8143001AD2E
:1069FC0004F108031834186859682A4603C208338E
:106A0C00A3421546F7D101A906A807ADFFF718FF59
:106A1C000FCD3C1D0FC42B6823704946CAE7009864
:106A2C00FFF732FC384615B0BDE8F083024B034A41
:106A3C001A6000225A607047D4E6032088920B003B
:106A4C00F8B506460D468F180024BD420CD03368AD
:106A5C0015F8011B9B6830469847031E01DB1C444C
:106A6C00F3E7002C08BF1C462046F8BD13B50446BE
:106A7C00084659B1019101F001FF23680199DB68C7
:106A8C000246204602B0BDE81040184702B010BDC7
:106A9C0008B5FFF7EBFF08BD03689B68184738B5CE
:106AAC000D210546FFF7F8FF0A2104462846FFF79B
:106ABC00F3FF204438BD38B50546FFF7D7FF044631
:106ACC002846FFF7ECFF204438BD30B58BB00023CF
:106ADC00012A8DF8243098BF0A2209AC0D46B1FB6F
:106AEC00F2F101FB125303F0FF03092B94BF303377
:106AFC003733DBB2AA4204F8013DEFD92146FFF748
:106B0C00B5FF0BB030BD00002DE9F74F55EC104B25
:106B1C0006460F4610EE102A10EE100A2B46294698
:106B2C0001F0EEFD40B153493046FFF79FFF82461E
:106B3C00504603B0BDE8F08F25F000494E4B4FF0A6
:106B4C00FF322046494601F0DBFD48B94A4B4FF075
:106B5C00FF322046494601F0B5FD08B94749E3E745
:106B6C00474B4FF060422046294601F0BFFD08B16B
:106B7C004449D9E7444B4FF060422046294601F086
:106B8C0097FD0028F4D1002200232046294601F06D
:106B9C008FFDD0B12D213046FFF77EFF05F100436C
:106BAC0082461D463949DFF8EC904FF0000B00206F
:106BBC004FF000085FFA8BF39F4208D942464B46D0
:106BCC0001F02EFC0BF1010BF4E78246EAE72246BA
:106BDC002B4601F045F90D46044601F0CFFD8046E9
:106BEC0001F07AFA02460B462046294601F036F9A6
:106BFC000A2204460D4630464146FFF766FF8244A2
:106C0C00002F95D02249DFF88C903046FFF72EFFED
:106C1C004FF000088244002F8AD042464B46204653
:106C2C00294601F0D3FA04460D4601F07FFDB0F180
:106C3C00000B1CDA2D213046FFF72EFFCBF10001A3
:106C4C0003460A2230460193FFF73FFF019B18448D
:106C5C008244584601F050FA02460B46204629461B
:106C6C0001F0FCF8013F04460D46FFB2D3E759464C
:106C7C000023E6E7BC920B00FFFFEF7FC0920B00F6
:106C8C00FFFFEF41C4920B00FFFFEFC10000E03F9C
:106C9C00D18A0B000000244038B5C9B20546FFF775
:106CAC0033FF04462846FFF7FAFE204438BD38B5BA
:106CBC00044610EE100A0D4601F030FA41EC100BB0
:106CCC0029462046BDE83840FFF7E6BF2DE9F041E4
:106CDC0086B000AF05460E46381D142114463B60A5
:106CEC00FFF79EFC13280ED8391D2846FFF7BEFE71
:106CFC0004461EB12846FFF7D2FE0444204618373E
:106D0C00BD46BDE8F08100F1080323F00703E84617
:106D1C00ADEB030D2246411C3B686846FFF780FC37
:106D2C0069462846FFF7A2FE0446C546E1E7000087
:106D3C00014B00229A607047DCE603200021FFF72C
:106D4C002BBB0021FFF720BB10B504460846217071
:106D5C00FFF702FB00236360204610BD13B5044609
:106D6C000078FFF7EEFF58B9207801904FF6FF71CD
:106D7C00FFF7CAFA019802B0BDE81040FFF7DEBF7A
:106D8C0002B010BD13B5044600780191FFF7D9FF8E
:106D9C00019948B920780190FFF7BEFA019802B02A
:106DAC00BDE81040FFF7CABF02B010BD13B50446D2
:106DBC0000780191FFF7C5FF019948B9207801903F
:106DCC00FFF7B2FA019802B0BDE81040FFF7B6BF6A
:106DDC0002B010BD400830B5186000241868884215
:106DEC00E5B206D90134082C02D040081860F5E74A
:106DFC000725024B5B5D137030BD00BFC8920B00C2
:106E0C002DE9F04188B000230446007802930E4629
:106E1C001746FFF796FF054600BB94F80080014625
:106E2C00142203A801F0E2FC0B232A4603A94046D6
:106E3C00ADF80C30FFF7A0FA04988DF8075002ABB0
:106E4C000DF1070207FB06F1FFF7C4FF20789DF850
:106E5C000710FFF771FA2078FFF770FF029808B05F
:106E6C00BDE8F08138B5044600780D46FFF769FFA0
:106E7C000346D0B9616899B10C4A12F8010B8542EE
:106E8C0002D00133082BF8D10133DBB20122D940F7
:106E9C002046FFF7B5FF2078BDE83840FFF74EBF1E
:106EAC0020782946FFF748FAF5E738BDC8920B0061
:106EBC0008B50078FFF748FAC0B208BD10B5044613
:106ECC000068FFF79DFB204610BD10B50446006816
:106EDC0008B1FFF795FB0023C4E90133236010BD13
:106EEC0038B504460D4600680131FFF791FB10B12F
:106EFC00C4E90005012038BD10B50368044623B170
:106F0C0043688B4201D3012010BD2046FFF7E8FFF8
:106F1C000028F9D0A368002BF5D122681370F2E792
:106F2C0037B50D46114601920446FFF7E5FF019A6D
:106F3C0028B92046FFF7C9FF204603B030BDA26038
:106F4C002946206801F044FC2268A3680021D15432
:106F5C00F2E7002313B5C0E90033044683600373E2
:106F6C0041B10846019101F089FC01990246204685
:106F7C00FFF7D6FF204602B010BD13B5044659B139
:106F8C000846019101F07AFC019902462046FFF770
:106F9C00C7FF204602B010BDFFF797FFF9E770B5A9
:106FAC0005460E4609B9002070BD6AB184681444C8
:106FBC002146FFF7A1FF0028F5D02868AB683146C1
:106FCC00184401F053FCAC600120EDE78A680968B5
:106FDC00FFF7E5BF08B582683AB921B10878B0FA75
:106FEC0080F0400900E0012008BD006809B9007874
:106FFC00F5E701F031FCF2E710B58368934207D94D
:10700C0004680968A01801F041FC08B1001B10BD10
:10701C004FF0FF30FBE70022FFF7EEBFF8B59A42C6
:10702C000F461D460C4988BF13461446064684BFBE
:10703C002C461D46FFF78DFFBB68A3420AD3396867
:10704C00AB4294BFC4EB0302C4EB050221443046AF
:10705C00FFF766FF3046F8BDD58A0B0010B5044625
:10706C008B68FFF7DBFF204610BD0000054B0222AA
:10707C001A60054B054A9A600020C3E90000FFF72F
:10708C0023BA00BFF8E60320ECE603200000FFFF64
:10709C0013B503688DF80710DC6B01224FF0FF333A
:1070AC000DF10701A04702B010BD10B40368DC6BF2
:1070BC004FF0FF33A4465DF8044B604713B51346FD
:1070CC0002688DF80710D46B0DF107010122A0475F
:1070DC0002B010BD10B54369B3F88620B3F8843004
:1070EC009A42044608D06369B3F88420511CA3F873
:1070FC0084101344187910BD03681B699847002845
:10710C00F1D14FF0FF30F6E7704743691868C04380
:10711C00C00F704770470000064B994210B500F144
:10712C000C0405D0084600F083FD002808BF00249D
:10713C00204610BDFC910B0010B5AC210446FCF7A9
:10714C00A6FF204610BDAC21FCF7A1BF2DE9F041F4
:10715C004FF0000886B01C46C0F8048005460E4669
:10716C0017464146102202A801F040FB631C09D0CF
:10717C004FF47A73B4FBF3F203FB1244CDE902280B
:10718C005C430494686910230093006802AB41F2DD
:10719C00050240F6FF71FFF787F8002807DAFFF7C2
:1071AC0047FA03686B60002006B0BDE8F08168699F
:1071BC00002300683A463146FFF796F8031EEEDBD3
:1071CC001846F1E738B584690A4B036005467CB173
:1071DC006368013B63605BB9236820469B689847F2
:1071EC00A368013BA3601BB923682046DB68984762
:1071FC00284638BD0C930B0010B50446FFF7E2FF90
:10720C0020461C21FCF743FF204610BD30B587B04B
:10721C00044601AD6846FFF749FB0FCD04340FC49B
:10722C002B68237007B030BD70B54D69054B044613
:10723C008C3544F8043B06460FCD0FC42B682370E5
:10724C00304670BD70920B002DE9F04398460368F0
:10725C0093B00D460024DB6A06461746984728462D
:10726C006B46224621460094FFF716F80546002887
:10727C0063D1009B002B4BD05B69002B48D006A838
:10728C00FFF7D0FA009B5C696378022B04D1211DB7
:10729C0006A8FFF7BBFF26E00A2B24D111222946B2
:1072AC0001A801F0A3FAA368002B38D004F108035D
:1072BC000DF1040C183418685968624603C208337F
:1072CC00A3429446F7D1062301A90CA88DF81430DB
:1072DC00FFF7B6FA0DF1340CBCE80F0007AC0FC485
:1072EC00DCF80030237006A8FFF7BCFA80B13368D5
:1072FC0007ADD3F82090124B0C930FCD0DAC0FC4EF
:10730C002B6823703A4643460CA93046C8470546BD
:10731C000098FEF7B9FF284613B0BDE8F083E36888
:10732C00002BC3D14FF6FF70D4F81090FEF79CFFE2
:10733C008145BBD104F11401AAE72546E8E700BF5B
:10734C0070920B0038B543691A68002A054610DAAA
:10735C00B3F88620B3F884309A420AD103681B69CB
:10736C009847044628B92B682846DB6A984720467C
:10737C0038BD0120FCE710B54369B3F88620B3F89B
:10738C0084309A42044605D06369B3F884201344D0
:10739C00187910BD03681B6998470028F4D14FF089
:1073AC00FF30F6E7F8B543691746B3F88620B3F813
:1073BC0084309A4205460E4616D06969B1F884307D
:1073CC00B1F88640E41ABC4228BF3C46043322463E
:1073DC001944304601F0FCF96A69B2F88430234450
:1073EC00A2F884302046F8BD03681B699847002832
:1073FC00E3D14FF0FF34F5E742690023A2F8843063
:10740C004269A2F8863070472DE9F0411F460368A7
:10741C000C46DB6A8AB0054616469847237DD5F89C
:10742C001480042B0CBF02200A2006220121FEF737
:10743C0063FFC8F800006B691B68002B08DA2B6827
:10744C002846DB6A0024984720460AB0BDE8F08144
:10745C002846FFF7D1FFB7B1002303A9F8B2039375
:10746C00ADF81030FEF7F0FE0028E8D1686906236D
:10747C000093006803AB41F20B0240F6FF71FEF77C
:10748C0013FF0028DBD11C22002103A801F0AEF968
:10749C00237D042B1DD14FF407733046ADF80C300F
:1074AC00FEF7EAFEADF80E006068FEF7DDFE049014
:1074BC006B691C22186803A9FEF706FF0028BED1D1
:1074CC0004340FCC6D698C350FC523682B700124E7
:1074DC00BAE740F61C233046ADF80C30FEF7CCFE74
:1074EC0005AEADF80E00231D04F114071868596899
:1074FC00324603C20833BB421646F7D1D8E7000028
:10750C0030B54269B2F886308BB004462BB1B2F874
:10751C0084209A4201D1FFF76FFF61690868002847
:10752C0018DBB1F886507F2D14D804310823C5F12F
:10753C0080022944FEF7D0FE002813DD6369B3F8FE
:10754C0086200AB9A3F884206369B3F88620104416
:10755C00A3F886006369B3F88600B3F88430C01AC8
:10756C000BB030BDFFF764F803680B2BF2D0FFF7BC
:10757C005FF803680B2BEDD020230025CDE90235F5
:10758C00FFF756F803680193084B0949009302AAC8
:10759C002B463220FEF790FF63691868FEF78CFECD
:1075AC0063694FF0FF321A60D4E700BFD7920B002B
:1075BC00D0920B0010B5436904461868002801DB13
:1075CC00FEF77AFE63694FF0FF321A606069112290
:1075DC0000218C3001F00AF92046BDE81040FFF77D
:1075EC000BBF10B5002304460160C0F8843088300E
:1075FC00FFF718F9204610BD73B500234FF47A72CB
:10760C00C0E901320E4A0361026043610446AC20BA
:10761C000191FCF738FD051E05F10C0608D001237D
:10762C00C5E90133074B01992B603046FFF7D9FFB1
:10763C002046C4E90565FFF7DFFE02B070BD00BF50
:10764C000C930B00F0920B0010B54FF0FF31044679
:10765C00FFF7D2FF204610BD10B504460068002885
:10766C0001DBFEF729FE204610BD0C30FFF7F4BFFE
:10767C00024B1A68024B1A60704700BFF8DB0320FC
:10768C00FCE6032070474174704708B5007CFEF798
:10769C00BBFE20EAE07008BD08B5007CFEF78CFE4E
:1076AC0020EAE07008BD08B5007CFEF795FE40EAC4
:1076BC00E07008BD08B5007CFEF786FE40EAE0707D
:1076CC0008BD007CFEF790BE37B5457C04462DB155
:1076DC00207C03B0BDE83040FEF766BE007C019113
:1076EC00FEF792FE00280199F2DC284603B030BD6B
:1076FC0010B514210446FCF7CAFC204610BD00004E
:10770C0010B54FF47A730446084611460022C4E9BA
:10771C000123044B2360012320746374FEF77CFE69
:10772C00204610BD74930B0041747047704770472E
:10773C0008B50021007CFEF797FE40EAE07008BD1A
:10774C0008B50121007CFEF78FFE40EAE07008BD11
:10775C0008B5007CFEF780FE20EAE07008BD08B595
:10776C00007CFEF771FE20EAE07008BD13B50446FC
:10777C00007C0191FEF770FE0028019901DC607C11
:10778C0020B1207CFEF778FE20EAE07002B010BD3C
:10779C00007CFEF779BE10B514210446FCF777FC8B
:1077AC00204610BD10B54FF47A73044608460021EC
:1077BC00C4E90113044B2360012320746374114644
:1077CC00FEF732FE204610BDA4930B00007C002275
:1077DC00FEF732BE007CFEF75FBE10B514220446E5
:1077EC00002101F003F8204610BD000010B50F4C2D
:1077FC0088B003A8FFF7F1FF2178BFF35B8F11F07E
:10780C0001010FD120460191FCF750FC019948B1C0
:10781C0003AA0748FFF7C6FF2046FCF74CFC0548B7
:10782C0000F0CCFF024808B010BD00BF00E70320F9
:10783C0004E7032039770B00002240681146FEF75D
:10784C008FBE002240681146FEF7AABE0022406897
:10785C001146FEF7B5BE40680022FEF7A9BE40688F
:10786C00002281F00101FEF793BE002340681A4606
:10787C001946FEF785BE002340681A461946FEF7E6
:10788C0077BE002240681146FEF75ABE40680022BF
:10789C000221FEF75DBE002340681A46FEF748BE83
:1078AC00024B04225A60024A1A60704718E7032000
:1078BC00D4930B00014B1860704700BFFCDB032016
:1078CC0008B50B4B43B1FFF791FF03681B69984751
:1078DC00002801DDAFF30080064B43B100F082F9C4
:1078EC0003681B699847002801DDAFF3008008BDD1
:1078FC00000000000000000008B5FFF7E1FFFEF7F4
:10790C0013FC014B186008BD28E703200548064A04
:10791C00064908B5121A00F05BFF054B054A1A60C0
:10792C0008BD00BF00F4032004F40320C4960B0030
:10793C0000F403201E1C279A07B5002300931A4657
:10794C006FF07701FEF7DAFD03B05DF804FB000081
:10795C0007B543880A2B08D0502B0BD1094B1B6859
:10796C004BB103B05DF804EB1847FFF7E5FF03B02C
:10797C005DF804FB002300931A466FF07701FEF7C5
:10798C00BDFDF4E724E7032010B512480021FEF7F3
:10799C005FFE114B1A68114B9A42114B0CBF01221E
:1079AC0000221A7001D0FFF7B1FFFEF7A5FB0446C9
:1079BC0000F024FF0B4B13B12046AFF300800021E5
:1079CC000848FEF7ADFDBDE8104007480021FEF762
:1079DC008BBD00BFC1780B0000F403201E1C279A3E
:1079EC0020E70320000000005D790B00232813B56D
:1079FC0002D9002002B010BDA0F10B03022B1AD843
:107A0C00174C2178BFF35B8F11F001010BD120468D
:107A1C000191FCF74BFB019928B11248FFF794F93F
:107A2C002046FCF748FB0F4B1878FEF79DFC00280E
:107A3C00DFD10120DEE7012809D800F093F80021FE
:107A4C00007CFEF7F1FB80F00100C0B2D2E70938F0
:107A5C000128EED800F0C6F8007CFEF7CDFCF2E76A
:107A6C00B8E60320BCE60320232838B504460D46AF
:107A7C000AD8FF2908D0FFF7B9FF28B129462046BC
:107A8C00BDE83840FEF770BB38BD38B504460D462E
:107A9C00FEF772FBFF2810D0062804D84D2323FADA
:107AAC0000F0C30709D42046FFF7A0FF28B12946F0
:107ABC002046BDE83840FEF767BB38BD0D2810B531
:107ACC0004469CBF0E34A4B22046FFF78FFF50B182
:107ADC0003212046FEF740FB032804D12046BDE8D5
:107AEC001040FEF759BB002010BD2DE9F041904627
:107AFC001F46072406460D46C4F10701B8F1000FD6
:107B0C0012D147FA01F101F001013046FFF7BDFF38
:107B1C0001212846FFF7B9FF00212846FFF7B5FFE2
:107B2C00013CE9D2BDE8F08147FA04F1EBE770477C
:107B3C0038B50A4B036001230446436108492020F1
:107B4C0000F074F8202560600549A560284600F017
:107B5C006DF8C4E90305204638BD00BF18000100CC
:107B6C0008940B0030B50E4D2978BFF35B8F11F0E4
:107B7C00010487B011D12846FCF798FA68B1684621
:107B8C00FFF7D6FF6A4621460648FEF7DFFD28467A
:107B9C00FCF791FA044800F011FE024807B030BD22
:107BAC002CE7032030E703203B7B0B0070470000E1
:107BBC0038B5044614252A46002100F017FE25800E
:107BCC004025074925812846258200F02FF80449D5
:107BDC006060284600F02AF8E060204638BD00BFFF
:107BEC0008940B0030B50E4D2978BFF35B8F11F064
:107BFC00010487B011D12846FCF758FA68B101A8E6
:107C0C00FFF7D6FF01AA21460648FFF779FD284663
:107C1C00FCF751FA044800F0D1FD024807B030BD22
:107C2C0044E7032048E70320B97B0B00FCF72DBA8F
:107C3C00014900F0F9B800BF24940B007FB5002473
:107C4C001023CDE90234036815469E6912686B4611
:107C5C00CDE90044B0479DF8043003F00603062B31
:107C6C0003BF009B2B600120204604B070BD009820
:107C7C00904214BF012006207047000010B5034B42
:107C8C000360044600F0CDF8204610BD64940B0050
:107C9C0010B50446FFF7F2FF20460821FCF7F7F970
:107CAC00204610BD2DE9F0411F46DDE90834DDF812
:107CBC00188098450646154607D1079900F0B4F888
:107CCC0018B165710020BDE8F0813946304600F0EE
:107CDC00ABF80028F6D00123C4F800802571A371FD
:107CEC00F0E738B515461C4600F09EF820B1082385
:107CFC00E36006232560237138BD73B505460C4639
:107D0C0001921E4600F090F850B9032E08D8236853
:107D1C00019A5B692946204602B0BDE870401847BD
:107D2C0002B070BD10B5034B03600446FFF7A6FF0D
:107D3C00204610BDC4940B0010B50446FFF7F2FFAB
:107D4C0020460C21FCF7A3F9204610BDF7B5089F7F
:107D5C00974205460E4614460AD0A8680268089752
:107D6C00156A31462246AC4603B0BDE8F040604788
:107D7C001946019300F058F8019B0028EDD006201D
:107D8C0003B0F0BD2DE9F14F0D461946DDE90A4B64
:107D9C00DDE90CA681461746984600F045F890B1EF
:107DAC00002D3460377109DB61198A450CBF06213F
:107DBC000121B171002001B0BDE8F08F0235F9D17D
:107DCC000123B371F6E7544506D15946484600F0F5
:107DDC002BF808B17771EDE7D9F808000368CDE905
:107DEC000CA6CDE90A4BDC693A4643462946A44623
:107DFC0001B0BDE8F04F60472DE9F04107460C4655
:107E0C0015461E46FFF76DFF48B9B86803689F69B1
:107E1C002A4633462146BC46BDE8F0416047BDE8E2
:107E2C00F081704700207047814208B50ED0406841
:107E3C0003782A2B0CD049680B782A2B08BF013108
:107E4C0000F00AFDB0FA80F0400908BD0120FCE703
:107E5C000020FAE781F0004102E000BF83F000430C
:107E6C0030B54FEA41044FEA430594EA050F08BFC9
:107E7C0090EA020F1FBF54EA000C55EA020C7FEA8D
:107E8C00645C7FEA655C00F0E2804FEA5454D4EB0A
:107E9C005555B8BF6D420CDD2C4480EA020281EAD4
:107EAC00030382EA000083EA010180EA020281EA0C
:107EBC000303362D88BF30BD11F0004F4FEA01315E
:107ECC004FF4801C4CEA113102D0404261EB41016D
:107EDC0013F0004F4FEA03334CEA133302D05242F3
:107EEC0063EB430394EA050F00F0A780A4F10104AF
:107EFC00D5F1200E0DDB02FA0EFC22FA05F28018E9
:107F0C0041F1000103FA0EF2801843FA05F35941CE
:107F1C000EE0A5F120050EF1200E012A03FA0EFC4D
:107F2C0028BF4CF0020C43FA05F3C01851EBE37177
:107F3C0001F0004507D54FF0000EDCF1000C7EEB94
:107F4C0000006EEB0101B1F5801F1BD3B1F5001FD2
:107F5C000CD349085FEA30004FEA3C0C04F10104F1
:107F6C004FEA445212F5800F80F09A80BCF1004F1A
:107F7C0008BF5FEA500C50F1000041EB045141EA9C
:107F8C00050130BD5FEA4C0C404141EB0101013C65
:107F9C0028BFB1F5801FE9D291F0000F04BF014654
:107FAC000020B1FA81F308BF2033A3F10B03B3F126
:107FBC0020020CDA0C3208DD02F1140CC2F10C02B6
:107FCC0001FA0CF021FA02F10CE002F11402D8BF14
:107FDC00C2F1200C01FA02F120FA0CFCDCBF41EAE0
:107FEC000C019040E41AA2BF01EB0451294330BDAF
:107FFC006FEA04041F3C1CDA0C340EDC04F114048C
:10800C00C4F1200220FA04F001FA02F340EA030062
:10801C0021FA04F345EA030130BDC4F10C04C4F1A8
:10802C00200220FA02F001FA04F340EA0300294688
:10803C0030BD21FA04F0294630BD94F0000F83F4D2
:10804C00801306BF81F480110134013D4EE77FEAB5
:10805C00645C18BF7FEA655C29D094EA050F08BF01
:10806C0090EA020F05D054EA000C04BF19461046E2
:10807C0030BD91EA030F1EBF0021002030BD5FEA26
:10808C00545C05D14000494128BF41F0004130BD4E
:10809C0014F580043CBF01F5801130BD01F00045A2
:1080AC0045F0FE4141F470014FF0000030BD7FEA15
:1080BC00645C1ABF194610467FEA655C1CBF0B4610
:1080CC00024650EA013406BF52EA033591EA030F27
:1080DC0041F4002130BD00BF90F0000F04BF00211F
:1080EC00704730B54FF4806404F132044FF0000552
:1080FC004FF0000150E700BF90F0000F04BF0021CB
:10810C00704730B54FF4806404F1320410F0004530
:10811C0048BF40424FF000013EE700BF42004FEA2B
:10812C00E2014FEA31014FEA02701FBF12F07F43A8
:10813C0093F07F4F81F06051704732F07F4208BF5F
:10814C00704793F07F4F04BF41F40021704730B566
:10815C004FF4607401F0004521F000411CE700BFB2
:10816C0050EA010208BF704730B54FF000050AE035
:10817C0050EA010208BF704730B511F0004502D536
:10818C00404261EB41014FF4806404F132045FEA38
:10819C00915C3FF4D8AE4FF003025FEADC0C18BFE1
:1081AC0003325FEADC0C18BF033202EBDC02C2F1D3
:1081BC00200300FA03FC20FA02F001FA03FE40EA65
:1081CC000E0021FA02F11444BDE600BF70B54FF069
:1081DC00FF0C4CF4E06C1CEA11541DBF1CEA135547
:1081EC0094EA0C0F95EA0C0F00F0DEF82C4481EAAF
:1081FC00030621EA4C5123EA4C5350EA013518BFCF
:10820C0052EA033541F4801143F4801338D0A0FBBB
:10821C0002CE4FF00005E1FB02E506F00042E0FB68
:10822C0003E54FF00006E1FB03569CF0000F18BF6E
:10823C004EF0010EA4F1FF04B6F5007F64F5407416
:10824C0004D25FEA4E0E6D4146EB060642EAC621A9
:10825C0041EA55514FEAC52040EA5E504FEACE2E16
:10826C00B4F1FD0C88BFBCF5E06F1ED8BEF1004F19
:10827C0008BF5FEA500E50F1000041EB045170BD95
:10828C0006F0004646EA010140EA020081EA0301D9
:10829C00B4EB5C04C2BFD4EB0C0541EA045170BDD5
:1082AC0041F480114FF0000E013C00F3AB8014F14F
:1082BC00360FDEBF002001F0004170BDC4F1000498
:1082CC00203C35DA0C341BDC04F11404C4F1200519
:1082DC0000FA05F320FA04F001FA05F240EA020074
:1082EC0001F0004221F0004110EBD37021FA04F6AA
:1082FC0042EB06015EEA430E08BF20EAD37070BD64
:10830C00C4F10C04C4F1200500FA04F320FA05F0C2
:10831C0001FA04F240EA020001F0004110EBD370C4
:10832C0041F100015EEA430E08BF20EAD37070BD34
:10833C00C4F1200500FA05F24EEA020E20FA04F30D
:10834C0001FA05F243EA020321FA04F001F00041BC
:10835C0021FA04F220EA020000EBD3705EEA430E2D
:10836C0008BF20EAD37070BD94F0000F0FD101F05C
:10837C000046400041EB010111F4801F08BF013C95
:10838C00F7D041EA060195F0000F18BF704703F0D3
:10839C000046520043EB030313F4801F08BF013D5A
:1083AC00F7D043EA0603704794EA0C0F0CEA135516
:1083BC0018BF95EA0C0F0CD050EA410618BF52EAD0
:1083CC004306D1D181EA030101F000414FF00000D6
:1083DC0070BD50EA410606BF1046194652EA4306E4
:1083EC0019D094EA0C0F02D150EA013613D195EA58
:1083FC000C0F05D152EA03361CBF104619460AD1A0
:10840C0081EA030101F0004141F0FE4141F47001A9
:10841C004FF0000070BD41F0FE4141F4780170BD99
:10842C0070B54FF0FF0C4CF4E06C1CEA11541DBFFE
:10843C001CEA135594EA0C0F95EA0C0F00F0A7F800
:10844C00A4EB050481EA030E52EA03354FEA01312D
:10845C0000F088804FEA03334FF0805545EA131340
:10846C0043EA12634FEA022245EA111545EA106508
:10847C004FEA00260EF000419D4208BF964244F19F
:10848C00FD0404F5407402D25B084FEA3202B61ABE
:10849C0065EB03055B084FEA32024FF480104FF492
:1084AC00002CB6EB020E75EB030E22BFB61A754606
:1084BC0040EA0C005B084FEA3202B6EB020E75EB99
:1084CC00030E22BFB61A754640EA5C005B084FEA01
:1084DC003202B6EB020E75EB030E22BFB61A7546CE
:1084EC0040EA9C005B084FEA3202B6EB020E75EBD9
:1084FC00030E22BFB61A754640EADC0055EA060E9A
:10850C0018D04FEA051545EA16754FEA06164FEADC
:10851C00C30343EA52734FEAC2025FEA1C1CC0D188
:10852C0011F4801F0BD141EA00014FF000004FF015
:10853C00004CB6E711F4801F04BF01430020B4F1D6
:10854C00FD0C88BFBCF5E06F3FF6AFAEB5EB030C8E
:10855C0004BFB6EB020C5FEA500C50F1000041EB8B
:10856C00045170BD0EF0004E4EEA113114EB5C0458
:10857C00C2BFD4EB0C0541EA045170BD41F480112B
:10858C004FF0000E013C90E645EA060E8DE60CEA33
:10859C00135594EA0C0F08BF95EA0C0F3FF43BAF50
:1085AC0094EA0C0F0AD150EA01347FF434AF95EA07
:1085BC000C0F7FF425AF104619462CE795EA0C0FEB
:1085CC0006D152EA03353FF4FDAE1046194622E7B8
:1085DC0050EA410618BF52EA43067FF4C5AE50EA92
:1085EC0041047FF40DAF52EA43057FF4EBAE12E782
:1085FC004FF0FF3C06E000BF4FF0010C02E000BF63
:10860C004FF0010C4DF804CD4FEA410C7FEA6C5C45
:10861C004FEA430C18BF7FEA6C5C1BD001B050EAE8
:10862C00410C0CBF52EA430C91EA030F02BF90EAD3
:10863C00020F0020704710F1000F91EA030F58BF92
:10864C00994208BF90422CBFD8176FEAE37040F0F4
:10865C00010070474FEA410C7FEA6C5C02D150EA92
:10866C00013C07D14FEA430C7FEA6C5CD6D152EA4D
:10867C00033CD3D05DF8040B704700BF8446104612
:10868C0062468C461946634600E000BF01B5FFF711
:10869C00B7FF002848BF10F1000F01BD4DF808EDE1
:1086AC00FFF7F4FF0CBF012000205DF808FB00BFB2
:1086BC004DF808EDFFF7EAFF34BF012000205DF80C
:1086CC0008FB00BF4DF808EDFFF7E0FF94BF012059
:1086DC0000205DF808FB00BF4DF808EDFFF7CEFF5A
:1086EC0094BF012000205DF808FB00BF4DF808ED99
:1086FC00FFF7C4FF34BF012000205DF808FB00BF6A
:10870C004FEA410C7FEA6C5C02D150EA013C0AD181
:10871C004FEA430C7FEA6C5C02D152EA033C02D173
:10872C004FF0000070474FF0010070474FEA4102D4
:10873C0012F5001215D211D56FF47873B3EB6252A7
:10874C0012D94FEAC12343F0004343EA505311F0CE
:10875C00004F23FA02F018BF404270474FF0000060
:10876C00704750EA013005D111F0004008BF6FF09E
:10877C00004070474FF00000704700BF4A0011D214
:10878C0012F5001211D20DD56FF47873B3EB62525F
:10879C000ED44FEAC12343F0004343EA505323FA6B
:1087AC0002F070474FF00000704750EA013002D1E0
:1087BC004FF0FF3070474FF0000070470023014628
:1087CC001A46184600F004B90A22002100F0F6B847
:1087DC000A44914200F1FF3300D1704710B511F8F3
:1087EC00014B03F8014F9142F9D110BD02440346ED
:1087FC00934200D1704703F8011BF9E738B5104BD1
:10880C001D68AB6B0446B3B91820FDF7F1FE0246A8
:10881C00A86320B90B4B0C484221FDF711FF0B4903
:10882C000B4BC0E900130B4B83600B23838100219E
:10883C000120C2E90401AB6B00221C615A6138BDF6
:10884C00FCDB0320FD940B0014950B000E33CDAB19
:10885C0034126DE6ECDE050010F8012B11F8013B2B
:10886C00012A28BF9A42F7D0D01A7047034611F854
:10887C00012B03F8012B002AF9D17047034613F89A
:10888C00012B002AFBD1181A013870470A7870B5F1
:10889C006AB970BD9A4209D10C46054614F8013FDD
:1088AC00002BF6D015F8016F9E42F7D001300378FB
:1088BC00002BEFD11846ECE7012B2DE9F04701D046
:1088CC00242B06D9FDF7B4FE162303600020BDE867
:1088DC00F087DFF8E4C00D462E4615F8014B14F86E
:1088EC000C7017F00807F7D12D2C32D12C780127FA
:1088FC00B51C002B5BD0102B09D1302C07D12C7858
:10890C0004F0DF04582C4DD16C781023023507F19C
:10891C00004808F1FF384FF0000CB8FBF3F966463D
:10892C0003FB198AA4F1300EBEF1090F16D8744658
:10893C00A34224DDBCF1000F1EDBB1451CD301D1D9
:10894C00A24519DB06FB03464FF0010C15F8014B51
:10895C00E8E72B2C04BF2C78B51CCAE7A4F1410E18
:10896C00BEF1190F01D8373CE2E7A4F1610EBEF15C
:10897C00190F04D8573CDBE74FF0FF3CE6E7BCF19E
:10898C00000F05DA22230360464642B930469EE7C3
:10899C0007B17642002AF9D0BCF1000F00D0691E55
:1089AC001160F3E73024002BB1D10823AFE7302C52
:1089BC00A5D00A23ABE700BF6E950B0013460A4601
:1089CC00014602480068FFF777BF00BFFCDB0320BD
:1089DC002DE9F843DFF8B8800646D8F800001F46AA
:1089EC000D46914600F056F8254B1C6834B9254CC1
:1089FC001C60254B13B11B68C4F8883063681F2BAF
:108A0C0007DDD8F8000000F047F84FF0FF30BDE864
:108A1C00F8834EB3D4F8880088B91C4B23B9D8F826
:108A2C00000000F038F8F0E74FF48470FDF7E0FD3B
:108A3C000028F4D00023C0E94033C4F888006368F0
:108A4C0040F8239001229A4000EB8301D0F80031CA
:108A5C001343C0F80031022EC1F8807002BFD0F869
:108A6C0004311343C0F804316368D8F800005A1C71
:108A7C000233626044F8235000F00EF80020C6E781
:108A8C00E8E703205CE7032000000000FD650B0015
:108A9C0060DC032070477047704700001D400B00DE
:108AAC0059400B0081400B0085400B00000000007A
:108ABC0043616C6C206F6E207075726520766972E4
:108ACC007475616C002E000A0A0044697374616E3F
:108ADC00636520526561642069732025690A002F43
:108AEC006170692F312E312F77662F77656174682D
:108AFC0065727265706F727400474554004D616900
:108B0C006E2054656D703A20004C6F772054656D63
:108B1C00703A2000486967682054656D703A2000EF
:108B2C0048545450204745542072657175657374D0
:108B3C00206661696C65642C206572726F723A20D4
:108B4C00004C6576656C20300A2056616C7565208A
:108B5C0025690A004C6576656C20310A2056616CDB
:108B6C0075652025690A004C6576656C20320A20F3
:108B7C0056616C75652025690A004C6576656C201C
:108B8C00330A2056616C75652025690A004C6576A0
:108B9C00656C20340A2056616C75652025690A00C5
:108BAC004C6576656C20350A2056616C7565202500
:108BBC00690A004C6576656C20360A2056616C7526
:108BCC00652025690A00000000000000000000007C
:108BDC00C9400B00DD400B00676C756562656E6308
:108BEC00682E627562626C65617070732E696F00BD
:108BFC0066376663356634613362643330373035DB
:108C0C00626535363464353530643338313234345A
:108C1C00000000002C01000018000000F40100000E
:108C2C002C0100005000000000000000003E5B4FD3
:108C3C005B3E3E6B4F6B3E1C3E7C3E1C183C7E3CB0
:108C4C00181C577D571C1C5E7F5E1C00183C1800BE
:108C5C00FFE7C3E7FF0018241800FFE7DBE7FF304E
:108C6C00483A060E2629792926407F050507407FBC
:108C7C0005253F5A3CE73C5A7F3E1C1C08081C1C2F
:108C8C003E7F14227F22145F5F005F5F06097F0125
:108C9C007F006689956A606060606094A2FFA29410
:108CAC0008047E040810207E201008082A1C0808DE
:108CBC001C2A08081E101010100C1E0C1E0C30382C
:108CCC003E3830060E3E0E06000000000000005F2D
:108CDC0000000007000700147F147F14242A7F2A49
:108CEC00122313086462364956205000080703000B
:108CFC00001C2241000041221C002A1C7F1C2A0857
:108D0C00083E0808008070300008080808080000B9
:108D1C0060600020100804023E5149453E00427F2D
:108D2C00400072494949462141494D331814127F7C
:108D3C001027454545393C4A49493141211109071C
:108D4C003649494936464949291E0000140000009D
:108D5C00403400000008142241141414141400416F
:108D6C0022140802015909063E415D594E7C12112C
:108D7C00127C7F494949363E414141227F41414164
:108D8C003E7F494949417F090909013E41415173DF
:108D9C007F0808087F00417F41002040413F017F50
:108DAC00081422417F404040407F021C027F7F0418
:108DBC0008107F3E4141413E7F090909063E415161
:108DCC00215E7F09192946264949493203017F0151
:108DDC00033F4040403F1F2040201F3F4038403F52
:108DEC00631408146303047804036159494D430068
:108DFC007F4141410204081020004141417F04029F
:108E0C000102044040404040000307080020545435
:108E1C0078407F2844443838444444283844442813
:108E2C007F385454541800087E090218A4A49C7866
:108E3C007F0804047800447D40002040403D007FC2
:108E4C001028440000417F40007C047804787C08A2
:108E5C000404783844444438FC1824241818242476
:108E6C0018FC7C08040408485454542404043F445B
:108E7C00243C4040207C1C2040201C3C4030403C8A
:108E8C0044281028444C9090907C4464544C4400EA
:108E9C00083641000000770000004136080002014E
:108EAC000204023C2623263C1EA1A161123A40403A
:108EBC00207A3854545559215555794121545478B8
:108ECC0041215554784020545579400C1E52721251
:108EDC0039555555593954545459395554545800D9
:108EEC0000457C410002457D420001457C40F02953
:108EFC002429F0F0282528F07C54554500205454A2
:108F0C007C547C0A097F49324949493232484848E5
:108F1C0032324A4848303A4141217A3A424020782C
:108F2C00009DA0A07D39444444393D4040403D3C27
:108F3C0024FF2424487E4943662B2FFC2F2BFF094A
:108F4C0029F620C0887E090320545479410000443E
:108F5C007D413048484A32384040227A007A0A0A29
:108F6C00727D0D19317D2629292F2826292929269C
:108F7C0030484D4020380808080808080808382FE1
:108F8C0010C8ACBA2F102834FA00007B000008146B
:108F9C002A142222142A1408AA005500AAAA55AA97
:108FAC0055AA000000FF00101010FF00141414FF4D
:108FBC00001010FF00FF1010F010F0141414FC003F
:108FCC001414F700FF0000FF00FF1414F404FC1449
:108FDC001417101F10101F101F1414141F00101042
:108FEC0010F0000000001F101010101F10101010B7
:108FFC00F010000000FF101010101010101010FFD7
:10900C0010000000FF140000FF00FF00001F1017ED
:10901C000000FC04F414141710171414F404F400D6
:10902C0000FF00F714141414141414F700F714149C
:10903C0014171410101F101F141414F4141010F023
:10904C0010F000001F101F0000001F14000000FC97
:10905C00140000F010F01010FF10FF141414FF1483
:10906C001010101F00000000F010FFFFFFFFFFF0BA
:10907C00F0F0F0F0FFFFFF0000000000FFFF0F0F0B
:10908C000F0F0F38444438447C2A2A3E147E0202C7
:10909C000606027E027E0263554941633844443C15
:1090AC0004407E201E2006027E020299A5E7A599A7
:1090BC001C2A492A1C4C7201724C304A4D4D3030DE
:1090CC0048784830BC625A463D3E494949007E01C9
:1090DC0001017E2A2A2A2A2A44445F444440514AE8
:1090EC00444040444A51400000FF0103E080FF002F
:1090FC000008086B6B083612362436060F090F066B
:10910C00000018180000001010003040FF01010092
:10911C001F01011E00191D1712003C3C3C3C0000B5
:10912C000000000000000000000000000000000033
:10913C000000000085510B004D6A0B00A1400B0094
:10914C009D4E0B00C34F0B00DF4F0B005B4F0B0012
:10915C00F94F0B002F500B004B500B000000000080
:10916C000000000011550B00A1550B0085510B00A0
:10917C004D6A0B0015550B009D4E0B009D530B00BB
:10918C002D520B005B4F0B00F94F0B002F500B00B7
:10919C004B500B0000000000000000005D590B005C
:1091AC0079590B0000000000000000008D590B00E5
:1091BC00B1590B0020485454502F312E300D0A0059
:1091CC00636C6F736500436F6E6E656374696F6E6D
:1091DC0000484F535400436F6E74656E742D4C658C
:1091EC006E67746800504F5354000D0A0D0A00004E
:1091FC000000000000000000000000000000000063
:10920C00E3660B00D9660B00CF660B00C5660B003E
:10921C00B9660B00AD660B0029690B0031690B00B8
:10922C00A1660B0099660B008F660B0085660B0020
:10923C0061690B00000000000000000001670B00DA
:10924C004B670B0023670B0003670B002B670B00AE
:10925C0033670B003B670B0043670B0000000000FB
:10926C0000000000CD670B00BD670B00BF670B0053
:10927C00617070000000000000000000E9680B0045
:10928C00F3680B00FD680B0007690B0011690B00FC
:10929C001D690B0029690B0031690B0039690B0042
:1092AC0045690B004D690B0057690B0061690B0098
:1092BC006E616E00696E66006F76660000081018AD
:1092CC0020283038776972696E6700726563762082
:1092DC006572726F72203D20256400000000000052
:1092EC000000000021710B0045710B0077760B001C
:1092FC0053710B0025710B000000000000000000F2
:10930C00D1710B0005720B009D700B00B7700B0038
:10931C000D750B00E1700B0083730B0015710B00C6
:10932C0015740B0055720B00B1730B00C1750B005B
:10933C0051730B0017710B00C9700B0059710B00A6
:10934C0035720B0025592D256D2D25645425483A71
:10935C00254D3A2553257A0061736374696D650058
:10936C00000000000000000091760B00FD760B0061
:10937C00D5760B004D6A0B00A5760B00C1760B0061
:10938C00B3760B00CF760B0093760B0097760B0021
:10939C0000000000000000003B770B00A3770B00DF
:1093AC0079770B004D6A0B006B770B003D770B0048
:1093BC004D770B009D770B005D770B0035770B001D
:1093CC000000000000000000A3780B0099780B004F
:1093DC008F780B0045780B0083780B0077780B00A7
:1093EC0029690B0031690B006B780B0063780B005B
:1093FC0059780B004F780B0061690B0000537431E6
:10940C00395F53705F6D616B655F73686172656422
:10941C005F7461670000000064940B0009940B00FA
:10942C00C4940B0038940B00E8940B004E31305F61
:10943C005F637878616269763131375F5F636C6145
:10944C0073735F747970655F696E666F45000000B9
:10945C00000000002C940B00897C0B009D7C0B0001
:10946C00317E0B00317E0B00077D0B00497C0B001D
:10947C00EF7C0B00B17C0B007B7C0B00C4940B00CD
:10948C0094940B002C940B004E31305F5F63787812
:10949C00616269763132305F5F73695F636C6173EF
:1094AC00735F747970655F696E666F4500000000CC
:1094BC000000000088940B00317D0B00457D0B00F3
:1094CC00317E0B00317E0B00077D0B00497C0B00BD
:1094DC00057E0B00917D0B00597D0B0064940B00F5
:1094EC00F0940B00537439747970655F696E666F14
:1094FC00005245454E54206D616C6C6F6320737542
:10950C0063636565646564002F746D702F6A656EA6
:10951C006B696E732D4743432D31302D7069706527
:10952C006C696E652D34385F323032303131323403
:10953C005F313630363138303633392F7372632F12
:10954C006E65776C69622F6E65776C69622F6C69DA
:10955C0062632F7374646C69622F72616E642E6324
:10956C000000202020202020202020282828282807
:10957C0020202020202020202020202020202020DF
:10958C002020881010101010101010101010101037
:10959C001010040404040404040404041010101037
:1095AC0010101041414141414101010101010101F2
:1095BC000101010101010101010101010110101062
:1095CC0010101042424242424202020202020202C5
:1095DC000202020202020202020202020210101035
:1095EC00102000000000000000000000000000003F
:1095FC00000000000000000000000000000000005F
:10960C00000000000000000000000000000000004E
:10961C00000000000000000000000000000000003E
:10962C00000000000000000000000000000000002E
:10963C00000000000000000000000000000000001E
:10964C00000000000000000000000000000000000E
:10965C0000000000000000000000000000000000FE
:10966C000000000005490B008D4E0B0075660B00C9
:10967C00ED660B00D9680B00396A0B003D6D0B00D1
:10968C0079700B007D760B00AD780B0000000000AC
:04969C0000000000CA
:1096A000040000001400000003000000474E5500B5
:1096B0004AB6C459CA4703476D930A1C4642C55768
:0496C000D0B81B38CB
:0496C40000000000A2
:1096C800010B0000E48B0B00000103070F1F3F7F15
:1096D8000080C0E0F0F8FCFE000000000000000080
:1096E8000000000000000000000000000000000072
:1096F8000000000000000000000000000000000062
:109708000000000000000000000000000000000051
:1097180000000000000000808080000000000000C1
:109728000000000000000000008080C0C0000000B1
:109738000000000000000000000000000000000021
:109748000000000000000000000000000000000011
:109758000000000000000000000000000000000001
:1097680000000000000000000000000080C0E0F0E1
:10977800F8FCF8E000000000000000000000000015
:109788000000000000808080808000808000000051
:1097980000808080808000FFFFFF00000000808044
:1097A800808000008080000080FFFF808000808033
:1097B80000808080800080800000000000808000A1
:1097C800008C8E84000080F8F8F88000000000000B
:1097D8000000000000000000F0F0F0F0F0F0F0F001
:1097E800F0F0F0F0E0E0C08000E0FCFEFFFFFF7F5B
:1097F800FFFFFFFFFF000000000000000000000066
:10980800000000FEFFC70101010183FFFF00007C8B
:10981800FEC70101010183FFFFFF0038FEC7830176
:10982800010183C7FFFF000001FFFF010100FFFFE7
:109838000701010100007FFF80000000FFFF7F009B
:1098480000FFFFFF000001FFFFFF01000000000014
:109858000000000000000000030F3F7F7FFFFFFFB4
:10986800FFFFFFFFE7C7C78F8F9FBFFFFFC3C0F092
:10987800FFFFFFFFFFFCFCFCFCFCFCFCFCF8F8F025
:10988800F0E0C00001030303030301030300000029
:1098980000010303030301010301000000010303A6
:1098A8000303010103030000000303000000030396
:1098B800000000000000000103030303030100008F
:1098C8000001030100000003030100000000000084
:1098D800000000000000000000000080C0E0F0F977
:1098E800FFFFFFFFFF3F1F0F87C7F7FFFF1F1F3D4A
:1098F800FCF8F8F8F87C7DFFFFFFFFFFFFFFFF7F14
:109908003F0F07003030000000000000000000009A
:10991800000000000000000000000000FEFEFC0047
:10992800000000000000000000000000000000002F
:109938000000000000E0C00000000000000000007F
:1099480000003030000000000000000000000000AF
:10995800000000000000000000C0FEFFFFFFFFFF46
:10996800FFFFFFFF7F7F3F1F0F071F7FFFFFF8F8F5
:10997800FFFFFFFFFFFEF8E000000001000000000D
:1099880000000000FEFE000000FCFEFC0C06060EB7
:10999800FCF80000F0F81C0E0606060CFFFFFF009E
:1099A80000FEFE00000000FCFEFC00183C7E66E69F
:1099B800CE84000006FFFF0606FCFEFC0C06060629
:1099C8000000FEFE0000C0F8FC4E4646464E7C787D
:1099D80040183C76E6CECC80000000000000000075
:1099E80000000000000000000000000001070F1F39
:1099F8001F3F3F3F3F1F0F03000000000000000013
:109A0800000000000F0F0000000F0F0F0000000003
:109A18000F0F000003070E0C18180C060F0F0F008D
:109A280000010F0E0C180C0F070100040E0C180C87
:109A38000F070000000F0F00000F0F0F00000000BD
:109A480000000F0F00000007070C0C181C0C06067E
:109A580000040E0C180C0F070000000000000000A6
:109A680000000000000000000000000000000000EE
:109A780000000000000000000000000000000000DE
:109A880000000000000000000000000000000000CE
:109A980000000000000000000000000000000000BE
:109AA80000000000000000000000000000000000AE
:109AB800000000000000000000000000000000009E
